:10000000021B5C8F993099FDC299220222348F45E0
:10001000E545B40A057F0D120003AF451200037FCA
:020020000022BC
:10002300021DED8F31E531C4540F902AAD93FF12B9
:0E0033000003E531540F902AAD93FF02000345
:100043000222D4E5D9543F70030204FA24FE60204F
:1000530024E2700302048F24F0602A240F60030259
:100063000500E4F5D3E5D254FC4402F5D2D20B22C9
:1000730020DE030205007876A6DBE5D454F34408BA
:10008300F5D4D20A22E5DC54036403700215DCAF15
:10009300DB7523008F24E5246408452360030204F1
:1000A30064900007E0FE900006E0FDEEF556EDF5E6
:1000B30057D3E557947FE55694004006755600756F
:1000C300577FE4F523F524900000E0F558A3E0F50D
:1000D30059E558546070030201AFE55830E767E50E
:1000E3005924FB604324FB6025247A704A90000462
:1000F300E0543FF52525E0242DF582E4342AF583E9
:10010300E493FC740193900000F0ECA3802390002F
:1001130004E064027006787EE6FF80047877E6FFE9
:10012300900000EFF002030D9000007401F0A3743F
:1001330060F07523008009E4900000F0A3F0F5233C
:1001430075240202046AE559246F6053146037244E
:1001530092B40C004003020464900163F8282873EE
:1001630002018702018902018902018902018902D0
:1001730001AC0201890201890201AC02018B020177
:10018300AC020189801B8019900004E06401900097
:10019300027006E07877F68004E0787EF68002D27B
:1001A3000FE4F523F52402046A020464E559B40B51
:1001B3000040030204629001C0F82828730204403F
:1001C30002031F02046202039E0204620202ED02A2
:1001D30001E10204620202F902031602046A9000BA
:1001E30003E024FE602614604024FD7003020283B2
:1001F300240560030202857562FF7563297564C770
:100203009029C7E493752300F524807C7562FF75FC
:1002130063297564D99029DCE493FE9029DBE49388
:10022300FDEEF523EDF524805F900002E014601BE2
:10023300146029146037240370357562FF756329D0
:100243007564F9752300752404803D7562FF756339
:10025300297564FD75230075240E802C7562FF7566
:10026300632A75640B752300752418801B80007541
:10027300620175630275649F7523007524128008FB
:1002830080007523007524FFD3E5579524E5569523
:10029300234006852356852457E524F4452370031C
:1002A30002046AC3E5579440E556940040067E0075
:1002B3007F408004AE56AF578E238F247400F874AA
:1002C30000FC7401FDAB62AA63A9641205D1C3E506
:1002D300579524F557E5569523F556E5242564F5FA
:1002E30064E5233563F56302046A900002E0755602
:1002F30000F55702046A900000E55FF0C3E55794E8
:1003030001E5569400500302046A75230075240125
:1003130002046A900002E0F55F02046AE558541F84
:10032300FD7C007020900003E0FE900002E0FBEBF8
:1003330064014E700D9029E09330E50302046A02D4
:100343000464020464ED64024C704D900004E014F4
:10035300603D14602914601524826028146014140D
:100363007033E5D654BC4402F5D602046A53D673FF
:1003730002046AE5D454BC4402F5D402046A53D49B
:100383007302046AE5D254BC4402F5D202046A53F0
:10039300D27302046A020464020464E558541FFD24
:1003A3007C007020900003E0FE900002E0FBEB6411
:1003B300014E700D9029E09330E50302046A0204B4
:1003C30064020464ED64024C7071900003E0FE90DB
:1003D3000002E0FDED4E7061900005E0FE90000428
:1003E300E0FDEDFFEE7050EF14604214602B1460DB
:1003F300142482602E14601714703CE5D654BF4455
:1004030003F5D68062E5D6547F440CF5D68058E5D3
:10041300D454BF4403F5D4804EE5D4547F440CF543
:10042300D48044E5D254BF4403F5D2803AE5D25494
:100433007F440CF5D28030802880268024E490000D
:1004430000F0A3F0C3E5579402E556940040067EFE
:10045300007F028004AE56AF578E238F248008801E
:10046300007523007524FFE524F4452370077559AF
:10047300FF75DCCF22D3E5249440E5239400500597
:100483008524DD8003E4F5DD75DCC022E558546086
:100493006002805EE55924FB604E147055C3E55736
:1004A3009440E556940040067E007F408004AE569B
:1004B300AF578E238F247400F87400FC7401FDABD6
:1004C30062AA63A9641205D1C3E5579524F557E5DC
:1004D300569523F556E5242564F564E5233563F540
:1004E300638524DD63DC4022E5E354804557F5E36F
:1004F3008008E4F5DD8003E4F5DD75DC0222E7091D
:10050300F608DFFA8046E709F208DFFA803E8882C0
:100513008C83E709F0A3DFFA8032E309F608DFFAF8
:100523008078E309F208DFFA807088828C83E3091C
:10053300F0A3DFFA806489828A83E0A3F608DFFAF6
:10054300805889828A83E0A3F208DFFA804C80D244
:1005530080FA80C680D4806980F28033801080A6C0
:1005630080EA809A80A880DA80E280CA8033898218
:100573008A83ECFAE493A3C8C582C8CCC583CCF0C4
:10058300A3C8C582C8CCC583CCDFE9DEE7800D896B
:10059300828A83E493A3F608DFF9ECFAA9F0EDFB72
:1005A3002289828A83ECFAE0A3C8C582C8CCC583BA
:1005B300CCF0A3C8C582C8CCC583CCDFEADEE88013
:1005C300DB89828A83E493A3F208DFF980CC88F085
:1005D300EF60010E4E60C388F0ED2402B4040050B6
:1005E300B9F582EB2402B4040050AF2323458223E0
:1005F30090055173BB010689828A83E0225002E78A
:1006030022BBFE02E32289828A83E49322BB010C8C
:10061300E58229F582E5833AF583E0225006E92550
:1006230082F8E622BBFE06E92582F8E222E582296A
:10063300F582E5833AF583E49322BB010689828A36
:1006430083F0225002F722BBFE01F322F8BB010D17
:10065300E58229F582E5833AF583E8F0225006E93D
:100663002582C8F622BBFE05E92582C8F222BC001A
:100673000BBE0029EF8DF084FFADF022E4CCF875BA
:10068300F008EF2FFFEE33FEEC33FCEE9DEC9840C9
:1006930005FCEE9DFE0FD5F0E9E4CEFD22EDF8F565
:1006A300F0EE8420D21CFEADF075F008EF2FFFEDC5
:1006B30033FD4007985006D5F0F222C398FD0FD5BD
:1006C300F0EA22BB0110E58229F582E5833AF5833E
:1006D300E0F5F0A3E0225009E92582F886F008E668
:1006E30022BBFE0AE92582F8E2F5F008E222E5835F
:1006F3002AF583E993F5F0A3E99322BB010DC582A3
:1007030029C582C5833AC5830208425011C582298F
:10071300F808E5F026F618F5F0E58236F622BBFE7A
:1007230011C58229F808E225F0F5F0F218E23582C6
:10073300F222F8E58229F582E5832AF58374019391
:1007430025F0F5F0E4933822F8BB0111E58229F591
:1007530082E5833AF583E8F0E5F0A3F0225009E956
:100763002582C8F608A6F022BBFE09E92582C8F255
:10077300E5F008F222EB9FF5F0EA9E42F0E99D4294
:10078300F0E89C45F022E6FC08E6FD08E6FE08E6F4
:10079300FF22ECF608EDF608EEF608EFF622BB01B1
:1007A3000789828A830208D75005E9F80208B5BB96
:1007B300FE05E9F80208E989828A830208FBBB0186
:1007C3001A89828A83D0F0D0E0F8D0E0F9D0E0FA39
:1007D300D0E0FBE8C0E0C0F00208E05016E9F8D032
:1007E30083D082D0E0F9D0E0FAD0E0FBC082C083AE
:1007F3000208CEBBFE16E9F8D083D082D0E0F9D050
:10080300E0FAD0E0FBC082C0830208F2228A838927
:1008130082E473EF4E6012EF60010EEDBB010B89B2
:10082300828A83F0A3DFFCDEFA2289F05007F709FE
:10083300DFFCA9F022BBFEFCF309DFFCA9F022C513
:10084300F0F8A3E028F0C5F0F8E5821582700215F0
:1008530083E038F022E88FF0A4CC8BF0A42CFCE9E1
:100863008EF0A42CFC8AF0EDA42CFCEA8EF0A4CD2F
:10087300A8F08BF0A42DCC3825F0FDE98FF0A42C43
:10088300CD35F0FCEB8EF0A4FEA9F0EB8FF0A4CFF6
:10089300C5F02ECD39FEE43CFCEAA42DCE35F0FDA7
:1008A300E43CFC22C3E49FFFE49EFEE49DFDE49C44
:1008B300FC22E6FB08E6FA08E6F922FAE6FB08085A
:1008C300E6F925F0F618E6CA3AF622EBF608EAF658
:1008D30008E9F622E0FBA3E0FAA3E0F922EBF0A398
:1008E300EAF0A3E9F022E2FB08E2FA08E2F922EBDC
:1008F300F208EAF208E9F222E493FB740193FA7432
:100903000293F922D083D082F8E493701274019396
:10091300700DA3A393F8740193F5828883E4737431
:1009230002936860EFA3A3A380DFE5402434F8E6D5
:1009330005402278313007027834E475F00112085B
:10094300BE0205F72000EB7F2ED2008018EF540F74
:100953002490D43440D4FF30040BEF24BFB41A00E6
:1009630050032461FFE541600215410544E54470ED
:1009730002054330070D7831E475F0011208BEEF2C
:1009830002063D02000E7403D2078003E4C207F59A
:10099300408B318A328933E4F541F543F544E5412F
:1009A30060077F2012096880F57542FFC201C2000B
:1009B300C202C203C205C206C208120936FF700D85
:1009C3003007057F00120979AF44AE4322B4255F97
:1009D300C2D5C204120936FF24D0B40A00501A75D6
:1009E300F00A784130D50508B6FF0106C6A426F6FD
:1009F30020D5047002D20380D924CFB41A00EF505B
:100A030004C2E5D204020B79D20180C6D20080C0B1
:100A1300D20280BCD2D580BAD20580B47F2012091D
:100A2300682002077401B5410040F112092DFF123D
:100A330009680209A1D208D206809512092DFB127A
:100A4300092DFA12092DF94A4B7006794A7A0C7B63
:100A5300FF20022EE541602A7E008E8275830012FC
:100A6300061060060EEE654270F0C2D5EBC0E0EAF8
:100A7300C0E0E9C0E0EE120BC0D0E0F9D0E0FAD05C
:100A8300E0FB1205F7FF60AAEBC0E0EAC0E0E9C0B3
:100A9300E0120968D0E02401F9D0E03400FAD0E094
:100AA300FBE5420460DCD542D980877BFF7A0B7972
:100AB300BCD202809C791080027908C206C20880E9
:100AC30008D2D5790A8004790AC2D5E542047002B6
:100AD300F542E4FAFDFEFF12092DFC7B0820011309
:100AE30012092DFD7B1030000A12092DFE12092D6B
:100AF300FF7B20EC3382D592D55013C3E43000063C
:100B03009FFFE49EFEE42001039DFDE49CFCE4CBF7
:100B1300F8C201EC700CCFCECDCCE824F8F870F31A
:100B23008017C3EF33FFEE33FEED33FDEC33FCEB05
:100B330033FB994002FB0FD8E9EB300105F8D0E015
:100B4300C448B201C0E00AEC4D4E4F78207B0070E0
:100B5300C2EAB5420040BCC0E0120BC2D0F0D0E004
:100B6300200104C4C0E0C4B201C0F0120951D0F0A6
:100B7300D5F0EB0209A11209070A3E530AB8580A35
:100B83000F4C0A0B420ABC4F0AC4440AC4490A2444
:100B9300430ACA550AAE460AAE450AAE470C6A5026
:100BA3000A132D0A172E0A3A2B0A1B230A38200C84
:100BB300532A09D34800000A323F3F3F00790AA273
:100BC300D5200314300509B910020404B90801043F
:100BD300A2D52006025001042002689202B541000A
:100BE3005034C0E07F203003197F30A202720672B6
:100BF30005500F120C19C202C206C205C2087F308B
:100C0300800F300503E9C0E0120968300503D0E026
:100C1300F9D0E0B541CC3005177F30B9100C12097B
:100C2300687F583004077F788003B9080312096886
:100C33003002057F2D0209687F202008F87F2B20D2
:100C430006F322920280CF286E756C6C2900D201C4
:100C530012092D3001F8C201784130D50108F6029E
:100C630009D32D5043495812092D2403B4050040DC
:100C730001E4900C6593120959743A120959D2038D
:100C8300754104020AB8E54A454B45497003020E13
:100C9300C97531FF75322775339EAB49AA4AA94BF3
:100CA300121BF6EA494B6046E54D454E454C602D17
:100CB300752B00752C00752D00752E0AAB4CAA4DB3
:100CC300A94E121265EF5401FFEF5401FF787CE641
:100CD300FC08E654FEFDEC18F6ED4F08F67BFF7AB0
:100CE3002779A3753400787DE65401020DB275317E
:100CF300FF7532277533ADAB49AA4AA94B121BF6D0
:100D0300EA494B6060E54D454E454C603A752B0012
:100D1300752C00752D00752E0AAB4CAA4DA94E12E9
:100D23001265EF5401FFEF5401C4F8540FC868FF74
:100D3300E4C454F048FE787CE6FC08E654EFFDEC8E
:100D43004E18F6ED4F08F6797CE7C4F854F0C8095D
:100D5300E7C4540F487534005401F5357BFF7A27F7
:100D630079B1020F017531FF7532277533BAAB497B
:100D7300AA4AA94B121BF6EA494B6038E54D454E8A
:100D8300454C601D75340075350075360075371098
:100D9300AB49AA4AA94B1210C1900104E4F0A3EF96
:100DA300F07BFF7A2779BF900104E0F534A3E0F5E7
:100DB30035020F017531FF7532277533CFAB49AA61
:100DC3004AA94B121BF6EA494B6053E54D454E4584
:100DD3004C6033752B00752C00752D00752E0AABF6
:100DE3004CAA4DA94E121265EF5401FFEF54012591
:100DF300E0FFE433FE787CE6FC08E654FDFDEC4EB0
:100E030018F6ED4F08F6797CE7C31309E713753439
:100E1300005401F5357BFF7A2779D4020F01753130
:100E2300FF7532277533DEAB49AA4AA94B121BF66D
:100E3300EA494B6038E54D454E454C601D7534001D
:100E430075350075360075370AAB4CAA4DA94E129D
:100E530010C1900102EEF0A3EFF07BFF7A2779E255
:100E6300900102E0F534A3E0F535020F017531FF7F
:100E73007532277533EAAB49AA4AA94B121BF6EA26
:100E8300494B603AE54D454E454C6020753400753D
:100E9300350075360075370AAB4CAA4DA94E1210B2
:100EA300C1900106EEF0A3EFF01226167BFF7A271E
:100EB30079EE900106E0F534A3E0F53580407BFF41
:100EC3007A2779F680387BFF7A2779F612098F75AE
:100ED3003400787DE65401F535797CE7C4F854F0A5
:100EE300C809E7C4540F487536005401F53790011B
:100EF30002E0F538A3E0F5397BFF7A28792312095C
:100F03008F22E4F528F529F52AF52BF52CF52DE5A7
:100F13004A454B454970030210B77531FF753226B8
:100F23007533DAAB49AA4AA94B121BF6EA494B704F
:100F330003020FCBE54D454E454C70030210C075BF
:100F43003400753500753600753710AB4CAA4DA9C2
:100F53004E1210C18E288F29E4F52CF52DE5292595
:100F63002DFFE528352CFED3EF943EEE9400504F31
:100F7300E52D5407700D7BFF7A2679DF8E348F358C
:100F830012098F7BFF7A2679E8E529252DFFE528CD
:100F9300352CFEEF25E0FFEE33FE74002FF582744F
:100FA300013EF583E0F534A3E0F53512098F052DF5
:100FB300E52D7002052CD3943EE52C9400409E7BD6
:100FC300FF7A2679AB0210BD7531FF753226753372
:100FD300EEAB49AA4AA94B121BF6EA494B7003022E
:100FE300106BE54D454E454C70030210C0E550456E
:100FF30051454F70030210C07534007535007536C6
:1010030000753710AB4CAA4DA94E1210C1E4F52858
:101013008F29F534F535F536753710AB4FAA50A93E
:10102300511210C1EFFDEEFCE52925E0FFE5283361
:10103300FE74002FF58274013EF583ECF0A3EDF00E
:101043007BFF7A2679F474002FF58274013EF583D1
:10105300E0F534A3E0F53512098F7BFF7A27790297
:1010630085283485293580527531FF7532277533CC
:1010730020AB49AA4AA94B121BF6EA494B600B1253
:1010830020787BFF7A27792580307531FF753227E9
:1010930075333FAB49AA4AA94B121BF6EA494B6089
:1010A3000B121EDA7BFF7A277944800E7BFF7A27A7
:1010B300795C80067BFF7A27795C12098F228B315A
:1010C3008A328933E4F53DF53CF53BF53AF538F5DD
:1010D30039E535453645346012EBC0E0EAC0E0E956
:1010E300C0E0AB34AA35A9361207C1AB310533E5ED
:1010F30033AA327002053214F91205F7F53EC39490
:10110300094007E53ED3940D40E1E53E642060DBF2
:10111300E53EB42D054339038016E53EB42B054364
:101123003901800C74FF2533F53374FF3532F53202
:10113300E53760046410703FAB31AA32A93312055E
:10114300F764306009E537702E75370A80299000FF
:1011530001120610FF64786004EFB4581343390199
:1011630075371074022533F533E43532F5328007D1
:10117300E5377003753708AB310533E533AA3270B1
:1011830002053214F91205F7F53EC39461400AE5EE
:101193003ED3947A5003533EDF74D0253EF53EC3CD
:1011A300940A400CE53E9411406D74F9253EF53EDA
:1011B300E53EC395375060433901853D42853C4147
:1011C300853B40853A3FAF377E00E4FCFDAB3DAA4B
:1011D3003CA93BA83A120858C8ECC8C9EDC9CAEEE5
:1011E300CACBEFCBE4FCFDFEEB253EF53DEE3AF535
:1011F3003CED39F53BEC38F53AAF3DAE3CAD3BFC4D
:10120300AB42AA41A940A83FD31207785003021169
:101213007A43390402117AE53920E003E4802DE5AD
:101223003545364534601EAB31E53324FFF9E532ED
:1012330034FFFAEBC0E0EAC0E0E9C0E0AB34AA3522
:10124300A9361207C1E53930E20774FFFFFEFDFC42
:1012530022E539AF3DAE3CAD3BAC3A30E103020889
:10126300A7228B288A29892AE4F534F533F532F548
:1012730031F52FF530E52C452D452B6012EBC0E001
:10128300EAC0E0E9C0E0AB2BAA2CA92D1207C1AB41
:1012930028052AE52AAA297002052914F91205F757
:1012A300F535C394094007E535D3940D40E1E535A1
:1012B300642060DBE535B42D054330038016E53546
:1012C300B42B05433001800C74FF252AF52A74FFE3
:1012D3003529F529E52E60046410703FAB28AA294F
:1012E300A92A1205F764306009E52E702E752E0ABF
:1012F3008029900001120610FF64786004EFB4584F
:1013030013433001752E107402252AF52AE435297A
:10131300F5298007E52E7003752E08AB28052AE50D
:101323002AAA297002052914F91205F7F535C39481
:1013330061400AE535D3947A50035335DF74D025E1
:1013430035F535C3940A400CE5359411405374F9CF
:101353002535F535E535C3952E5046433001AF2E7F
:101363007E00E4FCFDAB34AA33A932A8311208583D
:10137300C8ECC8C9EDC9CAEECACBEFCBE4FCFDFE8D
:10138300EB2535F534EE3AF533ED39F532EC38F536
:1013930031AF34AE33AD32FC3350804330040213EB
:1013A3001EE53020E006E4FFFEFDFC22E52C452D82
:1013B300452B601EAB28E52A24FFF9E52934FFFA03
:1013C300EBC0E0EAC0E0E9C0E0AB2BAA2CA92D12E8
:1013D30007C1E53030E21230E107E4FFFEFD7C8017
:1013E3002274FFFFFEFD7C7F22E530AF34AE33ADC8
:1013F30032AC3130E1030208A722EF133094030229
:1014030014AD9295A2B3E433D297C43333335480EB
:10141300FEEFC3134EFFC297139295A2B3E433D2E8
:1014230097C43333335480FEEFC3134EFFC2971375
:101433009295A2B3E433D297C43333335480FEEF8F
:10144300C3134EFFC297139295A2B3E433D297C44A
:101453003333335480FEEFC3134EFFC29713929579
:10146300A2B3E433D297C43333335480FEEFC313B0
:101473004EFFC297139295A2B3E433D297C433338A
:10148300335480FEEFC3134EFFC297139295A2B35A
:10149300E433D297C43333335480FEEFC3134EFF88
:1014A300C297139295A2B30215529295A296E43372
:1014B300D297C43333335480FEEFC3134EFFC29726
:1014C300139295A296E433D297C43333335480FEF8
:1014D300EFC3134EFFC297139295A296E433D297AC
:1014E300C43333335480FEEFC3134EFFC2971392BA
:1014F30095A296E433D297C43333335480FEEFC3BB
:10150300134EFFC297139295A296E433D297C43336
:1015130033335480FEEFC3134EFFC297139295A249
:1015230096E433D297C43333335480FEEFC3134E60
:10153300FFC297139295A296E433D297C433333301
:101543005480FEEFC3134EFFC297139295A296E405
:1015530033D297C43333335480FDEFC3134DFFC2EB
:101563009722E4F52820120302169F752CFF752D90
:1015730026752EA17B017A027920121C788B468A6C
:10158300478948EA494B606F752CFF752D26752EE8
:10159300A17B007A007900121C788B498A4A894B17
:1015A300EA494B6052752CFF752D26752EA17B00E1
:1015B3007A007900121C788B4C8A4D894EEA494B8C
:1015C3006035752CFF752D26752EA17B007A007969
:1015D30000121C788B4F8A508951EA494B60187569
:1015E3002CFF752D26752EA17B007A007900121C25
:1015F300788B528A538954E4F528E528C3955550CE
:101603002F75F009E528A42460F582E5F03402F58E
:1016130083E0FBA3E0FAA3E08B318A32F533AB46D8
:10162300AA47A948121BF6EA494B7004052880CA49
:10163300E528C39555503675F009E528A42466F5C9
:1016430082E5F03402F583E0FBA3E0FAA3E0F9EAD4
:10165300494B601975F009E528A42466F582E5F085
:101663003402F583A3E0FAA3E0F9120810754600EB
:10167300754700754800754900754A00754B00753C
:101683004C00754D00754E00754F00755000755137
:1016930000755200755300755400C21222E4F528F8
:1016A300F529F52AF52BF52CF52DF52EF52FF5302B
:1016B300E54A454B454970030217D075340075352B
:1016C30000753600753710AB49AA4AA94B1210C1F1
:1016D3008E288F29E529452870030217C88E2A8F83
:1016E3002BE4F52DF52E7BFF7A2679A3E52EC4F89E
:1016F300540FC868FFE52DC454F048FEE5292FF5C3
:1017030035E5283EF53412098FE4F52FF530E52E43
:10171300C4F8540FC868FFE52DC454F048FEE53003
:101723002FFFE52F3EFEE52B2FF582E52A3EF583BD
:10173300E493F52CFF1200267F201200030530E509
:10174300307002052FC39410E52F940040C0E4F5D8
:101753002FF530E52EC4F8540FC868FFE52DC454A7
:10176300F048FEE5302FFFE52F3EFEE52B2FF582F7
:10177300E52A3EF583E493F52CFF7E00C3942074A1
:10178300809480400CD3EF947E74809480500280C8
:10179300027F2E1200030530E5307002052FC3943B
:1017A30010E52F940040AC7BFF7A2679AB12098FAA
:1017B300052EE52E7002052DC39410E52D940050DF
:1017C300030216E9227BFF7A2679AD80067BFF7A36
:1017D3002679BB12098F22021A00000218FFFF02AA
:1017E300602B65047F00000000C111C10EC110020F
:1017F3005B0080025D00C002780000017704017E77
:1018030004017600C10F027A0000015F0003620049
:10181300000052029F12034600460046004600465F
:1018230000460046004600015A00016900C10AC192
:101833008B016F00016E000272000003460000007E
:101843000349000000034C000000034F00000003A5
:1018530052000000603F0260FF2950FF27F6FF0C93
:1018630089FF2955FF275CFF0F05FF295CFF28A38C
:10187300FF1CF8FF2962FF2969FF236EFF298CFFF4
:101883002991FF1D73FF299DFF29A5FF21DDFF2955
:10189300C1FF26BBFF16A0015507C1120174000149
:1018A300750060200200000000000000000000003E
:1018B3000000000000000000000000000000000025
:1018C3000000000000006040022000000000000053
:1018D3000000000000000000000000000000000005
:1018E30000000000000000000000000000000000F5
:1018F30000000000000000000000000000000000E5
:1019030000000000000000000000008F27E4F574D1
:10191300AF2712266B5038AF74057474002FF5820D
:10192300E43402F583E527F0AF75C3EF9440748088
:10193300948040030219ECAF2712264BAE75057550
:1019430074202EF582E43402F583EFF00219ECE5FE
:101953002764087043AF74057474002FF582E43470
:1019630002F5837408F0AF74057474002FF582E4F4
:101973003402F5837420F0AF74057474002FF5827C
:10198300E43402F5837408F0AF75D3EF94007480E8
:101993009480405515758051E527640D704BAF74E5
:1019A300057474002FF582E43402F583740DF0AFEF
:1019B30074057474002FF582E43402F583740AF01D
:1019C300AF75C3EF9440748094805016AF7505755E
:1019D30074202FF582E43402F583E4F0F575D21216
:1019E3008007E490025FF0F575AF74C3EF94407421
:1019F3008094804003E4F57422C3E56D956BE56C38
:101A0300956A4003021AB1E56F04547F656E700353
:101A1300021AB1056DE56DAE6C7002056C1425718B
:101A2300F582E5703EF583E0FCE57345727050EC9A
:101A33005480C36001D3920DEC5440C36001D39230
:101A43000C300D0AEC543F757200F57380ABECFF5C
:101A5300300C26122432A2B3E43325E0FFA296E42D
:101A6300334FFF7480256FF582E43401F583EFF083
:101A7300E56F04547FF56F80801224320219FCEC69
:101A8300FF300C191213FD7480256FF582E43401C5
:101A9300F583EFF0E56F04547FF56F800312212E79
:101AA300E4F569E5731573700215720219FC2220BF
:101AB3000B03021B5BE56FC3956E5007E56F248034
:101AC300C38003C3E56F956EF528AF287E00D3EF7F
:101AD300943E74809480400875283EE4F569802B19
:101AE300EF4E7027787F120789C3EF9568FFEE9555
:101AF30067FEED9566FDEC9565FCE47B0AFAF9F863
:101B0300D3120778400530094FC209787F1207893D
:101B13008F688E678D668C65C20B9000407401F0F0
:101B2300A37460F0E4FFEFC3952850237480256EFF
:101B3300F582E43401F583E0FE74422FF582E43448
:101B430000F583EEF0E56E04547FF56E0F80D7E564
:101B5300282402F5D353D2FC22787FE4F6D8FD90F3
:101B630000007F007E04E4F0A3DFFCDEFA758182CF
:101B7300021BB1022186E493A3F8E493A34003F686
:101B83008001F208DFF48029E493A3F85407240CBE
:101B9300C8C333C4540F4420C8834004F45680019F
:101BA30046F6DFE4800B0102040810204080901702
:101BB300DAE47E019360BCA3FF543F30E509541F70
:101BC300FEE493A360010ECF54C025E060A840B8A3
:101BD300E493A3FAE493A3F8E493A3C8C582C8CA21
:101BE300C583CAF0A3C8C582C8CAC583CADFE9DEF4
:101BF300E780BE8B2E8A2F8930AB31AA32A93312EC
:101C030005F76063AB2EAA2FA9301205F7605F8535
:101C130031348532358533368B378A388939AB345D
:101C2300AA35A9361205F7FF6023AB37AA38A939BD
:101C33001205F76F7017042536F536E43535F5359B
:101C430074012539F539E43538F53880D1AB34AA38
:101C530035A9361205F77002800D74012530F53071
:101C6300E4352FF52F809DAB2EAA2FA930227B00C0
:101C73007A007900228B298A2A892BE94A4B700939
:101C8300851C29851D2A851E2BE52B452A45297090
:101C930002802C852C32852D33852E34AB29AA2A3C
:101CA300A92B121FBAEF252BF52BEE352AF52AABFC
:101CB30029FAA92B1205F7700AF51CF51DF51EFB71
:101CC300FAF922852C32852D33852E34AB29AA2AA5
:101CD300A92B12201B8B1C8A1D891EEA494B600EFF
:101CE300E412063D04251EF51EE4351DF51DAB2942
:101CF300AA2AA92B22E54A454B454960697531FF5C
:101D0300753227753320AB49AA4AA94B121BF6EA51
:101D1300494B600C7BFF7A28793B12098F022543DC
:101D23007531FF75322775333FAB49AA4AA94B1268
:101D33001BF6EA494B600C7BFF7A28795C12098F0A
:101D4300D210227531FF75322875337BAB49AA4A0D
:101D5300A94B121BF6EA494B7BFF600C7A28798367
:101D630012098F0220D37BFF7A2879A312098F22CD
:101D7300E4F528F528C3E528940674809480506917
:101D830075F009E528A42466F582E5F03402F583AD
:101D9300E0FBA3E0FAA3E0F9EA494B60487BFF7A52
:101DA3002679A112098F75F009E528A42460F5822C
:101DB300E5F03402F583E0FBA3E0FAA3E0F91209AE
:101DC3008F7BFF7A2879D212098F75F009E528A451
:101DD3002463F582E5F03402F583E0FBA3E0FAA384
:101DE300E0F912098F0528808C22C0E0C0F0C0837F
:101DF300C082C0D0E8C0E0E9C0E0EAC0E0EBC0E0E8
:101E0300ECC0E0EDC0E0EEC0E0EFC0E030982BAFF7
:101E13009912190E752600E526C39574501A787D1C
:101E2300E630E01474002526F582E43402F583E0FD
:101E3300FF120003052680DFC298309902C299D0B1
:101E4300E0FFD0E0FED0E0FDD0E0FCD0E0FBD0E04E
:101E5300FAD0E0F9D0E0F8D0D0D082D083D0F0D05F
:101E6300E0328B2E8A2F89308C318D32E4FDFC7465
:101E7300FFF533F534E4F535F536C3ED9532EC95DE
:101E830031504FED25E0FFEC33AB2EAA2FA9308F55
:101E930082F5831206C6AEF06234EE6233E4FAFBD7
:101EA300753500E5345401F536E533C313F533E5F1
:101EB3003413F534E536453560066334016333A0E6
:101EC3000BBB00010AEB64084A70D50DBD00010C81
:101ED30080A8AE33AF34227B017A0179007D3E7C4A
:101EE30000121E658E188F19E4FDFCFFFE12258873
:101EF300AD19AC187F027E00122588E4F51AF51B94
:101F0300E51B25E0FDE51A33FCED2404FFE43CC0AA
:101F1300E0EFC0E074002DF58274013CF583E0FC32
:101F2300A3E0FDD0E0FFD0E0FE122588051BE51BF2
:101F33007002051AC3943EE51A940040C390017CD5
:101F4300E518F0A3E519F0AE18FF228E308F318B20
:101F5300328A33893475A15575A1AA43B104E4F5D6
:101F6300A17585C0E53125E0F531E53033F530E481
:101F7300FFEFC39536E495355030EF25E02531F575
:101F830084AB32AA33A9348F82758300120610F50D
:101F93008EE58630E60375869AE5866440D3940021
:101FA300748094804001220F80C775A15575A1AA42
:101FB30053B1FBE4F5A1228B2F8A308931E4F53547
:101FC300F536E4FEFFAB32AA33A9348F828E831237
:101FD3000610FD6013AB2FAA30A9311205F76D600F
:101FE300070FBF00010E80DDAB32AA33A9348F8205
:101FF3008E831206107002801A0536E536700205CC
:1020030035AB2F0531E53170020530F9AA301205E1
:10201300F770AFAE35AF36228B2F8A3089318532D8
:1020230035853336853437AB35AA36A9371205F7EC
:10203300FF6019AB2FAA30A9311205F76F600D7439
:10204300012537F537E43536F53680DBAB35AA366F
:10205300A9371205F76007AB2FAA30A93122AB2F9E
:102063000531E531AA307002053014F91205F77015
:10207300ADFBFAF922E4F51AF51BE51B25E0FFE5B4
:102083001A33FEEF2404FFE43EFE1225DBEEFCEFE1
:10209300FDE51B25E0FFE51A33FE74002FF582747E
:1020A300013EF583ECF0A3EDF0051BE51B70020583
:1020B3001AC3943EE51A940040C07F027E001225A5
:1020C300DB8E188F1990017CE518F0A3E519F02237
:1020D300E4FFEFC39440748094805014EF25E02410
:1020E30000F582E43401F58374FFF0A3F00F80E27E
:1020F300E4787CF608F6E64401F6E654FDF6E65489
:10210300FBF6E64408F6E654EFF618E6FF08E69019
:102113000100CFF0A3EFF0A3E4F0A37464F0E4A311
:10212300F0A3F0A304F0A37480F022EF139295D2EE
:1021330097EFC313FFC297139295D297EFC313FF81
:10214300C297139295D297EFC313FFC29713929539
:10215300D297EFC313FFC297139295D297EFC3138E
:10216300FFC297139295D297EFC313FFC2971392AF
:1021730095D297EFC313C297139295D2970000009D
:10218300C297221226047F0A7E001225A812269ED9
:1021930012207812254340061220D31224CE122691
:1021A3003A1223F51225F1122566787DE630E40311
:1021B30012228512232312265CD2AFD29112156507
:1021C3001224F712267AE4F5FFE55F6003122695E1
:1021D300300FEAC20F12251F80E3E4F5287BFF7A54
:1021E3002879FAE560C313753400547FF535780513
:1021F300AE60E561CEC313CE13D8F9753600540F24
:10220300F537753800E561541FF53912098FE4F588
:1022130028C3E528940574809480500CAF281224B9
:102223009E120026052880E97BFF7A297915020989
:102233008FC0E0C0F0C083C082C0D075D010758C51
:10224300C1758A80787F120789EF2401FFE43EFE7F
:10225300E43DFDE43CFC787F120795787B06E618A5
:10226300700106C3787BE6940518E6940040057672
:10227300000876001225C2D0D0D082D083D0F0D00F
:10228300E032E4F528F52890029FE024FE1313546E
:102293003FFEE528C39E5038AF2812249EEFC45456
:1022A3000F902AAD93FEE52825E025E0FD24A1F556
:1022B30082E43402F583EEF0EF540F902AAD93FEDF
:1022C30074A32DF582E43402F583EEF0052880B77C
:1022D30022C0E0C0F0C083C082C0D075D00830D91E
:1022E30007120046C2D9802D30D81B75DC0275D287
:1022F3001275D41075E300C2DAC2D9C2D8755F0073
:1023030078767600800F30DA09C2DAE5DA30E20552
:10231300800375D8FFD0D0D082D083D0F0D0E03204
:1023230075E229E4F5E343D18053D1FB43D1017432
:1023330000FE74008EEDF5EC75DC02E4F5DD74004F
:10234300FE74408EEFF5EE75EA4075D212E4F5D3D4
:102353007400FE74808EE5F5E475EB0975D410E422
:10236300F5D543E18743D81FD2EA22E54A454B45D9
:1023730049602A7531FF7532287533D7AB49AA4AAC
:10238300A94B121BF6EA494B60267BFF7A2879DBBF
:1023930012098F7F647E001225A802251F7BFF7A16
:1023A3002879EE12098F7F647E001225A8122688F1
:1023B300228E308F318B328A338934E4FF7585C0A6
:1023C300E53125E0F531E53033F530EFC39536E4FB
:1023D3009535501DEF25E02531F58475868EAB329A
:1023E300AA33A9348F82758300E58E12064F0F80BE
:1023F300DA224393025392FD4393105392EF439394
:10240300205392DF43934043924043938053927F00
:102413004397014396014397025396FD4397045311
:1024230096FB4397084396084397105396EF22EF82
:102433005410C36001D39295EF5402C36001D39249
:10244300B2EF5401C36001D39297EF5404C3600108
:10245300D392B4EF5408C36001D39294EF5420C3D2
:102463007001D3929122300A31E56D656B7004E5FA
:102473006C656A7025E5D430E706AE5BAF5C80041B
:10248300AE5DAF5E8E708F717876E6756A00F56B20
:10249300E4F56CF56DC20A53D4F3227EFFEF1460AA
:1024A300121460141460161460182404701A903FF8
:1024B300FC8012903FFD800D903FFE8008903FFF0F
:1024C3008003903FFAE493FEEEFF2274FFFE787CD4
:1024D300E6FF08E6900100CFF0A3EFF07B017A015D
:1024E30079007D377C00121E6590016EEEF0A3EF3C
:1024F300F0021EDA301124C2110569AF69D3EF94DB
:10250300FA7480948040037569FAAF69C3EF94C885
:10251300748094805003C29122D291227528387519
:102523002900C2BCE4F593F5927590FFF5E175E2DD
:10253300067F64FE1225A8C2AFAA28A929020810A3
:102543007B017A0179007D387C00121E65EF4E60B5
:1025530002C322900100E0FFA3E0787CCFF608EFEE
:10256300F6D322E4F569C20AD20BF572F573C20DF4
:10257300C20CF568F567F566F565D209F56AF56B82
:10258300F56CF56D22EFFBEEFAECF52ECFEDCFEF08
:10259300F52FCFEBCFEA7B007A00792E75350075E6
:1025A3003602021F4EEFFDEEFCED4C60117FE87E1C
:1025B30003122628E4F5FFED1D70EE1C80EB2205C7
:1025C3005AC3E55A9464748094804003E4F55AE551
:1025D3005A7002D20ED211227B007A00792E753501
:1025E300007536021223B4E52EFEE52FFF22438742
:1025F30080759850758DE6758BE6C2ABD28ED2ACE2
:102603002275A15575A1AAE5B954F84405F5B9E4B5
:10261300F5A122EFFDEEF59E439D02539DFD439DE3
:1026230008EDF59B22EF4E600D05A105A105A1EF75
:102633001F70F21E80EF2243C9F0758921758CC18A
:10264300758A80D28CD2A922EFC39441400AEF94B9
:102653005B5005EF2420FF222275A15575A1AA43E3
:10266300B101E4F5A1F5FF22EFC394204007EF94F5
:102673007F50028001C322300E0AC20E301005C201
:10268300101224CE2275A15575A1AA43B110E4F509
:10269300A1221224691219FC021AB2022078200026
:1026A30030782530345820000A00204261642041EC
:1026B3006472657373210A006D656D7264205B68D3
:1026C300657820616464725D2052656164204D65A4
:1026D3006D6F72792E0A0072656164000A30782585
:1026E30030345820002530345820007772697465DF
:1026F30000207772697465203078253034580020C3
:10270300746F20656570726F6D20616464726573A8
:1027130073203078253034582E2E2E0A006C6F61CA
:1027230064004C6F61642066726F6D20496E742E75
:1027330020454550524F4D2E2E2E0A00736176656B
:10274300005361766520746F20496E742E204545D1
:1027530050524F4D2E2E2E0A00656570726F6D20FC
:102763005B6C6F61647C736176657C726561647CAC
:1027730077726974655D205B616464725D205B647C
:102783006174615D204F70657261746520496E7478
:102793002E20454550524F4D2E0A006563686F0049
:1027A300204543484F3D25640A0075736E0020554C
:1027B300534E3D25640A00636C6B6F004D434C4BD5
:1027C3004F43523D3078253034580A007465737492
:1027D3000020544553543D25640A006C6564004C45
:1027E30045443D25640A0070776D0050574D3D25E3
:1027F300640A006374726C205B6563686F7C736545
:102803007269616C7C6C65645D205B706172616D83
:102813005D20446576696365204374726C2E0A00FB
:10282300204543484F3D25642055534E3D256420A4
:102833004C45443D25640A00204C6F61642070615F
:1028430072616D65746572732066726F6D204545A4
:1028530050524F4D2E2E2E0A002053617665207064
:102863006172616D657465727320746F20454550A4
:10287300524F4D2E2E2E0A00726573746F726500CF
:1028830020526573746F72652064656661756C743C
:1028930020706172616D65746572732E2E2E0A004D
:1028A300706172616D205B6C6F61647C73617665CE
:1028B3007C726573746F72655D204F7065726174AD
:1028C3006520706172616D65746572732E0A0020F4
:1028D3002D3E200069737000207265626F6F742053
:1028E300746F204953502E2E2E0A00207265626F9A
:1028F3006F742E2E2E0A00205553422D426C6173A5
:10290300746572207625642E25642E256420534E2B
:102913003A000A204543484F2053747564696F2079
:102923003C6563686F2E786A747540676D61696C86
:102933002E636F6D3E2E20416C6C20526967687464
:10294300732052657365727665642E0A0063747230
:102953006C00656570726F6D00706172616D0072FD
:1029630065626F6F74007265626F6F74205B64657C
:102973006C6179206D735D2052657374617274208C
:1029830073797374656D2E0A0068656C70006865F1
:102993006C7020496E666F2E0A0076657273696FDC
:1029A3006E00646973706C61792053572076657289
:1029B30073696F6E20616E6420534E2E0A006D653D
:1029C3006D7264001201000200000040FB09016007
:1029D30000040102030109022000010100804B09E8
:1029E30004000002FFFFFF02070581024000000709
:1029F300050202400000040309040E0341006C00B9
:102A03007400650072006100180355005300420012
:102A13002D0042006C0061007300740065007200B9
:102A23000A060002FFFFFF400000000009FB6001EF
:102A330004004B80001C02000E9418A212BA030E6D
:102A43000041006C007400650072006103180055BA
:102A530000530042002D0042006C006100730074BB
:102A63000065007203120030003000300030003087
:102A7300003000300030030200014552425600008E
:102A83000000000000000000000000000000000043
:102A93000000000000000000000000000000000033
:102AA3000000000000000000CB2A303132333435FF
:0B2AB3003637383941424344454600A5
:00000001FF
