:10000000021A733098FDC298AF99220226957F0A92
:100010007E0012260AC2949002657405F090026C6C
:100020007401F0A37402F0A37461F0A37402F07B76
:10003000017A027965121FABD294900262E05401FA
:10004000FF2200020066D297D2957F027E00122620
:100050000AC2957F027E0012260AC2977F027E00A6
:1000600002260A02250DC0E0C0F0C083C082C0D0C5
:10007000E8C0E0E9C0E0EAC0E0EBC0E0ECC0E0EDE1
:10008000C0E0EEC0E0EFC0E020D9030205FA30DFA7
:10009000030205F6E5D9543F70030205F324FE7010
:1000A000030201E524E270030205851470030203D4
:1000B0004E14700302021424F27003020362242F10
:1000C00060030205F620DE030205F6D390000BE084
:1000D000944090000AE094005074AFDB9001F5E486
:1000E000F0A3EFF0900243E4F0900243E0FFC394EA
:1000F0004040030201DC74322FF9E43400FA7B0142
:10010000EAC0E0900208A3E0FAA3E0F5828A83D077
:10011000E0FA1209A7900217E0F8A3E0F9A3E0FAC9
:10012000A3E0FB90000AE0FEA3E0FFE4FCFDEB2F60
:10013000FFEA3EFEED39FDEC38FC9002171209662D
:1001400090000AA3E0FF900243E02FF0809B900113
:10015000F5E0FEA3E024F2F974003EC8E9C8FC7D96
:10016000017B017A0079327E007F4012072DAFDBE0
:100170009001F6E02FF09001F5E03400F090000AD5
:10018000E0FEA3E0FFC39001F6E09F9001F5E09E42
:10019000404AE4F0A3F07B017A0079F2EAC0E090F3
:1001A0000208A3E0FAA3E0F5828A83D0E0FA1209FC
:1001B000A7900217E0F8A3E0F9A3E0FAA3E0FB9010
:1001C000000AE0FEA3E0FFE4FCFDEB2FFFEA3EFEA9
:1001D000ED39FDEC38FC90021712096675D34053D7
:1001E000D2FC0205F620DE030205F6900244E5DBB0
:1001F000F09001F5E4F0A3F07B0190024804F0A335
:100200007400F0A374B2F07A007972120D8875D57B
:1002100040020348900007E0640560030203489031
:10022000000AE0FEA3E0FFD39440EE9400507290E9
:1002300001F7EEF0A3EFF0900243E4F0900243E008
:10024000FFC39440505874B22FF9E43400FA7B0194
:10025000EAC0E0900205A3E0FAA3E0F5828A83D029
:10026000E0FA1209A7900217E0F8A3E0F9A3E0FA78
:10027000A3E0FB90000AE0FEA3E0FFE4FCFDEB2F0F
:10028000FFEA3EFEED39FDEC38FC900217120966DC
:1002900090000AA3E0FF900243E02FF0809E02034B
:1002A0004890000AE0FEA3E0FBCAEECAE4F9F89029
:1002B0000217E0FCA3E0FDA3E0FEA3E0FF12086D3F
:1002C000CCE8CCCDE9CDCEEACECFEBCFE4FBFAF94A
:1002D000F8C31208FF70210B7A0079F2EAC0E090AF
:1002E0000205A3E0FAA3E0F5828A83D0E0FA1209BE
:1002F000A79001F5E4F0A3F09001F5E0FEA3E0245F
:10030000F2F974003EFA7B0178B27C007D017E0038
:100310007F4012072D53D4FC900217E0FCA3E0FDB0
:10032000A3E0FEA3E02440FFE43EFEE43DFDE43C08
:10033000FC9002171209669001F6E02440F090014B
:10034000F5E03400F00205F653D4FC0205F67BFF1D
:100350007A1B7988120A8EE5D254FC4402F5D20247
:1003600005F6900244E5DBF0E064086003020559FD
:1003700090002EE0900001F090002FE070099000B6
:1003800001E0D3947F4006900001747FF090024416
:10039000E4F0900029E0900000F0900028E0546024
:1003A0006003020559900000E0700302053A1470E2
:1003B000030204E724FC70030204BC24FD70030262
:1003C00004C71470030204DD14700302052424041E
:1003D000600302055790002BE024FE601D1460307E
:1003E0002402707B90000274FFF0A3741BF0A374CE
:1003F0008EF09002447412F0806B90000274FFF053
:10040000A3741BF0A374A0F09002447427F08055ED
:1004100090002AE0603324FE6019047042900002CC
:1004200074FFF0A3741BF0A374CBF0900244742803
:10043000F0803290000274FFF0A3741BF0A374F3F9
:10044000F09002447416F0801C90000274FFF0A338
:10045000741BF0A374C7F09002447404F0800690FB
:10046000024474FFF0900244E0FF900001E0D39F4B
:100470004002EFF0900001E0FFC3940840047F08C1
:100480008000900244EFF07E0078287C007D01908F
:100490000002E0FBA3E0FAA3E0F912072D900001AF
:1004A000E0FF900244E0FEC3EF9E900001F0EEFFFB
:1004B000900003E48FF01207CD02055F90002AE060
:1004C000900001F002055F900005E0900028F09098
:1004D0000001E0C39401500302055F805590002A9B
:1004E000E0900005F08078900028E0541F640270CE
:1004F0003190002CE01460231460112481601214E8
:10050000701EE5D454BC4402F5D4805353D4738098
:100510004EE5D254BC4402F5D2804453D273803F9E
:1005200080378035900028E4F0900001E0C394010A
:10053000402D9002447401F08025900028E4F0A33F
:10054000F0900001E0FFC394029002444005740261
:10055000F0800CEFF08008800090024474FFF0906F
:100560000244E0FFB4FF0C90000074FFF075DCCF94
:100570000205F6EFD3940850048FDD800375DD008B
:1005800075DCC08071900000E024FB605314705E45
:10059000900001E0FFC3940840047F0880009002AF
:1005A00044EFF07E0078287C007D01900002E0FBA3
:1005B000A3E0FAA3E0F912072D900001E0FF9002FA
:1005C00044E0FEC3EF9E900001F0EEFF900003E4D4
:1005D0008FF01207CD900244E0F5DD63DC40801619
:1005E000E5E35480FF900001E04FF5E3800575DD01
:1005F00000800075DC02C2D9804030D81475DC025E
:1006000075D21075D41275E300C2DAC2D9C2D8808F
:100610002930DA23C2DAE5DA30E21FE5A220E7FB6F
:1006200075A15575A1AA75A98143870275A1557554
:10063000A1AA75A900800375D8FFD0E0FFD0E0FE25
:10064000D0E0FDD0E0FCD0E0FBD0E0FAD0E0F9D083
:10065000E0F8D0D0D082D083D0F0D0E032E709F6F5
:1006600008DFFA8046E709F208DFFA803E88828CCC
:1006700083E709F0A3DFFA8032E309F608DFFA80A6
:1006800078E309F208DFFA807088828C83E309F04E
:10069000A3DFFA806489828A83E0A3F608DFFA8008
:1006A0005889828A83E0A3F208DFFA804C80D280E6
:1006B000FA80C680D4806980F28033801080A68062
:1006C000EA809A80A880DA80E280CA803389828AB0
:1006D00083ECFAE493A3C8C582C8CCC583CCF0A34D
:1006E000C8C582C8CCC583CCDFE9DEE7800D89822E
:1006F0008A83E493A3F608DFF9ECFAA9F0EDFB2274
:1007000089828A83ECFAE0A3C8C582C8CCC583CCB1
:10071000F0A3C8C582C8CCC583CCDFEADEE880DBA5
:1007200089828A83E493A3F208DFF980CC88F0EF12
:1007300060010E4E60C388F0ED2402B4040050B98D
:10074000F582EB2402B4040050AF232345822390AA
:1007500006AD73BB010689828A83E0225002E7223C
:10076000BBFE02E32289828A83E49322BB010CE56B
:100770008229F582E5833AF583E0225006E9258255
:10078000F8E622BBFE06E92582F8E222E58229F599
:1007900082E5833AF583E49322BB010689828A834A
:1007A000F0225002F722BBFE01F322F8BB010DE557
:1007B0008229F582E5833AF583E8F0225006E9259F
:1007C00082C8F622BBFE05E92582C8F222C5F0F8F0
:1007D000A3E028F0C5F0F8E582158270021583E0E9
:1007E00038F022A3F8E0C5F025F0F0E5821582701C
:1007F000021583E0C838F0E822BB0110E58229F534
:1008000082E5833AF583E0F5F0A3E0225009E9257B
:1008100082F886F008E622BBFE0AE92582F8E2F5B6
:10082000F008E222E5832AF583E993F5F0A3E99342
:100830002275F008758200EF2FFFEE33FECD33CD29
:10084000CC33CCC58233C5829BED9AEC99E5829876
:10085000400CF582EE9BFEED9AFDEC99FC0FD5F075
:10086000D6E4CEFBE4CDFAE4CCF9A88222B800C1EC
:10087000B90059BA002DEC8BF084CFCECDFCE5F059
:10088000CBF97818EF2FFFEE33FEED33FDEC33FCA0
:10089000EB33FB10D703994004EB99FB0FD8E5E449
:1008A000F9FA227818EF2FFFEE33FEED33FDEC332B
:1008B000FCC933C910D7059BE99A4007EC9BFCE9BA
:1008C0009AF90FD8E0E4C9FAE4CCFB2275F010EFF6
:1008D0002FFFEE33FEED33FDCC33CCC833C810D739
:1008E000079BEC9AE899400AED9BFDEC9AFCE8998D
:1008F000F80FD5F0DAE4CDFBE4CCFAE4C8F922EB4A
:100900009FF5F0EA9E42F0E99D42F0E89C45F02216
:10091000E8600FECC313FCED13FDEE13FEEF13FFC5
:10092000D8F122E8600FEFC333FFEE33FEED33FD65
:10093000EC33FCD8F122BB010DE58229F582E58379
:100940003AF5830209B55007E92582F80209A9BBE7
:10095000FE07E92582F80209C1E58229F582E583CF
:100960003AF5830209CDECF0A3EDF0A3EEF0A3EF8E
:10097000F022A8828583F0D083D0821209891209DF
:1009800089120989120989E473E493A3C583C5F028
:10099000C583C8C582C8F0A3C583C5F0C583C8C5D3
:1009A00082C8228A838982E473E6FC08E6FD08E6B1
:1009B000FE08E6FF22E0FCA3E0FDA3E0FEA3E0FFCB
:1009C00022E2FC08E2FD08E2FE08E2FF22E493FCDA
:1009D000740193FD740293FE740393FF22F8E0FB0D
:1009E000A3A3E0F925F0F0E582158270021583E0FB
:1009F000FA38F022EBF0A3EAF0A3E9F022D083D09A
:100A000082F8E4937012740193700DA3A393F874A9
:100A10000193F5828883E4737402936860EFA3A363
:100A2000A380DFE5152448F582E43402F583E00570
:100A30001522900245301003900248E475F001122F
:100A400009DD0207532009E97F2ED2098018EF54EF
:100A50000F2490D43440D4FF300D0BEF24BFB41AD0
:100A60000050032461FFE516600215160519E5190B
:100A70007002051830100E900245E475F00112095D
:100A8000DDEF0207990225697403D2108003E4C2E6
:100A900010F5159002451209F4E4F516F518F5194C
:100AA000E51660077F20120A6680F57517FFC20AF7
:100AB000C209C20BC20CC20EC20FC211120A32FF0F
:100AC000700D3010057F00120A77AF19AE1822B4EE
:100AD000255FC2D5C20D120A32FF24D0B40A0050DD
:100AE0001A75F00A781630D50508B6FF0106C6A4B7
:100AF00026F620D5047002D20C80D924CFB41A0077
:100B0000EF5004C2E5D20D020C78D20A80C6D20999
:100B100080C0D20B80BCD2D580BAD20E80B47F20E8
:100B2000120A66200B077401B5160040F1120A2361
:100B3000FF120A66020AA0D211D20F8095120A2370
:100B4000FB120A23FA120A23F94A4B700679497AF2
:100B50000D7BFF200B2EE516602A7E008E827583AA
:100B60000012076C60060EEE651770F0C2D5EBC080
:100B7000E0EAC0E0E9C0E0EE120CBFD0E0F9D0E05E
:100B8000FAD0E0FB120753FF60AAEBC0E0EAC0E036
:100B9000E9C0E0120A66D0E02401F9D0E03400FA9E
:100BA000D0E0FBE5170460DCD517D980877BFF7A9E
:100BB0000C79BBD20B809C791080027908C20FC2DD
:100BC000118008D2D5790A8004790AC2D5E51704C4
:100BD0007002F517E4FAFDFEFF120A23FC7B0820E1
:100BE0000A13120A23FD7B1030090A120A23FE128F
:100BF0000A23FF7B20EC3382D592D55013C3E43017
:100C000009069FFFE49EFEE4200A039DFDE49CFC90
:100C1000E4CBF8C20AEC700CCFCECDCCE824F8F8C7
:100C200070F38017C3EF33FFEE33FEED33FDEC338B
:100C3000FCEB33FB994002FB0FD8E9EB300A05F8D7
:100C4000D0E0C448B20AC0E00AEC4D4E4F78207B99
:100C50000070C2EAB5170040BCC0E0120CC1D0F071
:100C6000D0E0200A04C4C0E0C4B20AC0F0120A4FA7
:100C7000D0F0D5F0EB020AA01209FD0B3D530BB7E3
:100C8000580B0E4C0B0A420BBB4F0BC3440BC34912
:100C90000B23430BC9550BAD460BAD450BAD470DB3
:100CA00069500B122D0B162E0B392B0B1A230B37F9
:100CB000200D522A0AD24800000B313F3F3F0079F5
:100CC0000AA2D5200C14300E09B910020404B90888
:100CD0000104A2D5200F02500104200B68920BB52D
:100CE00016005034C0E07F20300C197F30A20B7208
:100CF0000F720E500F120D18C20BC20FC20EC2118E
:100D00007F30800F300E03E9C0E0120A66300E0318
:100D1000D0E0F9D0E0B516CC300E177F30B9100C0A
:100D2000120A667F58300D077F788003B9080312D6
:100D30000A66300B057F2D020A667F202011F87F9E
:100D40002B200FF322920B80CF286E756C6C29003C
:100D5000D20A120A23300AF8C20A781630D50108DE
:100D6000F6020AD22D50434958120A232403B4052F
:100D7000004001E4900D6493120A57743A120A5726
:100D8000D20C751604020BB7900245EBF0A3EAF003
:100D9000A3E9F090024BEBF0A3EAF0A3E9F0900096
:100DA0000112076C14B40A004003020FF9900DBB46
:100DB00075F003A4C58325F0C58373020FA2020F4B
:100DC00080020FF9020FF9020F63020FF9020DD929
:100DD000020E37020E50020FDE9000277401F0D28F
:100DE0009178067C00FD900245E0FBA3E0FAA3E0C9
:100DF000F97E007F2012072D900008E01460151482
:100E0000601724046018146017146003020F501256
:100E10001C09800A1220B38005121D018002800087
:100E2000900016E0FF9001F9A3E0FAA3E0F5828AB2
:100E3000831209A7020F50900214A3E0FAA3E0F571
:100E4000828A83E4FF1209A7E4900027F0C291226E
:100E50009000277401F0D29178067C00FD90024545
:100E6000E0FBA3E0FAA3E0F97E007F2012072D1239
:100E70001C09900016E0FF9001F9A3E0FAA3E0F549
:100E8000828A831209A7900248E0FBA3E0FAA3E05C
:100E9000F9EAC0E0900202A3E0FAA3E0F5828A83B7
:100EA000D0E0FA1209A7EF6003020F3F900214A3EB
:100EB000E0FAA3E0F5828A83E4FF1209A71220B3C7
:100EC000900016E0FF9001F9A3E0FAA3E0F5828A12
:100ED000831209A7900248E0FBA3E0FAA3E0F9EA35
:100EE000C0E0900202A3E0FAA3E0F5828A83D0E09A
:100EF000FA1209A7EF7048900214A3E0FAA3E0F5F4
:100F0000828A83E4FF1209A7121D01900016E0FFF8
:100F10009001F9A3E0FAA3E0F5828A831209A79071
:100F20000248E0FBA3E0FAA3E0F9EAC0E090020285
:100F3000A3E0FAA3E0F5828A83D0E0FA1209A79031
:100F40000214A3E0FAA3E0F5828A83E4FF1209A762
:100F5000900248E0FBA3E0FAA3E0243CF9E43AFA6B
:100F600002253B9000077405F090024BE0FBA3E0E4
:100F7000FAA3E0F9900008120936900217020966F8
:100F800090024BE0FBA3E0FAA3E0F990001A1207ED
:100F9000F9FFAEF09001FFA3E0FAA3E0F5828A83A7
:100FA0008039900248E0FBA3E0FAA3E0F9EBC0E04F
:100FB000EAC0E0E9C0E0A3E0FBA3E0FAA3E0F99017
:100FC000001C12076CFD9001FCA3E0FAA3E0F5827F
:100FD0008A83D0E0F9D0E0FAD0E0FB0209A79002C2
:100FE00011A3E0FAA3E0F91209A3900248E0FBA3E1
:100FF000E0FAA3E0F9EF1207992290024EEBF0A37A
:10100000EAF0A3E9F0900373E020E2030210EFE4BA
:10101000900252F0900252E0FFD39001F8E09F90CE
:1010200001F7E0940050030211D5D294D2B2D296C7
:101030007F027E0012260AC2967F027E0012260AD6
:10104000D2B2D2967F027E0012260AC2967F027E1C
:101050000012260AC2B2D2967F027E0012260AC26F
:10106000967F027E0012260A900252121DE4E4903E
:101070000253F0A3F0900251F0D2967F027E00124C
:10108000260A900254E025E0F0900253E033F0305D
:10109000B30CA3E004F07006900253E004F0C29693
:1010A000900251E004F0E0C3941040CDC29490024D
:1010B00053E0FEA3E0FD90024EE0FBA3E0FAA3E0C4
:1010C000F9900252E0F582758300ED1207ABEEFF56
:1010D000900252E0F582758300A3EF1207AB7F0206
:1010E0007E0012260A900252E02402F0021014E45C
:1010F000900252F0900252E0FFD39001F8E09F90EE
:1011000001F7E0940050030211D5D294D2B2D296E6
:101110007F027E0012260AC2967F027E0012260AF5
:10112000D2B2D2967F027E0012260AC2967F027E3B
:101130000012260AC2B2D2967F027E0012260AC28E
:10114000967F027E0012260A900217A3A3E0FEA358
:10115000E0FF900252E0FD7C00EF2DFFEC3EFE90A0
:101160000372E0FD121E0DE4900253F0A3F0900212
:1011700051F0D2967F027E0012260A900254E0259A
:10118000E0F0900253E033F030B30CA3E004F070D1
:1011900006900253E004F0C296900251E004F0E0A1
:1011A000C3940840CDC294900253A3E0FF90024E36
:1011B000E0FBA3E0FAA3E0F9900252E0F582758328
:1011C00000EF1207AB7F027E0012260A900252E067
:1011D00004F00210F47F012290024EEBF0A3EAF03B
:1011E000A3E9F07F98122223900373E020E2030228
:1011F00012C9E4900253F0900253E0FFD390000B29
:10120000E09F90000AE0940050030213A390025361
:10121000E0FD2401FFE433FE90024EE0FBA3E0FA80
:10122000A3E0F98F828E8312076CFE8D8275830096
:1012300012076C7C002400FFEC3E900254F0A3EFF8
:10124000F0D2949002527405F0E4900251F09002B2
:1012500052E030E204D2B28002C2B2D2967F047E63
:101260000012260AC296900252E025E0F090025148
:10127000E004F0E0C3940340D5900253121DE4E46F
:10128000900251F0900254E0A330E704D2B2800201
:10129000C2B2D2967F047E0012260AC296900255F0
:1012A000E025E0F0900254E033F0900251E004F0C9
:1012B000E0C3941040CEC2947F007E401220539031
:1012C0000253E02402F00211F7E4900253F090027E
:1012D00053E0FFD390000BE09F90000AE094005091
:1012E000030213A3D2949002527405F090024EE0D0
:1012F000FBA3E0FAA3E0F9900253E0F582758300C6
:1013000012076CFF900254E4F0A3EFF0E490025156
:10131000F0900252E030E204D2B28002C2B2D29621
:101320007F047E0012260AC296900252E025E0F069
:10133000900251E004F0E0C3940340D5900217A35B
:10134000A3E0FEA3E0FF900253E0FD7C00EF2DFF41
:10135000EC3EFE900372E0FD121E0DE4900251F08F
:10136000900255E030E704D2B28002C2B2D2967F3A
:10137000047E0012260AC296900255E025E0F09005
:101380000254E033F0900251E004F0E0C3940840CE
:10139000CFC29474FFFFFE122053900253E004F07A
:1013A0000212CE7F801222237F012290024EEBF0A8
:1013B000A3EAF0A3E9F0E490025FF0A3F0121F8C1F
:1013C000D294900009E06010C2947450121F90D221
:1013D000947F057E0012260A9002577401F0E4A360
:1013E000F0C2947B0190026C04F0A37402F0A37429
:1013F00051F0A37402F0121FA7D294121F8CD29442
:101400007F017E0012260AC29490025774ADF090BC
:101410000217E0FCA3E0FDA3E0FEA3E0FF781012BA
:101420000910900258EFF0900217E0FCA3E0FDA332
:10143000E0FEA3E0FF7808120910900259EFF09047
:101440000217E0FCA3E0FDA3E0FEA3E0FF90025A38
:10145000EFF090024EE0FBA3E0FAA3E0F91207538D
:1014600090025BF090000112076C90025CF0900219
:101470006C7401F0A37402F0A37451F0A37406F02D
:101480007B01121FA7D29412000EEF6020C39002BE
:1014900060E0942090025FE09403500EA3E004F01B
:1014A000700690025FE004F080DD7F002290025D14
:1014B000E4F0A37402F090000AE0FEA3E0FF9002C3
:1014C0005DE0FCA3E0FDC39FEC9E507AC2949002C5
:1014D0005774ADF090024EE0FBA3E0FAA3E0F98D63
:1014E000828C8312076C900258F08D828C83A31239
:1014F000076C900259F090026C7401F0A37402F032
:10150000A37451F0A37403F07B01121FA7D29412AD
:10151000000EEF6020C3900260E0942090025FE034
:101520009403500EA3E004F0700690025FE004F014
:1015300080DD7F002290025EE02402F090025DE0F8
:101540003400F00214B6C2949002577404121F9330
:10155000D2947F012290024EEEF0A3EFF0C294905D
:1015600002557405F090026C7401F0A37402F0A3AC
:101570007450F0A37402F07B017A027955121FAB0C
:10158000D294900251E090025AF0543C700302163B
:1015900015C2949002557406F090026C7401F0A389
:1015A0007402F0A37450F0A37401F0FB7A02795531
:1015B000121FABD294900009E0602BC294900255A8
:1015C0007450F090026C7401F0A37402F0A3745094
:1015D000F0A37401F0FB7A027955121FABD2947F0D
:1015E000057E0012260A9002557401F090025AE01E
:1015F00054C3900256F0C29490026C7401F0A3742C
:1016000002F0A37450F0A37402F07B017A027955C2
:10161000121FABD294C2949002557406F090026CE3
:101620007401F0A37402F0A37450F0A37401F0FBF2
:101630007A027955121FABD2947F017E0012260ADE
:10164000C29490024EE090025530E71874C7F090B3
:10165000026C7401F0A37402F0A37450F0A374013F
:10166000F0FB802474D8F090024EA3E0900256F074
:10167000E4A3F0A3F07B0190026C04F0A37402F0E9
:10168000A37450F0A37404F07A027955121FAB7F53
:10169000017E0012260AD2942290024EEBF0A3EAB9
:1016A000F0A3E9F0E490025BF0A3F0C2949002553D
:1016B0007406F090026C7401F0A37402F0A37451EC
:1016C000F0A37401F0FB7A027955121FABD2947F1C
:1016D000017E0012260AC2949002557402F0900214
:1016E00017E0FCA3E0FDA3E0FEA3E0FF78101209E1
:1016F00010900256EFF0900217E0FCA3E0FDA3E08B
:10170000FEA3E0FF7808120910900257EFF0900254
:1017100017E0FCA3E0FDA3E0FEA3E0FF900258EF7A
:10172000F090026C7401F0A37402F0A37451F0A362
:101730007404F07B017A027955121FABE4900259D0
:10174000F0A3F090000AE0FEA3E0FF900259E0FC55
:10175000A3E0FDC39FEC9E502690024EE0FBA3E069
:10176000FAA3E0F98D828C8312076CFF1227609038
:10177000025AE004F07006900259E004F080C4D2EE
:10178000947F017E0012260A12000EEF6020C390A3
:10179000025CE094E890025BE09403500EA3E00446
:1017A000F0700690025BE004F080DD7F00227F0194
:1017B0002290024EEBF0A3EAF0A3E9F0C29490026B
:1017C00056740BF0900217E0FCA3E0FDA3E0FEA32B
:1017D000E0FF7810120910900257EFF0900217E026
:1017E000FCA3E0FDA3E0FEA3E0FF7808120910903F
:1017F0000258EFF0900217E0FCA3E0FDA3E0FEA387
:10180000E0FF900259EFF0A374FFF090026C7401B6
:10181000F0A37402F0A37451F0A37405F07B017A75
:10182000027956121FABE490025BF0A3F090000A1D
:10183000E0FEA3E0FFC390025CE09F90025BE09EAD
:10184000502D12271E90024EE0FBA3E0FAA3E0F910
:1018500090025BE0FCA3E0F5828C83EF1207AB9073
:10186000025CE004F070C690025BE004F080BED23F
:10187000947F0122900217E0FCA3E0FDA3E0FEA309
:10188000E0FF900354120966900009E0900358F0BD
:101890007FA0900353EFF0120046900358E06401DC
:1018A0007015900353E0FF122315EF7002FF221210
:1018B0002302EF7067FF22900358E06402703690B5
:1018C0000354E0FCA3E0FDA3E0FEA3E0FF781012C8
:1018D00009107801120923A905AA06AB0790035342
:1018E000E0FFEB4FFF122315EF7002FF22122302DD
:1018F000EF7029FF22900354E0FCA3E0FDA3E0FE7B
:10190000A3E0FF7807120910EF54FEFB900353E0A9
:10191000FFEB4FFF122315EF7002FF22900354E0FC
:10192000FCA3E0FDA3E0FEA3E0FF122315EF70028D
:10193000FF227F012290024EEBF0A3EAF0A3E9F030
:10194000E4900255F0A3F012079912000EEF602008
:10195000C3900256E09420900255E09403500EA3E9
:10196000E004F070E5900255E004F080DD7F002295
:101970007B017A0279517D03121E50E4FF74512FCE
:10198000F582E43402F583E0FEEF2401FDE433FC4C
:1019900090024EE0FBA3E0FAA3E0F98D828C83EE87
:1019A0001207AB0FEFB403D5900251E0FE700AA30B
:1019B000E07006A3E07002FF22EEB4FF0F90025227
:1019C000E0B4FF08A3E0B4FF037F002290024EE0E2
:1019D000FBA3E0FAA3E0F97401120799FF22C29F6A
:1019E000D29EC29DC2CDC2CC43878090036D1209A6
:1019F0007200000082E47B0AFAF9F890036DE0FCC3
:101A0000A3E0FDA3E0FEA3E0FF12086D900371EBDD
:101A1000F090036DE0FCA3E0FDA3E0FEA3E0FFE493
:101A20007B0AFAF9F812086D90036D1209669003AB
:101A300071E0C39405401F90036DE0FCA3E0FDA39B
:101A4000E0FEA3E02401FFE43EFEE43DFDE43CFCB7
:101A500090036D120966E589540F4420F58943C946
:101A6000A090036DA3A3A3E0F404F58DD28ED299C8
:101A7000D29C22787FE4F6D8FD758122021ABA0240
:101A80001F26E493A3F8E493A34003F68001F20831
:101A9000DFF48029E493A3F85407240CC8C333C4AB
:101AA000540F4420C8834004F456800146F6DFE416
:101AB000800B01020408102040809026CDE47E01B6
:101AC0009360BCA3FF543F30E509541FFEE493A389
:101AD00060010ECF54C025E060A840B8E493A3FA9B
:101AE000E493A3F8E493A3C8C582C8CAC583CAF027
:101AF000A3C8C582C8CAC583CADFE9DEE780BE9035
:101B0000024EEBF0A3EAF0A3E9F0900252740CF05D
:101B1000A3E4F0900251740CF0E4120799D2967F7E
:101B200002FE12260AD2947F027E0012260A90023A
:101B300051E0D39400404CE014F0C2967F027E0046
:101B400012260A900251E0FFA3E0FEA3E0A80708D6
:101B50008005CEC313CE13D8F930E004D2B2800290
:101B6000C2B2D2967F017E0012260A20B3C0C29470
:101B700090024EE0FBA3E0FAA3E0F9740312079988
:101B80007F0122C2947F002273656E6432001201CD
:101B90001001FF805508C81F0B3000010102000131
:101BA0000902270001010080320904000003FF0040
:101BB0000000070582024000000705020240000005
:101BC0000705010240000004030904280377007799
:101BD0000077002E007A0068006900660065006EDC
:101BE00000670073006F00660074002E0063006FD2
:101BF000006D001603570069006E00550053004247
:101C00000043006F006D006D009001F974FFF0A3B8
:101C10007423F0A37486F0A374FFF0A3741EF0A3E2
:101C20007450F0A374FFF0A37415F0A37455F090F2
:101C30000009E0900208600D74FFF0A37413F0A394
:101C400074ABF0800B74FFF0A37416F0A37499F0DA
:101C500090020274FFF0A37419F0A37435F0A3741A
:101C6000FFF0A37417F0A374B1F090021174FFF0A9
:101C7000A37400F0A3740EF0A374FFF0A37424F017
:101C8000A37439F02290024EEBF0A3EAF0A3E9F03E
:101C9000E4FFFEFDFC900217E0F8A3E0F9A3E0FAF0
:101CA000A3E0FBC31208FF700B1218741200467FEA
:101CB000A1122315E4900251F0A3F09001F7E0FE89
:101CC000A3E0FFC3900252E09F900251E09E502E8D
:101CD0001222C090024EE0FBA3E0FAA3E0F9A3E0D9
:101CE000FCA3E0F5828C83EF1207AB12266B900207
:101CF00052E004F070C5900251E004F080BD7F0115
:101D000022900009E0FFC4540F900373F0EF540FCA
:101D1000900372F09001F974FFF0A37421F0A374A2
:101D200012F0A374FFF0A37426F0A374EEF09002F7
:101D30000274FFF0A3741AF0A374FFF09001FF7413
:101D4000FFF0A37425F0A37490F090020574FFF0E7
:101D5000A3740FF0A374FAF0A374FFF0A37411F04E
:101D6000A374D8F090021474FFF0A37424F0A37449
:101D700039F02290024EEBF0A3EAF0A3E9F0A3744D
:101D8000A0F0E41207991200469002527408F090F5
:101D90000251E030E70ED2957F017E0012260A2024
:101DA000950B8024C2957F017E0012260A122624FC
:101DB000900251E0FF25E0F0A3E014F0E0D394009E
:101DC00050CD122472EF70061225EF7F00221225EB
:101DD000EF90024EE0FBA3E0FAA3E0F974021207D1
:101DE000997F0122E0FFE4FCFDFE900217E0F8A3DA
:101DF000E0F9A3E0FAA3E02FFFEE3AFEED39FDECA7
:101E000038FC7801120910900372E014FD9002561C
:101E1000EEF0A3EFF0A3EDF0900258E0D394004071
:101E20002EE014F0E0FF900256E0FEA3E0A80708C1
:101E30008005CEC313CE13D8F930E004D2B28002AD
:101E4000C2B2D2967F027E0012260AC29680C922B2
:101E5000900257EBF0A3EAF0A3E9F0A3EDF09002B3
:101E600060749FF0A374FFF0A3F0A3F0C2949002FB
:101E70006C7401F0A37402F0A3745BF0A37404F01B
:101E80007B017A027960121FABD294E4FF90025A70
:101E9000E0FEEFC39E5023745C2FF582E43402F51C
:101EA00083E0FE900257E0FBA3E0FAA3E0F98F8203
:101EB000758300EE1207AB0F80D32290036EEBF018
:101EC000A3EAF0A3E9F075A15575A1AA43B104E412
:101ED000F5A17585C0EF25E0FFE4FE900371E0FDFC
:101EE000EEC39D5032EE25E02FF58490036EE0FBAB
:101EF000A3E0FAA3E0F98E8275830012076CF58ED9
:101F0000E58630E60375869AE5866440D394004002
:101F100003AF06220E80C475A15575A1AA53B1FB6B
:101F2000E4F5A1AF06221226BB7F057E0012263DF6
:101F30007D017F01122171E4FF1224391219DE9014
:101F4000035D74A5F07B017A03795D9003717401E0
:101F5000F0E4FF121EBB90035CEFF07B017A037983
:101F60005D9003717401F0E4FF12234453C9EF7DC7
:101F700001E4FF1224AB7455FDFCE4FF1224DED211
:101F80008CD2A91223FFC291D2AF80FEC2947406F4
:101F9000900257F090026C7401F0A37402F0A374E5
:101FA00051F0A37401F0FB7A027957900269EBF0CB
:101FB000A3EAF0A3E9F090026FE0603414F090021D
:101FC00069E0FBA3E475F0011207E3A9F0FA120738
:101FD00053900270F0E0FF12274890026CE0FBA3E0
:101FE000E475F0011207E3A9F0FAEF12079980C631
:101FF0002290034EEBF0A3EAF0A3E9F0121874E488
:10200000900351F0A3F090000AE0FEA3E0FF9003DC
:1020100051E0FCA3E0FDC39FEC9E502690034EE0F0
:10202000FBA3E0FAA3E0F98D828C8312076CFF1208
:102030002315900352E004F070CC900351E004F0BB
:1020400080C41225EF90000CE0FEA3E0FF12260AE8
:102050007F0122900256EEF0A3EFF0D2967F047E2D
:102060000012260AC296D2947F047E0012260AE449
:10207000900258F0A3F0900256E0FEA3E0FFC39058
:102080000259E09F900258E09E5023D2967F047E32
:102090000012260AC29630B305C2947F0022900235
:1020A00059E004F070D0900258E004F080C8C29467
:1020B0007F01229001F974FFF0A37422F0A37475DC
:1020C000F0A374FFF0A37426F0A374DFF09002086D
:1020D00074FFF0A3741FF0A374F1F090020574FF75
:1020E000F0A3741CF0A37485F09001FF74FFF0A3BB
:1020F0007425F0A374B2F0A374FFF0A3741DF0A3D1
:102100007473F090021474FFF0A37423F0A374C3EB
:10211000F02290024EEFF07D037F031221CA7D046E
:102120007F011221CA7D027F011221CA7D047F0135
:102130001221717D057F011221717D067F0112211F
:10214000717D077F01122171C2957F047E001226E6
:102150000AC294C296C2B2D2B3900373E0FF30E0D9
:1021600004D2978002C297EF30E103D2B422C2B406
:1021700022EF14601C14602B14603C2403704A741A
:1021800001C8EDC8088002C333D8FCF452925293C0
:10219000227401C8EDC8088002C333D8FCFFF45292
:1021A0009280237401C8EDC8088002C333D8FCFFB5
:1021B0004292EFF45293227401C8EDC8088002C322
:1021C00033D8FCFF4292EF429322EF14601C14605C
:1021D0002B14603C2403704A7401C8EDC8088002C7
:1021E000C333D8FCF452965297227401C8EDC80844
:1021F0008002C333D8FCFFF4529680237401C8EDEB
:10220000C8088002C333D8FCFF4296EFF4529722ED
:102210007401C8EDC8088002C333D8FCFF4296EFB2
:10222000429722900256EFF0900373E090037230D1
:10223000E204E0148001E0900258F0D29490025839
:10224000E02403900257F0900257E0602590025678
:10225000E030E704D2B28002C2B2D2967F047E00A0
:1022600012260AC296900256E025E0F0A3E014F090
:1022700080D5C2942290024EEFF07D037F0112219F
:10228000CA7D047F011221CA7D027F011221CA7D0D
:10229000047F011221717D057F031221717D067F6C
:1022A000011221717D077F03122171C2B2C294C253
:1022B00096C2B3C2B4D295D2977F0A7E0002260A94
:1022C000E4900254F0D2959002537408F0900254B6
:1022D000E025E0F07F027E0012260AD2977F027E80
:1022E0000012260A309507900254E04401F0C2978C
:1022F000900253E014F0E0D3940050D1900254E0E7
:10230000FF22900354E0FCA3E0FDA3E0FEA3E0FF66
:102310007808120910900359EFF0A37408F09003A5
:1023200059E030E704D2958002C29512262490032A
:1023300059E0FF25E0F0A3E014F0E0D3940050DE74
:102340001224722290036EEBF0A3EAF0A3E9F07579
:1023500085C0EF25E0FFE4FE900371E0FDEEC39D34
:102360005021EE25E02FF58475868E90036EE0FBFC
:10237000A3E0FAA3E0F98E82758300E58E1207AB25
:102380000E80D5AF062290024EEFF07D037F011242
:1023900021CA7D047F011221CA7D027F011221CA58
:1023A0007D047F01122171C2B3D2B4D2B2D2947F24
:1023B000031225D390024EE02402F5FB7F0A7E0033
:1023C00002260A90024EEFF01225EF75FA027D0305
:1023D000E4FF1221CA7D04E4FF1221CA7D02E4FF5A
:1023E0001221CA7D04E4FF1221717D05E4FF122150
:1023F000717D06E4FF1221717D07E4FF022171C2A5
:10240000EAE4F5E275EA8075EB0C75ED0075EC28F1
:1024100075EF0075EE3275E50075E47275DC0275D6
:10242000D21075D412F5E375D18075E22943D1013C
:1024300075D8FF75E107D2EA2290036DEFF075FAC7
:10244000027D03E4FF1221CA7D04E4FF1221CA7D4C
:1024500002E4FF1221CA7D04E4FF1221717D05E42C
:10246000FF1221717D06E4FF1221717D07E4FF0256
:10247000217190035B74FFF0D2957F027E001226DB
:102480000AD2977F027E0012260A30951990035BCC
:10249000E014F07F027E0012260A90035BE070EAEF
:1024A0001225EF7F0022C2977F0122EF7009E58994
:1024B00054F04DF5898024EFB40111CFEDCFEFC476
:1024C00054F0FFE589540F4FF589800FEFB40208EF
:1024D000C2CDC2CCC2C880037FFF227F0022C3E4EA
:1024E0009DFDE49CFCEF7007EDF58AECF58C22EF86
:1024F000B40107EDF58BECF58D22EFB4020ECFEDB4
:10250000CFEDF5CC8FCAECFFF5CD8FCB22C0E0C06C
:10251000F0C083C082C0D075D0087BFF7A2679A82E
:10252000E5C65440FF900248E4F0A3EFF0120A8E93
:10253000D0D0D082D083D0F0D0E032D2AE903FFC69
:10254000E493120799903FFDE4939000011207ABCA
:10255000903FFEE4939000021207AB903FFFE4939C
:102560009000031207ABC2AE22EFB40A07740D123B
:102570002574740A309811A899B8130CC298309831
:10258000FDA899C298B811F63099FDC299F5992223
:1025900090024EEEF0A3EFF07F981222237F90126C
:1025A000222390024EE0FEA3E0FF1220537F800220
:1025B0002223E4FCFD9002171209667E017F009041
:1025C000024E74FFF0A3DFFCDEFA7B017A02794E43
:1025D000021FF1E4F5FCEF700575FA608007EFB4B7
:1025E000030375FA6853920F4393B05393BF22C20B
:1025F000957F027E0012260AD2977F027E00122665
:102600000AD2957F027E0002260AEF4E601505A1D0
:1026100005A105A105A105A105A105A1EF1F70EA6E
:102620001E80E7227F027E0012260AD2977F027E5A
:102630000012260AC2977F027E0002260AAD07AC6E
:1026400006ED4C600E7FE87E0312260AED1D70F148
:102650001C80EE2275A15575A1AAEF600543B1015A
:10266000800353B1FEE4F5A1F5FF22C2957F027EFF
:102670000012260AD2977F027E0012260AC29722F3
:10268000D2957F027E0012260AD2977F027E001228
:10269000260AC29722C0E0C0D075D008E4FDFCFF36
:1026A0001224DED0D0D0E0324750494F5F5354411E
:1026B0005455533A20253032780A0075A15575A13A
:1026C000AAE5B954F84405F5B9E4F5A1224100277B
:1026D00000410026004201F5000041000500009085
:1026E000024EEBF0A3EAF0A3E9F0A3EDF022900292
:1026F0004EEBF0A3EAF0A3E9F0A3EDF02275FC8025
:1027000075FA8153920F53930F22C2C7D2C5D2C418
:1027100075C2E62243FC5043FA0175F8FF22E4F546
:10272000F930FBFDAFF92253C77F43C73CD2EE22FD
:102730008F993099FDC2992230C0FDC2C0AFC1222D
:102740008FC130C1FDD2C1228FF930FBFDAFF9221C
:102750008FF930FCFDC2FC2230FCFDC2FCAFF92237
:102760008FF930FBFD2243C610228FFF22FFFFFFAF
:00000001FF
