:10000000021BEC8F993099FDC2992202241A8F4568
:10001000E545B40A057F0D120003AF451200037FCA
:020020000022BC
:10002300021F168F31E531C4540F902CF393FF1246
:0E0033000003E531540F902CF393FF020003FD
:100043000224BAE5D9543F70030204FA24FE602067
:1000530024E2700302048F24F0602A240F60030259
:100063000500E4F5D3E5D254FC4402F5D2D20B22C9
:1000730020DE03020500787DA6DBE5D454F34408B3
:10008300F5D4D20A22E5DC54036403700215DCAF15
:10009300DB7523008F24E5246408452360030204F1
:1000A30064900007E0FE900006E0FDEEF56CEDF5D0
:1000B3006DD3E56D947FE56C94004006756C007517
:1000C3006D7FE4F523F524900000E0F56EA3E0F5E1
:1000D3006FE56E546070030201AFE56E30E767E5CC
:1000E3006F24FB604324FB6025247A704A9000044C
:1000F300E0543FF52525E02473F582E4342CF583A1
:10010300E493FC740193900000F0ECA3802390002F
:1001130004E0640270067885E6FF8004787EE6FFDB
:10012300900000EFF002030D9000007401F0A3743F
:1001330060F07523008009E4900000F0A3F0F5233C
:1001430075240202046AE56F246F60531460372438
:1001530092B40C004003020464900163F8282873EE
:1001630002018702018902018902018902018902D0
:1001730001AC0201890201890201AC02018B020177
:10018300AC020189801B8019900004E06401900097
:10019300027006E0787EF68004E07885F68002D26D
:1001A3000FE4F523F52402046A020464E56FB40B3B
:1001B3000040030204629001C0F82828730204403F
:1001C30002031F02046202039E0204620202ED02A2
:1001D30001E10204620202F902031602046A9000BA
:1001E30003E024FE602614604024FD7003020283B2
:1001F300240560030202857578FF75792C757A0DE5
:10020300902C0DE493752300F524807C7578FF759D
:10021300792C757A1F902C22E493FE902C21E49381
:10022300FDEEF523EDF524805F900002E014601BE2
:10023300146029146037240370357578FF75792CA1
:10024300757A3F752300752404803D7578FF7579B1
:100253002C757A4375230075240E802C7578FF75F1
:10026300792C757A51752300752418801B800075CD
:100273007801757902757A9F7523007524128008B9
:1002830080007523007524FFD3E56D9524E56C95F7
:1002930023400685236C85246DE524F445237003F0
:1002A30002046AC3E56D9440E56C940040067E0049
:1002B3007F408004AE6CAF6D8E238F247400F8747E
:1002C30000FC7401FDAB78AA79A97A1205D1C3E5C4
:1002D3006D9524F56DE56C9523F56CE524257AF58C
:1002E3007AE5233579F57902046A900002E0756CAA
:1002F30000F56D02046A900000E575F0C3E56D94A6
:1003030001E56C9400500302046A7523007524010F
:1003130002046A900002E0F57502046AE56E541F58
:10032300FD7C007020900003E0FE900002E0FBEBF8
:1003330064014E700D902C269330E50302046A028B
:100343000464020464ED64024C704D900004E014F4
:10035300603D14602914601524826028146014140D
:100363007033E5D654BC4402F5D602046A53D673FF
:1003730002046AE5D454BC4402F5D402046A53D49B
:100383007302046AE5D254BC4402F5D202046A53F0
:10039300D27302046A020464020464E56E541FFD0E
:1003A3007C007020900003E0FE900002E0FBEB6411
:1003B300014E700D902C269330E50302046A02046B
:1003C30064020464ED64024C7071900003E0FE90DB
:1003D3000002E0FDED4E7061900005E0FE90000428
:1003E300E0FDEDFFEE7050EF14604214602B1460DB
:1003F300142482602E14601714703CE5D654BF4455
:1004030003F5D68062E5D6547F440CF5D68058E5D3
:10041300D454BF4403F5D4804EE5D4547F440CF543
:10042300D48044E5D254BF4403F5D2803AE5D25494
:100433007F440CF5D28030802880268024E490000D
:1004430000F0A3F0C3E56D9402E56C940040067ED2
:10045300007F028004AE6CAF6D8E238F24800880F2
:10046300007523007524FFE524F445237007756F99
:10047300FF75DCCF22D3E5249440E5239400500597
:100483008524DD8003E4F5DD75DCC022E56E546070
:100493006002805EE56F24FB604E147055C3E56D0A
:1004A3009440E56C940040067E007F408004AE6C6F
:1004B300AF6D8E238F247400F87400FC7401FDABC0
:1004C30078AA79A97A1205D1C3E56D9524F56DE56E
:1004D3006C9523F56CE524257AF57AE5233579F5D2
:1004E300798524DD63DC4022E5E35480456DF5E343
:1004F3008008E4F5DD8003E4F5DD75DC0222E7091D
:10050300F608DFFA8046E709F208DFFA803E8882C0
:100513008C83E709F0A3DFFA8032E309F608DFFAF8
:100523008078E309F208DFFA807088828C83E3091C
:10053300F0A3DFFA806489828A83E0A3F608DFFAF6
:10054300805889828A83E0A3F208DFFA804C80D244
:1005530080FA80C680D4806980F28033801080A6C0
:1005630080EA809A80A880DA80E280CA8033898218
:100573008A83ECFAE493A3C8C582C8CCC583CCF0C4
:10058300A3C8C582C8CCC583CCDFE9DEE7800D896B
:10059300828A83E493A3F608DFF9ECFAA9F0EDFB72
:1005A3002289828A83ECFAE0A3C8C582C8CCC583BA
:1005B300CCF0A3C8C582C8CCC583CCDFEADEE88013
:1005C300DB89828A83E493A3F208DFF980CC88F085
:1005D300EF60010E4E60C388F0ED2402B4040050B6
:1005E300B9F582EB2402B4040050AF2323458223E0
:1005F30090055173BB010689828A83E0225002E78A
:1006030022BBFE02E32289828A83E49322BB010C8C
:10061300E58229F582E5833AF583E0225006E92550
:1006230082F8E622BBFE06E92582F8E222E582296A
:10063300F582E5833AF583E49322BB010689828A36
:1006430083F0225002F722BBFE01F322F8BB010D17
:10065300E58229F582E5833AF583E8F0225006E93D
:100663002582C8F622BBFE05E92582C8F222BC001A
:100673000BBE0029EF8DF084FFADF022E4CCF875BA
:10068300F008EF2FFFEE33FEEC33FCEE9DEC9840C9
:1006930005FCEE9DFE0FD5F0E9E4CEFD22EDF8F565
:1006A300F0EE8420D21CFEADF075F008EF2FFFEDC5
:1006B30033FD4007985006D5F0F222C398FD0FD5BD
:1006C300F0EA22BB0110E58229F582E5833AF5833E
:1006D300E0F5F0A3E0225009E92582F886F008E668
:1006E30022BBFE0AE92582F8E2F5F008E222E5835F
:1006F3002AF583E993F5F0A3E99322BB010DC582A3
:1007030029C582C5833AC5830208425011C582298F
:10071300F808E5F026F618F5F0E58236F622BBFE7A
:1007230011C58229F808E225F0F5F0F218E23582C6
:10073300F222F8E58229F582E5832AF58374019391
:1007430025F0F5F0E4933822F8BB0111E58229F591
:1007530082E5833AF583E8F0E5F0A3F0225009E956
:100763002582C8F608A6F022BBFE09E92582C8F255
:10077300E5F008F222EB9FF5F0EA9E42F0E99D4294
:10078300F0E89C45F022E6FC08E6FD08E6FE08E6F4
:10079300FF22ECF608EDF608EEF608EFF622BB01B1
:1007A3000789828A830208D75005E9F80208B5BB96
:1007B300FE05E9F80208E989828A830208FBBB0186
:1007C3001A89828A83D0F0D0E0F8D0E0F9D0E0FA39
:1007D300D0E0FBE8C0E0C0F00208E05016E9F8D032
:1007E30083D082D0E0F9D0E0FAD0E0FBC082C083AE
:1007F3000208CEBBFE16E9F8D083D082D0E0F9D050
:10080300E0FAD0E0FBC082C0830208F2228A838927
:1008130082E473EF4E6012EF60010EEDBB010B89B2
:10082300828A83F0A3DFFCDEFA2289F05007F709FE
:10083300DFFCA9F022BBFEFCF309DFFCA9F022C513
:10084300F0F8A3E028F0C5F0F8E5821582700215F0
:1008530083E038F022E88FF0A4CC8BF0A42CFCE9E1
:100863008EF0A42CFC8AF0EDA42CFCEA8EF0A4CD2F
:10087300A8F08BF0A42DCC3825F0FDE98FF0A42C43
:10088300CD35F0FCEB8EF0A4FEA9F0EB8FF0A4CFF6
:10089300C5F02ECD39FEE43CFCEAA42DCE35F0FDA7
:1008A300E43CFC22C3E49FFFE49EFEE49DFDE49C44
:1008B300FC22E6FB08E6FA08E6F922FAE6FB08085A
:1008C300E6F925F0F618E6CA3AF622EBF608EAF658
:1008D30008E9F622E0FBA3E0FAA3E0F922EBF0A398
:1008E300EAF0A3E9F022E2FB08E2FA08E2F922EBDC
:1008F300F208EAF208E9F222E493FB740193FA7432
:100903000293F922D083D082F8E493701274019396
:10091300700DA3A393F8740193F5828883E4737431
:1009230002936860EFA3A3A380DFE5402434F8E6D5
:1009330005402278313007027834E475F00112085B
:10094300BE0205F72000EB7F2ED2008018EF540F74
:100953002490D43440D4FF30040BEF24BFB41A00E6
:1009630050032461FFE541600215410544E54470ED
:1009730002054330070D7831E475F0011208BEEF2C
:1009830002063D02000E7403D2078003E4C207F59A
:10099300408B318A328933E4F541F543F544E5412F
:1009A30060077F2012096880F57542FFC201C2000B
:1009B300C202C203C205C206C208120936FF700D85
:1009C3003007057F00120979AF44AE4322B4255F97
:1009D300C2D5C204120936FF24D0B40A00501A75D6
:1009E300F00A784130D50508B6FF0106C6A426F6FD
:1009F30020D5047002D20380D924CFB41A00EF505B
:100A030004C2E5D204020B79D20180C6D20080C0B1
:100A1300D20280BCD2D580BAD20580B47F2012091D
:100A2300682002077401B5410040F112092DFF123D
:100A330009680209A1D208D206809512092DFB127A
:100A4300092DFA12092DF94A4B7006794A7A0C7B63
:100A5300FF20022EE541602A7E008E8275830012FC
:100A6300061060060EEE654270F0C2D5EBC0E0EAF8
:100A7300C0E0E9C0E0EE120BC0D0E0F9D0E0FAD05C
:100A8300E0FB1205F7FF60AAEBC0E0EAC0E0E9C0B3
:100A9300E0120968D0E02401F9D0E03400FAD0E094
:100AA300FBE5420460DCD542D980877BFF7A0B7972
:100AB300BCD202809C791080027908C206C20880E9
:100AC30008D2D5790A8004790AC2D5E542047002B6
:100AD300F542E4FAFDFEFF12092DFC7B0820011309
:100AE30012092DFD7B1030000A12092DFE12092D6B
:100AF300FF7B20EC3382D592D55013C3E43000063C
:100B03009FFFE49EFEE42001039DFDE49CFCE4CBF7
:100B1300F8C201EC700CCFCECDCCE824F8F870F31A
:100B23008017C3EF33FFEE33FEED33FDEC33FCEB05
:100B330033FB994002FB0FD8E9EB300105F8D0E015
:100B4300C448B201C0E00AEC4D4E4F78207B0070E0
:100B5300C2EAB5420040BCC0E0120BC2D0F0D0E004
:100B6300200104C4C0E0C4B201C0F0120951D0F0A6
:100B7300D5F0EB0209A11209070A3E530AB8580A35
:100B83000F4C0A0B420ABC4F0AC4440AC4490A2444
:100B9300430ACA550AAE460AAE450AAE470C6A5026
:100BA3000A132D0A172E0A3A2B0A1B230A38200C84
:100BB300532A09D34800000A323F3F3F00790AA273
:100BC300D5200314300509B910020404B90801043F
:100BD300A2D52006025001042002689202B541000A
:100BE3005034C0E07F203003197F30A202720672B6
:100BF30005500F120C19C202C206C205C2087F308B
:100C0300800F300503E9C0E0120968300503D0E026
:100C1300F9D0E0B541CC3005177F30B9100C12097B
:100C2300687F583004077F788003B9080312096886
:100C33003002057F2D0209687F202008F87F2B20D2
:100C430006F322920280CF286E756C6C2900D201C4
:100C530012092D3001F8C201784130D50108F6029E
:100C630009D32D5043495812092D2403B4050040DC
:100C730001E4900C6593120959743A120959D2038D
:100C8300754104020AB8E5604561455F7003020ED1
:100C9300C97531FF7532297533E4AB5FAA60A96169
:100CA300121D1FEA494B6046E56345644562602DAA
:100CB300752B00752C00752D00752E0AAB62AA6387
:100CC300A964121265EF5401FFEF5401FF7883E624
:100CD300FC08E654FEFDEC18F6ED4F08F67BFF7AB0
:100CE3002979E97534007884E65401020DB275312F
:100CF300FF7532297533F3AB5FAA60A961121D1F1B
:100D0300EA494B6060E56345644562603A752B00D0
:100D1300752C00752D00752E0AAB62AA63A96412A7
:100D23001265EF5401FFEF5401C4F8540FC868FF74
:100D3300E4C454F048FE7883E6FC08E654EFFDEC87
:100D43004E18F6ED4F08F67983E7C4F854F0C80956
:100D5300E7C4540F487534005401F5357BFF7A29F5
:100D630079F7020F017531FF75322A753300AB5FD6
:100D7300AA60A961121D1FEA494B6038E563456407
:100D83004562601D75340075350075360075371082
:100D9300AB5FAA60A9611210C1900104E4F0A3EF54
:100DA300F07BFF7A2A7905900104E0F534A3E0F59E
:100DB30035020F017531FF75322A753315AB5FAA02
:100DC30060A961121D1FEA494B6053E56345644501
:100DD300626033752B00752C00752D00752E0AABE0
:100DE30062AA63A964121265EF5401FFEF5401254F
:100DF300E0FFE433FE7883E6FC08E654FDFDEC4EA9
:100E030018F6ED4F08F67983E7C31309E713753432
:100E1300005401F5357BFF7A2A791A020F017531E7
:100E2300FF75322A753324AB5FAA60A961121D1FB7
:100E3300EA494B6038E56345644562601D753400DB
:100E430075350075360075370AAB62AA63A964125B
:100E530010C1900102EEF0A3EFF07BFF7A2A79280C
:100E6300900102E0F534A3E0F535020F017531FF7F
:100E730075322A753330AB5FAA60A961121D1FEA70
:100E8300494B603AE56345644562602075340075FB
:100E9300350075360075370AAB62AA63A964121070
:100EA300C1900106EEF0A3EFF012285C7BFF7A2AD3
:100EB3007934900106E0F534A3E0F53580407BFFFB
:100EC3007A2A793C80387BFF7A2A793C12098F751C
:100ED30034007884E65401F5357983E7C4F854F097
:100EE300C809E7C4540F487536005401F53790011B
:100EF30002E0F538A3E0F5397BFF7A2A7969120914
:100F03008F22E4F528F529F52AF52BF52CF52DE5A7
:100F1300604561455F70030210B77531FF75322973
:100F2300753320AB5FAA60A961121D1FEA494B709C
:100F330003020FCBE5634564456270030210C0757D
:100F43003400753500753600753710AB62AA63A996
:100F5300641210C18E288F29E4F52CF52DE529257F
:100F63002DFFE528352CFED3EF943EEE9400504F31
:100F7300E52D5407700D7BFF7A2979258E348F3543
:100F830012098F7BFF7A29792EE529252DFFE52884
:100F9300352CFEEF25E0FFEE33FE74002FF582744F
:100FA300013EF583E0F534A3E0F53512098F052DF5
:100FB300E52D7002052CD3943EE52C9400409E7BD6
:100FC300FF7A2879F10210BD7531FF753229753327
:100FD30034AB5FAA60A961121D1FEA494B7003027B
:100FE300106BE5634564456270030210C0E5664516
:100FF30067456570030210C075340075350075369A
:1010030000753710AB62AA63A9641210C1E4F52816
:101013008F29F534F535F536753710AB65AA66A912
:10102300671210C1EFFDEEFCE52925E0FFE528334B
:10103300FE74002FF58274013EF583ECF0A3EDF00E
:101043007BFF7A29793A74002FF58274013EF58388
:10105300E0F534A3E0F53512098F7BFF7A2979484F
:1010630085283485293580527531FF7532297533CA
:1010730066AB5FAA60A961121D1FEA494B600B12A0
:10108300220F7BFF7A29796B80307531FF75322906
:10109300753385AB5FAA60A961121D1FEA494B60D6
:1010A3000B1220037BFF7A29798A800E7BFF7A2932
:1010B30079A280067BFF7A2979A212098F228B31CC
:1010C3008A328933E4F53DF53CF53BF53AF538F5DD
:1010D30039E535453645346012EBC0E0EAC0E0E956
:1010E300C0E0AB34AA35A9361207C1AB310533E5ED
:1010F30033AA327002053214F91205F7F53EC39490
:10110300094007E53ED3940D40E1E53E642060DBF2
:10111300E53EB42D054339038016E53EB42B054364
:101123003901800C74FF2533F53374FF3532F53202
:10113300E53760046410703FAB31AA32A93312055E
:10114300F764306009E537702E75370A80299000FF
:1011530001120610FF64786004EFB4581343390199
:1011630075371074022533F533E43532F5328007D1
:10117300E5377003753708AB310533E533AA3270B1
:1011830002053214F91205F7F53EC39461400AE5EE
:101193003ED3947A5003533EDF74D0253EF53EC3CD
:1011A300940A400CE53E9411406D74F9253EF53EDA
:1011B300E53EC395375060433901853D42853C4147
:1011C300853B40853A3FAF377E00E4FCFDAB3DAA4B
:1011D3003CA93BA83A120858C8ECC8C9EDC9CAEEE5
:1011E300CACBEFCBE4FCFDFEEB253EF53DEE3AF535
:1011F3003CED39F53BEC38F53AAF3DAE3CAD3BFC4D
:10120300AB42AA41A940A83FD31207785003021169
:101213007A43390402117AE53920E003E4802DE5AD
:101223003545364534601EAB31E53324FFF9E532ED
:1012330034FFFAEBC0E0EAC0E0E9C0E0AB34AA3522
:10124300A9361207C1E53930E20774FFFFFEFDFC42
:1012530022E539AF3DAE3CAD3BAC3A30E103020889
:10126300A7228B288A29892AE4F534F533F532F548
:1012730031F52FF530E52C452D452B6012EBC0E001
:10128300EAC0E0E9C0E0AB2BAA2CA92D1207C1AB41
:1012930028052AE52AAA297002052914F91205F757
:1012A300F535C394094007E535D3940D40E1E535A1
:1012B300642060DBE535B42D054330038016E53546
:1012C300B42B05433001800C74FF252AF52A74FFE3
:1012D3003529F529E52E60046410703FAB28AA294F
:1012E300A92A1205F764306009E52E702E752E0ABF
:1012F3008029900001120610FF64786004EFB4584F
:1013030013433001752E107402252AF52AE435297A
:10131300F5298007E52E7003752E08AB28052AE50D
:101323002AAA297002052914F91205F7F535C39481
:1013330061400AE535D3947A50035335DF74D025E1
:1013430035F535C3940A400CE5359411405374F9CF
:101353002535F535E535C3952E5046433001AF2E7F
:101363007E00E4FCFDAB34AA33A932A8311208583D
:10137300C8ECC8C9EDC9CAEECACBEFCBE4FCFDFE8D
:10138300EB2535F534EE3AF533ED39F532EC38F536
:1013930031AF34AE33AD32FC3350804330040213EB
:1013A3001EE53020E006E4FFFEFDFC22E52C452D82
:1013B300452B601EAB28E52A24FFF9E52934FFFA03
:1013C300EBC0E0EAC0E0E9C0E0AB2BAA2CA92D12E8
:1013D30007C1E53030E21230E107E4FFFEFD7C8017
:1013E3002274FFFFFEFD7C7F22E530AF34AE33ADC8
:1013F30032AC3130E1030208A722EF133094030229
:1014030014AD9295A2B3E433D297C43333335480EB
:10141300FEEFC3134EFFC297139295A2B3E433D2E8
:1014230097C43333335480FEEFC3134EFFC2971375
:101433009295A2B3E433D297C43333335480FEEF8F
:10144300C3134EFFC297139295A2B3E433D297C44A
:101453003333335480FEEFC3134EFFC29713929579
:10146300A2B3E433D297C43333335480FEEFC313B0
:101473004EFFC297139295A2B3E433D297C433338A
:10148300335480FEEFC3134EFFC297139295A2B35A
:10149300E433D297C43333335480FEEFC3134EFF88
:1014A300C297139295A2B30215529295A296E43372
:1014B300D297C43333335480FEEFC3134EFFC29726
:1014C300139295A296E433D297C43333335480FEF8
:1014D300EFC3134EFFC297139295A296E433D297AC
:1014E300C43333335480FEEFC3134EFFC2971392BA
:1014F30095A296E433D297C43333335480FEEFC3BB
:10150300134EFFC297139295A296E433D297C43336
:1015130033335480FEEFC3134EFFC297139295A249
:1015230096E433D297C43333335480FEEFC3134E60
:10153300FFC297139295A296E433D297C433333301
:101543005480FEEFC3134EFFC297139295A296E405
:1015530033D297C43333335480FDEFC3134DFFC2EB
:1015630097228B2A8A2B892CE4F532F533900007D6
:101573001206C6FFAEF09000051206C6C39FFFE534
:10158300F09EFEC3E5319FE5309E500AAC30AD318D
:10159300ECFEEDFF80008E308F31AB2AAA2BA92CF5
:1015A3009000031206C624FFFFE5F034FFFE90000F
:1015B300071206C6FDEE55F0FEEF5DFF9000031225
:1015C30006C6C39FFFE5F09EFEC3E5319FE5309E4F
:1015D300500AAC30AD31ECFEEDFF80008E328F331C
:1015E300AB2AAA2BA92C9000031206C624FFFDE503
:1015F300F034FFFC9000071206C6FBEC55F0FCED3F
:101603005BFDAB2A1207A1E92DF9EA3CFAEBC0E036
:10161300EAC0E0E9C0E0E52FF8E52EFCE52DFDD0BA
:10162300E0F9D0E0FAD0E0FB1205D1C3E531953300
:10163300FFE5309532FEAB2AAA2BA92C1207A1EBAA
:10164300C0E0EAC0E0E9C0E0E52F2533F9E52E3537
:1016530032FAE9F8EAFCE52DFDD0E0F9D0E0FAD062
:10166300E0FB1205D1AB2AAA2BA92C900007E53089
:101673008531F01206FE9000071206C6FFAEF09009
:1016830000051206C66F7003E5F06E7017AB2AAA49
:101693002BA92C900007F5F012074B900005E4F5F9
:1016A300F012074BAE30AF3122E4F52820120302CB
:1016B30017E6752CFF752D28752EE77B017A0279C5
:1016C30020121DA18B5C8A5D895EEA494B606F75B0
:1016D3002CFF752D28752EE77B007A007900121DEB
:1016E300A18B5F8A608961EA494B6052752CFF7553
:1016F3002D28752EE77B007A007900121DA18B62DD
:101703008A638964EA494B6035752CFF752D28750A
:101713002EE77B007A007900121DA18B658A66890A
:1017230067EA494B6018752CFF752D28752EE77BEA
:10173300007A007900121DA18B688A69896AE4F531
:1017430028E528C3956B502F75F009E528A424607C
:10175300F582E5F03402F583E0FBA3E0FAA3E08B26
:10176300318A32F533AB5CAA5DA95E121D1FEA49CB
:101773004B7004052880CAE528C3956B503675F075
:1017830009E528A42466F582E5F03402F583E0FB3D
:10179300A3E0FAA3E0F9EA494B601975F009E528DB
:1017A300A42466F582E5F03402F583A3E0FAA3E00E
:1017B300F9120810755C00755D00755E00755F00B9
:1017C300756000756100756200756300756400756E
:1017D3006500756600756700756800756900756A50
:1017E30000C21222E4F528F529F52AF52BF52CF58C
:1017F3002DF52EF52FF530E5604561455F70030249
:101803001917753400753500753600753710AB5FE1
:10181300AA60A9611210C18E288F29E52945287075
:101823000302190F8E2A8F2BE4F52DF52E7BFF7AF9
:101833002879E9E52EC4F8540FC868FFE52DC45490
:10184300F048FEE5292FF535E5283EF53412098FDA
:10185300E4F52FF530E52EC4F8540FC868FFE52DE5
:10186300C454F048FEE5302FFFE52F3EFEE52B2F55
:10187300F582E52A3EF583E493F52CFF1200267FDB
:10188300201200030530E5307002052FC39410E5E4
:101893002F940040C0E4F52FF530E52EC4F8540F23
:1018A300C868FFE52DC454F048FEE5302FFFE52F4F
:1018B3003EFEE52B2FF582E52A3EF583E493F52CD6
:1018C300FF7E00C3942074809480400CD3EF947EF9
:1018D30074809480500280027F2E1200030530E54D
:1018E300307002052FC39410E52F940040AC7BFFAA
:1018F3007A2879F112098F052EE52E7002052DC382
:101903009410E52D94005003021830227BFF7A28AF
:1019130079F380067BFF7A29790112098F22021A53
:1019230000000218FFFF02762B630486000000000C
:10193300C111C10EC11002710080027300C0027F89
:101943000000017E04018504017D00C10F028100B6
:1019530000017500037800000052029F1203460045
:101963004600460046004600460046004600017019
:1019730000014A00C10AC18B025A0000035C000047
:1019830000035F0000000362000000036500000025
:101993000368000000603F0260FF2B96FF2A3CFFB4
:1019A3000C89FF2B9BFF29A2FF0F05FF2BA2FF2A08
:1019B300E9FF1E21FF2BA8FF2BAFFF2554FF2BD2DE
:1019C300FF2BD7FF1E9CFF2BE3FF2BEBFF231CFFFB
:1019D3002C07FF2901FF17E7016B07C112017B00E9
:1019E300017C0060200200000000000000000000F5
:1019F30000000000000000000000000000000000E4
:101A03000000000000000060400220000000000011
:101A130000000000000000000000000000000000C3
:101A230000000000000000000000000000000000B3
:101A330000000000000000000000000000000000A3
:101A43000000000000000000000000008F27E4F504
:101A53007BAF271228B15038AF7B057B74002FF57D
:101A630082E43402F583E527F0AF7CC3EF9440743E
:101A73008094804003021B2DAF27122891AE7C0572
:101A83007C74202EF582E43402F583EFF0021B2DE3
:101A9300E52764087043AF7B057B74002FF582E470
:101AA3003402F5837408F0AF7B057B74002FF58255
:101AB300E43402F5837420F0AF7B057B74002FF5CB
:101AC30082E43402F5837408F0AF7CD3EF9400749E
:101AD3008094804055157C8051E527640D704BAF91
:101AE3007B057B74002FF582E43402F583740DF0DB
:101AF300AF7B057B74002FF582E43402F583740A0F
:101B0300F0AF7CC3EF9440748094805016AF7C0593
:101B13007C74202FF582E43402F583E4F0F57CD263
:101B2300128007E490025FF0F57CAF7BC3EF944033
:101B3300748094804003E4F57B22C3E5579555E513
:101B43005695544003021BEB7B007A00794B122617
:101B5300F6EF6003021BEBE5592557F582E558358F
:101B630056F583E0F528E55B455A704CE52854802B
:101B7300C36001D3920DE5285440C36001D3920C96
:101B8300300D0BE528543F755A00F55B804FAF28A5
:101B9300300C2012265AA2B3E43325E0FFA296E4C8
:101BA300334FF5287B007A00794BFD1223C8E4F507
:101BB3004A802A12265A8025AF28300C121213FDB0
:101BC3008F287B007A00794BAD281223C88003123B
:101BD3002373E4F54AE55B155B7002155A0557E577
:101BE3005770020556021B3D22787FE4F6D8FD901C
:101BF30000007F007E04E4F0A3DFFCDEFA75818938
:101C0300021C410222C5E493A3F8E493A34003F624
:101C13008001F208DFF48029E493A3F85407240C2D
:101C2300C8C333C4540F4420C8834004F45680010E
:101C330046F6DFE4800B010204081020408090196F
:101C430021E47E019360BCA3FF543F30E509541F98
:101C5300FEE493A360010ECF54C025E060A840B812
:101C6300E493A3FAE493A3F8E493A3C8C582C8CA90
:101C7300C583CAF0A3C8C582C8CAC583CADFE9DE63
:101C8300E780BE200B03021D1E7B007A00794B12F6
:101C9300280A8F287E00D3EF943E748094804008F6
:101CA30075283EE4F54A802BEF4E7027788612079D
:101CB30089C3EF9549FFEE9548FEED9547FDEC95F9
:101CC30046FCE47B0AFAF9F8D31207784005300999
:101CD3004AC20978861207898F498E488D478C46F8
:101CE300752D01752E01752FC27530008528317B46
:101CF300007A00794B121565C20BE5282402F529F9
:101D0300FF7E00C87440C87400FC7401FDFB7A01B7
:101D130079C01205D18529D353D2FC228B2E8A2F69
:101D23008930AB31AA32A9331205F76063AB2EAA0F
:101D33002FA9301205F7605F85313485323585333D
:101D4300368B378A388939AB34AA35A9361205F769
:101D5300FF6023AB37AA38A9391205F76F70170450
:101D63002536F536E43535F53574012539F539E48D
:101D73003538F53880D1AB34AA35A9361205F7705A
:101D830002800D74012530F530E4352FF52F809D49
:101D9300AB2EAA2FA930227B007A007900228B294F
:101DA3008A2A892BE94A4B7009851C29851D2A85B6
:101DB3001E2BE52B452A45297002802C852C328564
:101DC3002D33852E34AB29AA2AA92B122151EF25B5
:101DD3002BF52BEE352AF52AAB29FAA92B1205F799
:101DE300700AF51CF51DF51EFBFAF922852C3285C8
:101DF3002D33852E34AB29AA2AA92B1221B28B1C91
:101E03008A1D891EEA494B600EE412063D04251E15
:101E1300F51EE4351DF51DAB29AA2AA92B22E56081
:101E23004561455F60697531FF753229753366AB6E
:101E33005FAA60A961121D1FEA494B600C7BFF7A00
:101E43002A798112098F0227947531FF753229751A
:101E53003385AB5FAA60A961121D1FEA494B600C71
:101E63007BFF7A2A79A212098FD210227531FF756E
:101E7300322A7533C1AB5FAA60A961121D1FEA49FB
:101E83004B7BFF600C7A2A79C912098F02226A7B85
:101E9300FF7A2A79E912098F22E4F528F528C3E5A8
:101EA30028940674809480506975F009E528A42469
:101EB30066F582E5F03402F583E0FBA3E0FAA3E0E4
:101EC300F9EA494B60487BFF7A2879E712098F7555
:101ED300F009E528A42460F582E5F03402F583E0F7
:101EE300FBA3E0FAA3E0F912098F7BFF7A2B7918A1
:101EF30012098F75F009E528A42463F582E5F0340F
:101F030002F583E0FBA3E0FAA3E0F912098F0528A9
:101F1300808C22C0E0C0F0C083C082C0D0E8C0E0A3
:101F2300E9C0E0EAC0E0EBC0E0ECC0E0EDC0E0EE09
:101F3300C0E0EFC0E030982BAF99121A4F7526001E
:101F4300E526C3957B501A7884E630E014740025A7
:101F530026F582E43402F583E0FF120003052680B0
:101F6300DFC298309902C299D0E0FFD0E0FED0E002
:101F7300FDD0E0FCD0E0FBD0E0FAD0E0F9D0E0F80F
:101F8300D0D0D082D083D0F0D0E0328B2E8A2F896C
:101F9300308C318D32E4FDFC74FFF533F534E4F518
:101FA30035F536C3ED9532EC9531504FED25E0FF15
:101FB300EC33AB2EAA2FA9308F82F5831206C6AE5F
:101FC300F06234EE6233E4FAFB753500E534540114
:101FD300F536E533C313F533E53413F534E5364508
:101FE3003560066334016333A00BBB00010AEB6465
:101FF300084A70D50DBD00010C80A8AE33AF342262
:102003007B017A0179007D3E7C00121F8E8E188F32
:1020130019E4FDFCFFFE1227B7AD19AC187F027E51
:10202300001227B7E4F51AF51BE51B25E0FDE51AB9
:1020330033FCED2404FFE43CC0E0EFC0E074002D6A
:10204300F58274013CF583E0FCA3E0FDD0E0FFD012
:10205300E0FE1227B7051BE51B7002051AC3943E69
:10206300E51A940040C390017CE518F0A3E519F04C
:10207300AE18FF228B288A29892AE52F452E601264
:10208300E52F24FFFFE52E34FF552EFEE52F5F4E8F
:1020930060037F00227E007F097D00AB28AA29A967
:1020A3002A120816AB2BAA2CA92DEBC0E0EAC0E03C
:1020B300E9C0E0AB28AA29A92A1207C1AB28AA299B
:1020C300A92A900003E52E852FF012074B900005F7
:1020D300E4F5F012074B900007E4F5F012074B7F8D
:1020E30001228E308F318B328A33893475A1557535
:1020F300A1AA43B104E4F5A17585C0E53125E0F556
:1021030031E53033F530E4FFEFC39536E4953550D0
:1021130030EF25E02531F584AB32AA33A9348F8221
:10212300758300120610F58EE58630E60375869AF0
:10213300E5866440D39400748094804001220F802C
:10214300C775A15575A1AA53B1FBE4F5A1228B2F45
:102153008A308931E4F535F536E4FEFFAB32AA3334
:10216300A9348F828E83120610FD6013AB2FAA3021
:10217300A9311205F76D60070FBF00010E80DDABBB
:1021830032AA33A9348F828E831206107002801A0A
:102193000536E53670020535AB2F0531E5317002A2
:1021A3000530F9AA301205F770AFAE35AF36228B82
:1021B3002F8A308931853235853336853437AB35CF
:1021C300AA36A9371205F7FF6019AB2FAA30A93138
:1021D3001205F76F600D74012537F537E43536F5D1
:1021E3003680DBAB35AA36A9371205F76007AB2F6C
:1021F300AA30A93122AB2F0531E531AA307002058F
:102203003014F91205F770ADFBFAF922E4F51AF56B
:102213001BE51B25E0FFE51A33FEEF2404FFE43E34
:10222300FE122821EEFCEFFDE51B25E0FFE51A3346
:10223300FE74002FF58274013EF583ECF0A3EDF0FC
:10224300051BE51B7002051AC3943EE51A94004072
:10225300C07F027E001228218E188F1990017CE521
:1022630018F0A3E519F022E4FFEFC39440748094BF
:10227300805014EF25E02400F582E43401F58374E3
:10228300FFF0A3F00F80E2E47883F608F6E644015A
:10229300F6E654FDF6E654FBF6E64408F6E654EF9C
:1022A300F618E6FF08E6900100CFF0A3EFF0A3E4F1
:1022B300F0A37464F0E4A3F0A3F0A304F0A3748088
:1022C300F02212284A7F0A7E001227D71228E4122E
:1022D300220F122794400612226A12271F12288007
:1022E30012261D12283712259A7884E630E4031249
:1022F300246B1225091228A2D2AFD2911216AC1266
:1023030027481228C0E4F5FFE57560031228DB3087
:102313000FEAC20F12277080E3E4F5287BFF7A2BC4
:102323007940E576C313753400547FF5357805AEEF
:1023330076E577CEC313CE13D8F9753600540FF56F
:1023430037753800E577541FF53912098FE4F528FE
:10235300C3E528940574809480500CAF281226C6D8
:10236300120026052880E97BFF7A2B795B02098F0F
:10237300EF139295D297EFC313FFC297139295D29F
:1023830097EFC313FFC297139295D297EFC313FF2F
:10239300C297139295D297EFC313FFC297139295E7
:1023A300D297EFC313FFC297139295D297EFC3133C
:1023B300FFC297139295D297EFC313C297139295C7
:1023C300D297C297228D2C8B298A2A892B1226F623
:1023D300EF60037F0022AB29AA2AA92B90000312E6
:1023E30006C624FFFFE5F034FFFE9000051206C683
:1023F300FDEE55F0FEEF5DFF1207A18F828E83E5A0
:102403002C12064FAB29AA2AA92B900005E475F0DC
:10241300011206FE7F0122C0E0C0F0C083C082C06B
:10242300D075D010758CC1758A807886120789EFB4
:102433002401FFE43EFEE43DFDE43CFC7886120704
:1024430095788206E618700106C37882E69405182B
:10245300E69400400576000876001227F1D0D0D02C
:1024630082D083D0F0D0E032E4F528F52890029FA3
:10247300E024FE1313543FFEE528C39E5038AF28D3
:102483001226C6EFC4540F902CF393FEE52825E0E3
:1024930025E0FD24A1F582E43402F583EEF0EF5448
:1024A3000F902CF393FE74A32DF582E43402F5838D
:1024B300EEF0052880B722C0E0C0F0C083C082C020
:1024C300D075D00830D907120046C2D9802D30D834
:1024D3001B75DC0275D21275D41075E300C2DAC223
:1024E300D9C2D8757500787D7600800F30DA09C2BD
:1024F300DAE5DA30E205800375D8FFD0D0D082D098
:1025030083D0F0D0E03275E229E4F5E343D1805380
:10251300D1FB43D1017400FE74008EEDF5EC75DC44
:1025230002E4F5DD7400FE74408EEFF5EE75EA40CB
:1025330075D212E4F5D37400FE74808EE5F5E4756C
:10254300EB0975D410E4F5D543E18743D81FD2EAEC
:1025530022E5604561455F602A7531FF75322B7551
:10256300331DAB5FAA60A961121D1FEA494B6026A8
:102573007BFF7A2B792112098F7F647E001227D784
:102583000227707BFF7A2B793412098F7F647E00D8
:102593001227D71228CE22E4F54AC20AD20BF55AE3
:1025A300F55BC20DC20CF549F548F547F546D2096E
:1025B300F554F555F556F5579001C004F0A3746032
:1025C300F0752B01752C01752D80752E00752F402C
:1025D3007B007A00794B0220778E308F318B328AE1
:1025E300338934E4FF7585C0E53125E0F531E53005
:1025F30033F530EFC39536E49535501DEF25E025CF
:1026030031F58475868EAB32AA33A9348F827583F4
:1026130000E58E12064F0F80DA224393025392FD98
:102623004393105392EF4393205392DF43934043DA
:10263300924043938053927F43970143960143977C
:10264300025396FD4397045396FB4397084396081A
:102653004397105396EF22EF5410C36001D3929522
:10266300EF5402C36001D392B2EF5401C36001D3AC
:102673009297EF5404C36001D392B4EF5408C3603C
:1026830001D39294EF5420C37001D3929122300A64
:1026930031E55765557004E55665547025E5D4302A
:1026A300E706AE71AF728004AE73AF748E588F5964
:1026B300787DE6755400F555E4F556F557C20A538F
:1026C300D4F3227EFFEF1460121460141460161406
:1026D30060182404701A903FFC8012903FFD800D17
:1026E300903FFE8008903FFF8003903FFAE493FE03
:1026F300EEFF229000071206C6FFAEF0900005120F
:1027030006C6C39FFFE5F09EFE9000031206C66F48
:102713007003EE65F07F0070027F012274FFFE7884
:1027230083E6FF08E6900100CFF0A3EFF07B017A88
:102733000179007D377C00121F8E90016EEEF0A3AD
:10274300EFF0022003301124C211054AAF4AD3EF40
:1027530094FA748094804003754AFAAF4AC3EF94A5
:10276300C8748094805003C29122D2912275283874
:10277300752900C2BCE4F593F5927590FFF5E175F8
:10278300E2067F64FE1227D7C2AFAA28A92902084E
:10279300107B017A0179007D387C00121F8EEF4E89
:1027A3006002C322900100E0FFA3E07883CFF60824
:1027B300EFF6D322EFFBEEFAECF52ECFEDCFEFF5EC
:1027C3002FCFEBCFEA7B007A00792E753500753673
:1027D300020220E5EFFDEEFCED4C60117FE87E0385
:1027E30012286EE4F5FFED1D70EE1C80EB220570E0
:1027F300C3E5709464748094804003E4F570E570DD
:102803007002D20ED211229000071206C6FFAEF05C
:102813009000051206C6C39FFFE5F09EFE227B00D3
:102823007A00792E7535007536021225DCE52EFE09
:10283300E52FFF22438780759850758DE6758BE6EB
:10284300C2ABD28ED2AC2275A15575A1AAE5B954FB
:10285300F84405F5B9E4F5A122EFFDEEF59E439D9D
:1028630002539DFD439D08EDF59B22EF4E600D0540
:10287300A105A105A1EF1F70F21E80EF2243C9F04D
:10288300758921758CC1758A80D28CD2A922EFC338
:102893009441400AEF945B5005EF2420FF222275F8
:1028A300A15575A1AA43B101E4F5A1F5FF22EFC338
:1028B30094204007EF947F50028001C322300E0A18
:1028C300C20E301005C21012271F2275A15575A123
:1028D300AA43B110E4F5A122122691121B3D021C5A
:1028E3008602220F200030782530345820000A0059
:1028F3002042616420416472657373210A006D652F
:102903006D7264205B68657820616464725D205237
:10291300656164204D656D6F72792E0A0072656181
:1029230064000A307825303458200025303458208C
:102933000077726974650020777269746520307856
:10294300253034580020746F20656570726F6D20D8
:1029530061646472657373203078253034582E2E89
:102963002E0A006C6F6164004C6F61642066726FA5
:102973006D20496E742E20454550524F4D2E2E2EFC
:102983000A0073617665005361766520746F204990
:102993006E742E20454550524F4D2E2E2E0A006543
:1029A3006570726F6D205B6C6F61647C73617665BB
:1029B3007C726561647C77726974655D205B6164B8
:1029C30064725D205B646174615D204F7065726148
:1029D300746520496E742E20454550524F4D2E0A82
:1029E300006563686F00204543484F3D25640A0036
:1029F30075736E002055534E3D25640A00636C6B5E
:102A03006F004D434C4B4F43523D30782530345883
:102A13000A00746573740020544553543D25640AB9
:102A2300006C6564004C45443D25640A0070776D75
:102A33000050574D3D25640A006374726C205B653A
:102A430063686F7C73657269616C7C6C65645D201F
:102A53005B706172616D5D204465766963652043D7
:102A630074726C2E0A00204543484F3D256420555F
:102A7300534E3D2564204C45443D25640A00204CBB
:102A83006F616420706172616D6574657273206635
:102A9300726F6D20454550524F4D2E2E2E0A002049
:102AA3005361766520706172616D65746572732020
:102AB300746F20454550524F4D2E2E2E0A007265DD
:102AC30073746F72650020526573746F726520644E
:102AD300656661756C7420706172616D6574657291
:102AE300732E2E2E0A00706172616D205B6C6F6114
:102AF300647C736176657C726573746F72655D2047
:102B03004F70657261746520706172616D65746583
:102B130072732E0A00202D3E20006973700020720C
:102B230065626F6F7420746F204953502E2E2E0AE6
:102B330000207265626F6F742E2E2E0A002055538B
:102B4300422D426C6173746572207625642E256470
:102B53002E256420534E3A000A204543484F205304
:102B6300747564696F203C6563686F2E786A747549
:102B730040676D61696C2E636F6D3E2E20416C6CF6
:102B83002052696768747320526573657276656451
:102B93002E0A006374726C00656570726F6D00704D
:102BA3006172616D007265626F6F74007265626F4E
:102BB3006F74205B64656C6179206D735D20526571
:102BC30073746172742073797374656D2E0A00686F
:102BD300656C700068656C7020496E666F2E0A0024
:102BE30076657273696F6E00646973706C617920C6
:102BF30053572076657273696F6E20616E6420533C
:102C03004E2E0A006D656D72640012010002000011
:102C13000040FB09016000040102030109022000D6
:102C2300010100804B0904000002FFFFFF020705BA
:102C3300810240000007050202400000040309046A
:102C43000E0341006C0074006500720061001803FC
:102C53005500530042002D0042006C0061007300D8
:102C63007400650072000A060002FFFFFF400000C7
:102C7300000009FB600104004B80001C02000E945D
:102C830018A212BA030E0041006C007400650072B2
:102C930000610318005500530042002D0042006CF0
:102CA300006100730074006500720312003000308D
:102CB30000300030003000300030003003020001EB
:102CC30045524256000000000000000000000000D2
:102CD30000000000000000000000000000000000F1
:102CE3000000000000000000000000000000CB2AEC
:102CF300303132333435363738394142434445462F
:012D030000CF
:00000001FF
