:10000000021D648F993099FDC299220228C875A1FA
:100010005575A1AA43B940E5B954F84405F5B9E4CA
:10002000F5A122022090EFFBECF52ECFEDCFEFF5FE
:100030002FCFEBCF7B007A00792E75350075360215
:100040000221EF02269FE709F608DFFA8046E7095A
:10005000F208DFFA803E88828C83E709F0A3DFFA9A
:100060008032E309F608DFFA8078E309F208DFFA64
:10007000807088828C83E309F0A3DFFA8064898230
:100080008A83E0A3F608DFFA805889828A83E0A396
:10009000F208DFFA804C80D280FA80C680D4806972
:1000A00080F28033801080A680EA809A80A880DA6F
:1000B00080E280CA803389828A83ECFAE493A3C801
:1000C000C582C8CCC583CCF0A3C8C582C8CCC583C3
:1000D000CCDFE9DEE7800D89828A83E493A3F6080A
:1000E000DFF9ECFAA9F0EDFB2289828A83ECFAE0D1
:1000F000A3C8C582C8CCC583CCF0A3C8C582C8CC70
:10010000C583CCDFEADEE880DB89828A83E493A3BF
:10011000F208DFF980CC88F0EF60010E4E60C388F2
:10012000F0ED2402B4040050B9F582EB2402B404CB
:100130000050AF232345822390009673BB010689AC
:10014000828A83E0225002E722BBFE02E3228982F8
:100150008A83E49322BB010CE58229F582E5833A88
:10016000F583E0225006E92582F8E622BBFE06E987
:100170002582F8E222E58229F582E5833AF583E4D7
:100180009322BB010689828A83F0225002F722BBA8
:10019000FE01F322F8BB010DE58229F582E5833AE1
:1001A000F583E8F0225006E92582C8F622BBFE0559
:1001B000E92582C8F222BC000BBE0029EF8DF08435
:1001C000FFADF022E4CCF875F008EF2FFFEE33FE20
:1001D000EC33FCEE9DEC984005FCEE9DFE0FD5F057
:1001E000E9E4CEFD22EDF8F5F0EE8420D21CFEAD60
:1001F000F075F008EF2FFFED33FD4007985006D55E
:10020000F0F222C398FD0FD5F0EA22BB0110E5827F
:1002100029F582E5833AF583E0F5F0A3E022500961
:10022000E92582F886F008E622BBFE0AE92582F875
:10023000E2F5F008E222E5832AF583E993F5F0A3DD
:10024000E99322E88FF0A4CC8BF0A42CFCE98EF08B
:10025000A42CFC8AF0EDA42CFCEA8EF0A4CDA8F02E
:100260008BF0A42DCC3825F0FDE98FF0A42CCD35F2
:10027000F0FCEB8EF0A4FEA9F0EB8FF0A4CFC5F05C
:100280002ECD39FEE43CFCEAA42DCE35F0FDE43C55
:10029000FC22EB9FF5F0EA9E42F0E99D42F0EC640F
:1002A00080C864809845F022EB9FF5F0EA9E42F00A
:1002B000E99D42F0E89C45F022E8600FECC313FC96
:1002C000ED13FDEE13FEEF13FFD8F122E8600FEF00
:1002D000C333FFEE33FEED33FDEC33FCD8F122BB2C
:1002E000010789828A830204E05005E9F802034984
:1002F000BBFE05E9F80204EC89828A83020355BB40
:10030000010DE58229F582E5833AF5830204E05088
:1003100007E92582F8020349BBFE07E92582F802B6
:1003200004ECE58229F582E5833AF583020355BBA7
:10033000010789828A830203C15005E9F80203B5E7
:10034000BBFE05E9F802052E22E6FC08E6FD08E6FC
:10035000FE08E6FF22E493FC740193FD740293FE11
:10036000740393FF22BB010789828A83020505502B
:1003700005E9F80204F8BBFE05E9F80205118982D7
:100380008A8302051EBB010DE58229F582E5833AC9
:10039000F5830205055007E92582F80204F8BBFE43
:1003A00007E92582F8020511E58229F582E5833AFD
:1003B000F58302051EECF608EDF608EEF608EFF6FA
:1003C00022ECF0A3EDF0A3EEF0A3EFF022A88285DB
:1003D00083F0D083D0821203E41203E41203E41208
:1003E00003E4E473E493A3C583C5F0C583C8C58261
:1003F000C8F0A3C583C5F0C583C8C582C8228A8357
:100400008982E47375F008758200EF2FFFEE33FEEA
:10041000CD33CDCC33CCC58233C5829BED9AEC99DC
:10042000E58298400CF582EE9BFEED9AFDEC99FC7E
:100430000FD5F0D6E4CEFBE4CDFAE4CCF9A88222C5
:10044000B800C1B90059BA002DEC8BF084CFCECDE5
:10045000FCE5F0CBF97818EF2FFFEE33FEED33FD1E
:10046000EC33FCEB33FB10D703994004EB99FB0F03
:10047000D8E5E4F9FA227818EF2FFFEE33FEED33DA
:10048000FDEC33FCC933C910D7059BE99A4007EC52
:100490009BFCE99AF90FD8E0E4C9FAE4CCFB227599
:1004A000F010EF2FFFEE33FEED33FDCC33CCC8332D
:1004B000C810D7079BEC9AE899400AED9BFDEC9A8F
:1004C000FCE899F80FD5F0DAE4CDFBE4CCFAE4C807
:1004D000F922C3E49FFFE49EFEE49DFDE49CFC2220
:1004E000E0FCA3E0FDA3E0FEA3E0FF22E2FC08E2C3
:1004F000FD08E2FE08E2FF22E6FB08E6F908E6FA5C
:1005000008E6CBF822E0F8A3E0F9A3E0FAA3E0FBC9
:1005100022E2FB08E2F908E2FA08E2CBF822E493CF
:10052000F8740193F9740293FA740393FB22ECF2CA
:1005300008EDF208EEF208EFF222FAE6FB0808E610
:10054000F925F0F618E6CA3AF622BB011A89828A22
:1005500083D0F0D0E0F8D0E0F9D0E0FAD0E0FBE8CA
:10056000C0E0C0F00205C85016E9F8D083D082D0B0
:10057000E0F9D0E0FAD0E0FBC082C0830205BFBB47
:10058000FE16E9F8D083D082D0E0F9D0E0FAD0E0CE
:10059000FBC082C0830205D122D083D082F8E493CD
:1005A0007012740193700DA3A393F8740193F582F4
:1005B0008883E4737402936860EFA3A3A380DFEBE6
:1005C000F608EAF608E9F622EBF0A3EAF0A3E9F070
:1005D00022EBF208EAF208E9F222E5D9543F70036F
:1005E000020A8D24FE602124E27003020A2224F014
:1005F000602B240F6003020A93E4F5D3E5D254FC88
:100600004402F5D2755F012220DE03020A9385DBE6
:1006100052E5D454F34408F5D4755D0122E5DC5469
:10062000036403700215DCAFDB7523008F24E5241F
:100630006408452360030209F7900007E0FE90007C
:1006400006E0FDEEF546EDF547D3E547947FE54638
:100650009400400675460075477FE4F523F5249025
:100660000000E0F548A3E0F549E548546070030256
:100670000748E54830E769E54924FB604524FB600D
:1006800025247A704C900004E0543FF52525E024A1
:100690008AF582E4342FF583E493FC74019390008F
:1006A00000F0ECA38025900004E064027007900342
:1006B00014E0FF8005900313E0FF900000EFF002CC
:1006C00008989000007401F0A37460F07523008016
:1006D00009E4900000F0A3F0F5237524020209FD5F
:1006E000E549246F60551460372492B40C00400330
:1006F0000209F79006FAF828287302071E0207205D
:1007000002072002072002072002074502072002F5
:100710000720020745020722020745020720801D25
:10072000801B900004E064019000027007E09003D9
:1007300013F08005E0900314F08002D20CE4F5235E
:10074000F5240209FD0209F7E549B40B0040030254
:1007500009F5900759F82828730209D30208B20254
:1007600009F50209310209F502087602077A020941
:10077000F50208820208A10209FD900003E024FEB0
:10078000601914602724FD700302080C2405707E94
:100790007555FF75562F75572480697555FF755629
:1007A0002F7557367523007524208068900002E06D
:1007B00014601B1460291460372403703E7555FFC4
:1007C00075562F7557567523007524048046755548
:1007D000FF75562F75575A75230075240E80357591
:1007E00055FF75562F75576875230075241880249A
:1007F0007555017556037557018009755501755674
:100800000375570175230075241280088000752335
:10081000007524FFD3E5479524E5469523400685DA
:100820002346852447E524F4452370030209FDC3CC
:10083000E5479440E546940040067E007F408004F2
:10084000AE46AF478E238F247400F87400FC740109
:10085000FDAB55AA56A957120116C3E5479524F5D5
:1008600047E5469523F546E5242557F557E5233515
:1008700056F5560209FD900002E0754600F5470264
:1008800009FDA209E433900000F0C3E5479401E5B7
:1008900046940050030209FD7523007524010209E6
:1008A000FD300A08900002E024FF8001C392090293
:1008B00009FDE548541FFD7C007020900003E0FE18
:1008C000900002E0FBEB64014E700D902F3D9330E1
:1008D000E5030209FD0209F70209F7ED64024C7015
:1008E0004D900004E014603D1460291460152482CA
:1008F0006028146014147033E5D654BC4402F5D655
:100900000209FD53D6730209FDE5D454BC4402F537
:10091000D40209FD53D4730209FDE5D254BC44024C
:10092000F5D20209FD53D2730209FD0209F702094B
:10093000F7E548541FFD7C007020900003E0FE9016
:100940000002E0FBEB64014E700D902F3D9330E50B
:10095000030209FD0209F70209F7ED64024C707108
:10096000900003E0FE900002E0FDED4E706190000B
:1009700005E0FE900004E0FDEDFFEE7050EF146026
:100980004214602B1460142482602E1460171470BB
:100990003CE5D654BF4403F5D68062E5D6547F4487
:1009A0000CF5D68058E5D454BF4403F5D4804EE509
:1009B000D4547F440CF5D48044E5D254BF4403F5AD
:1009C000D2803AE5D2547F440CF5D2803080288022
:1009D000268024E4900000F0A3F0C3E5479402E5EC
:1009E00046940040067E007F028004AE46AF478EEC
:1009F000238F24800880007523007524FFE524F4EC
:100A0000452370077549FF75DCCF22D3E524944058
:100A1000E523940050058524DD8003E4F5DD75DCD5
:100A2000C022E54854606002805EE54924FB604EC8
:100A3000147055C3E5479440E546940040067E0097
:100A40007F408004AE46AF478E238F247400F87435
:100A500000FC7401FDAB55AA56A957120116C3E557
:100A6000479524F547E5469523F546E5242557F5B2
:100A700057E5233556F5568524DD63DC4022E5E352
:100A800054804547F5E38008E4F5DD8003E4F5DDB7
:100A900075DC0222E5402434F8E605402278313046
:100AA00007027834E475F00112053A02013C200097
:100AB000EB7F2ED2008018EF540F2490D43440D412
:100AC000FF30040BEF24BFB41A0050032461FFE58C
:100AD00041600215410544E5447002054330070DAD
:100AE0007831E475F00112053AEF020182022A37EB
:100AF0007403D2078003E4C207F5408B318A328940
:100B000033E4F541F543F544E54160077F20120ADF
:100B1000CF80F57542FFC201C200C202C203C20506
:100B2000C206C208120A9DFF700D3007057F001231
:100B30000AE0AF44AE4322B4255FC2D5C204120A14
:100B40009DFF24D0B40A00501A75F00A784130D5C0
:100B50000508B6FF0106C6A426F620D5047002D209
:100B60000380D924CFB41A00EF5004C2E5D20402A6
:100B70000CE0D20180C6D20080C0D20280BCD2D5A7
:100B800080BAD20580B47F20120ACF2002077401F8
:100B9000B5410040F1120A94FF120ACF020B08D2AD
:100BA00008D2068095120A94FB120A94FA120A944B
:100BB000F94A4B700679B17A0D7BFF20022EE54190
:100BC000602A7E008E8275830012015560060EEE4B
:100BD000654270F0C2D5EBC0E0EAC0E0E9C0E0EEEB
:100BE000120D27D0E0F9D0E0FAD0E0FB12013CFF73
:100BF00060AAEBC0E0EAC0E0E9C0E0120ACFD0E0B2
:100C00002401F9D0E03400FAD0E0FBE5420460DCD6
:100C1000D542D980877BFF7A0D7923D202809C79D7
:100C20001080027908C206C2088008D2D5790A80ED
:100C300004790AC2D5E542047002F542E4FAFDFEE9
:100C4000FF120A94FC7B08200113120A94FD7B100A
:100C500030000A120A94FE120A94FF7B20EC3382C1
:100C6000D592D55013C3E43000069FFFE49EFEE406
:100C70002001039DFDE49CFCE4CBF8C201EC700C68
:100C8000CFCECDCCE824F8F870F38017C3EF33FF54
:100C9000EE33FEED33FDEC33FCEB33FB994002FB0E
:100CA0000FD8E9EB300105F8D0E0C448B201C0E04C
:100CB0000AEC4D4E4F78207B0070C2EAB5420040EE
:100CC000BCC0E0120D29D0F0D0E0200104C4C0E087
:100CD000C4B201C0F0120AB8D0F0D5F0EB020B0894
:100CE0001205990BA5530C1F580B764C0B72420C36
:100CF000234F0C2B440C2B490B8B430C31550C15FB
:100D0000460C15450C15470DD1500B7A2D0B7E2E38
:100D10000BA12B0B82230B9F200DBA2A0B3A480004
:100D2000000B993F3F3F00790AA2D52003143005FC
:100D300009B910020404B9080104A2D52006025022
:100D400001042002689202B541005034C0E07F20C7
:100D50003003197F30A20272067205500F120D8007
:100D6000C202C206C205C2087F30800F300503E907
:100D7000C0E0120ACF300503D0E0F9D0E0B541CC95
:100D80003005177F30B9100C120ACF7F5830040796
:100D90007F788003B90803120ACF3002057F2D0245
:100DA0000ACF7F202008F87F2B2006F322920280B2
:100DB000CF286E756C6C2900D201120A943001F8AC
:100DC000C201784130D50108F6020B3A2D50434953
:100DD00058120A942403B405004001E4900DCC930A
:100DE000120AC0743A120AC0D203754104020C1FE1
:100DF000900243E0FBA3E0FAA3E0F9EA494B700359
:100E00000211057531FF75322C753360900243A3D2
:100E1000A3E0121F14EA494B604E900246E0FBA388
:100E2000E0FAA3E0F9EA494B602D752E00752F001A
:100E300075300075310A900246A3A3E01214D8EF72
:100E40005401FFEF5401FF786BE6FC08E654FEFD09
:100E5000EC18F6ED4F08F67BFF7A2C7965753400B7
:100E6000786CE65401020FC77531FF75322C75336B
:100E70006F900243E0FBA3E0FAA3E0F9121F14EA2B
:100E8000494B6068900246E0FBA3E0FAA3E0F9EA70
:100E9000494B603A752E00752F0075300075310A88
:100EA000900246A3A3E01214D8EF5401FFEF5401BF
:100EB000C4F8540FC868FFE4C454F048FE786BE6E9
:100EC000FC08E654EFFDEC4E18F6ED4F08F6796B92
:100ED000E7C4F854F0C809E7C4540F487534005407
:100EE00001F5357BFF7A2C797302113D7531FF7561
:100EF000322C75337C900243E0FBA3E0FAA3E0F9C7
:100F0000121F14EA494B6068900148E0F528A3E0FD
:100F1000F52985FB2A900246E0FBA3E0FAA3E0F95D
:100F2000EA494B6035753400753500753600753704
:100F30000A900246A3A3E01213348E288F291227A9
:100F4000828F2AEFFBE4FAF9F87F807E3EFDFC12E7
:100F500027C7900148EEF0A3EFF07BFF7A2C798051
:100F6000900148E0F534A3E0F535852A3602113DBD
:100F70007531FF75322C753392900243E0FBA3E08C
:100F8000FAA3E0F9121F14EA494B6040900246E0D0
:100F9000FBA3E0FAA3E0F9EA494B601D7534007544
:100FA0003500753600753710900246A3A3E0121382
:100FB00034900144E4F0A3EFF07BFF7A2C79979012
:100FC0000144E0F534A3E0F53502113D7531FF75BC
:100FD000322C7533A7900243E0FBA3E0FAA3E0F9BB
:100FE000121F14EA494B605B900246E0FBA3E0FA53
:100FF000A3E0F9EA494B6033752E00752F00753078
:101000000075310A900246A3A3E01214D8EF5401F0
:10101000FFEF540125E0FFE433FE786BE6FC08E6C1
:1010200054FDFDEC4E18F6ED4F08F6796BE7C3134F
:1010300009E7137534005401F5357BFF7A2C79AC40
:1010400002113D7531FF75322C7533B6900243E0C5
:10105000FBA3E0FAA3E0F9121F14EA494B604090A9
:101060000246E0FBA3E0FAA3E0F9EA494B601D75F4
:10107000340075350075360075370A900246A3A313
:10108000E0121334900142EEF0A3EFF07BFF7A2CD4
:1010900079BA900142E0F534A3E0F53502113D75CF
:1010A00031FF75322C7533C2900243E0FBA3E0FAA6
:1010B000A3E0F9121F14EA494B6042900246E0FB9C
:1010C000A3E0FAA3E0F9EA494B60207534007535D6
:1010D0000075360075370A900246A3A3E012133458
:1010E000900146EEF0A3EFF0122A4B7BFF7A2C79A9
:1010F000C6900146E0F534A3E0F53580407BFF7AE9
:101100002C79CE80387BFF7A2C79CE120AF6753492
:1011100000786CE65401F535796BE7C4F854F0C8F3
:1011200009E7C4540F487536005401F5379001485B
:10113000E0F538A3E0F5397BFF7A2C79FC120AF64A
:1011400022E4F528F529F52AF52BF52CF52D90024A
:1011500043E0FBA3E0FAA3E0F9EA494B7003021372
:101160002A7531FF75322B75339C900243A3A3E09F
:10117000121F14EA494B7003021217900246E0FB5B
:10118000A3E0FAA3E0F9EA494B7003021333753484
:1011900000753500753600753710900246A3A3E040
:1011A0001213348E288F29E4F52CF52DE529252DF1
:1011B000FFE528352CFED3EF943EEE9400504FE52A
:1011C0002D5407700D7BFF7A2B79A18E348F351249
:1011D0000AF67BFF7A2B79AAE529252DFFE528352C
:1011E0002CFEEF25E0FFEE33FE74402FF5827401F4
:1011F0003EF583E0F534A3E0F535120AF6052DE55A
:101200002D7002052CD3943EE52C9400409E7BFF6C
:101210007A2B790D0213307531FF75322B7533B08F
:10122000900243E0FBA3E0FAA3E0F9121F14EA499D
:101230004B70030212D4900246E0FBA3E0FAA3E055
:10124000F9EA494B7003021333A3E0FBA3E0FAA3CE
:10125000E0F9EA494B700302133375340075350029
:10126000753600753710900246E0FBA3E0FAA3E064
:10127000F9121334E4F5288F29F534F535F5367570
:101280003710900249E0FBA3E0FAA3E0F91213340F
:10129000EFFDEEFCE52925E0FFE52833FE74402F45
:1012A000F58274013EF583ECF0A3EDF07BFF7A2B21
:1012B00079B674402FF58274013EF583E0F534A3CE
:1012C000E0F535120AF67BFF7A2B79C48528348540
:1012D0002935805C7531FF75322B7533E2900243FE
:1012E000E0FBA3E0FAA3E0F9121F14EA494B600BFC
:1012F00012249D7BFF7A2B79E780357531FF75329B
:101300002C753301900243E0FBA3E0FAA3E0F9124D
:101310001F14EA494B600B12217D7BFF7A2C790662
:10132000800E7BFF7A2C791E80067BFF7A2C791E3B
:10133000120AF6228B318A328933E4F53DF53CF509
:101340003BF53AF538F539E535453645346012EB6D
:10135000C0E0EAC0E0E9C0E0AB34AA35A936120526
:101360004AAB310533E533AA327002053214F91263
:10137000013CF53EC394094007E53ED3940D40E19E
:10138000E53E642060DBE53EB42D0543390380165D
:10139000E53EB42B05433901800C74FF2533F5334A
:1013A00074FF3532F532E53760046410703FAB31BD
:1013B000AA32A93312013C64306009E537702E75FA
:1013C000370A8029900001120155FF64786004EF0C
:1013D000B4581343390175371074022533F533E4DB
:1013E0003532F5328007E5377003753708AB3105C4
:1013F00033E533AA327002053214F912013CF53E8E
:10140000C39461400AE53ED3947A5003533EDF749F
:10141000D0253EF53EC3940A400CE53E9411406D44
:1014200074F9253EF53EE53EC395375060433901DA
:10143000853D42853C41853B40853A3FAF377E0044
:10144000E4FCFDAB3DAA3CA93BA83A120243C8EC20
:10145000C8C9EDC9CAEECACBEFCBE4FCFDFEEB2553
:101460003EF53DEE3AF53CED39F53BEC38F53AAF5B
:101470003DAE3CAD3BFCAB42AA41A940A83FD312D4
:1014800002A850030213ED4339040213EDE539209D
:10149000E003E4802DE53545364534601EAB31E58B
:1014A0003324FFF9E53234FFFAEBC0E0EAC0E0E9AB
:1014B000C0E0AB34AA35A93612054AE53930E20757
:1014C00074FFFFFEFDFC22E539AF3DAE3CAD3BAC09
:1014D0003A30E1030204D2228B2B8A2C892DE4F5C9
:1014E00037F536F535F534F532F533E52F4530452A
:1014F0002E6012EBC0E0EAC0E0E9C0E0AB2EAA2FFC
:10150000A93012054AAB2B052DE52DAA2C7002053A
:101510002C14F912013CF538C394094007E538D37F
:10152000940D40E1E538642060DBE538B42D0543D7
:1015300033038016E538B42B05433301800C74FF68
:10154000252DF52D74FF352CF52CE5316004641044
:10155000703FAB2BAA2CA92D12013C64306009E529
:1015600031702E75310A8029900001120155FF64F7
:10157000786004EFB45813433301753110740225B9
:101580002DF52DE4352CF52C8007E53170037531F0
:1015900008AB2B052DE52DAA2C7002052C14F91291
:1015A000013CF538C39461400AE538D3947A50037E
:1015B0005338DF74D02538F538C3940A400CE53829
:1015C0009411405374F92538F538E538C3953150F6
:1015D00046433301AF317E00E4FCFDAB37AA36A9A8
:1015E00035A834120243C8ECC8C9EDC9CAEECACB4B
:1015F000EFCBE4FCFDFEEB2538F537EE3AF536EDA2
:1016000039F535EC38F534AF37AE36AD35FC3350FF
:1016100080433304021591E53320E006E4FFFEFD2C
:10162000FC22E52F4530452E601EAB2BE52D24FF17
:10163000F9E52C34FFFAEBC0E0EAC0E0E9C0E0AB2A
:101640002EAA2FA93012054AE53330E21230E10705
:10165000E4FFFEFD7C802274FFFFFEFD7C7F22E51F
:1016600033AF37AE36AD35AC3430E1030204D222AD
:10167000021A00000218FFFF02532C5B046D0000E9
:101680000000C10EC10BC10D024E0040025000808F
:10169000024A00C0024C0100410313044103140438
:1016A000015200C10CC109C18A0355000000520358
:1016B000011203460046004600460046004600462A
:1016C00000460041030000015A00015D00015F0176
:1016D00001610001600001660001680001670043CC
:1016E00002400000004302430000004302460000A5
:1016F0000043024900000043024C00000060510218
:101700004FFF2E6CFF2CCEFF0DF0FF2E71FF2C1E15
:10171000FF1141FF2E78FF2D7DFF1DFEFF2E7EFF66
:101720002E85FF2651FF2EA8FF2EADFF2016FF2E7F
:10173000B9FF2EC1FF23E1FF2EDDFF2B1DFF191A7C
:10174000FF2EE3FF2B72FF1CC0FF2EE9FF2EF1FFDF
:101750001B4A011F09C10F016900016A00602002D4
:10176000A0000000000000000000000000000000D9
:101770000000000000000000000000000000000069
:1017800000604002C00000000000000000000000F7
:101790000000000000000000000000000000000049
:1017A0000000000000000000000000000000000039
:1017B0000000000000000000000000000000000029
:1017C000000000000000E4F528200F03021919753D
:1017D0002CFF752D2B752E037B017A0279C0121F09
:1017E00096900240EBF0A3EAF0A3E9F04A4B7003B5
:1017F000021873752CFF752D2B752E037B007A0054
:101800007900121F96900243EBF0A3EAF0A3E9F0EF
:101810004A4B605F752CFF752D2B752E037B007A6C
:10182000007900121F96900246EBF0A3EAF0A3E9BC
:10183000F04A4B603E752CFF752D2B752E037B00F7
:101840007A007900121F96900249EBF0A3EAF0A308
:10185000E9F04A4B601D752CFF752D2B752E037B0F
:10186000007A007900121F9690024CEBF0A3EAF088
:10187000A3E9F0E4F528E528C3951F503475F00975
:10188000E528A4244FF582E5F03402F583E0FBA3BC
:10189000E0FAA3E08B318A32F533900240E0FBA3FB
:1018A000E0FAA3E0F9121F14EA494B7004052880FE
:1018B000C5E528C3951F503675F009E528A42455C1
:1018C000F582E5F03402F583E0FBA3E0FAA3E0F94A
:1018D000EA494B601975F009E528A42455F582E51D
:1018E000F03402F583A3E0FAA3E0F91203FE9002BC
:1018F00040E4F0A3F0A3F0F9A3C9F0A3F0A3E9F04A
:10190000A3E4F0A3F0A3F0F9A3C9F0A3F0A3E9F0D6
:10191000A3E4F0A3F0A3F0C20F22E4F528F529F523
:101920002AF52BF52CF52DF52EF52FF530900243E9
:10193000E0FBA3E0FAA3E0F9EA494B7003021A5274
:10194000753400753500753600753710900243A365
:10195000A3E01213348E288F29E52945287003024D
:101960001A4A8E2A8F2BE4F52DF52E7BFF7A2B79E0
:1019700005E52EC4F8540FC868FFE52DC454F0489F
:10198000FEE5292FF535E5283EF534120AF6E4F593
:101990002FF530E52EC4F8540FC868FFE52DC45468
:1019A000F048FEE5302FFFE52F3EFEE52B2FF582B8
:1019B000E52A3EF583E493F52CFF1229C07F20121F
:1019C00000030530E5307002052FC39410E52F9415
:1019D0000040C0E4F52FF530E52EC4F8540FC86878
:1019E000FFE52DC454F048FEE5302FFFE52F3EFE05
:1019F000E52B2FF582E52A3EF583E493F52CFF7E57
:101A000000C3942074809480400CD3EF947E748043
:101A10009480500280027F2E1200030530E5307062
:101A200002052FC39410E52F940040AC7BFF7A2B66
:101A3000790D120AF6052EE52E7002052DC39410BD
:101A4000E52D9400500302196B227BFF7A2B790F4E
:101A500080067BFF7A2B791D120AF6228F27E4F588
:101A600069AF27122A8F5038AF69056974A02FF526
:101A700082E43402F583E527F0AF6AC3EF94407443
:101A80008094804003021B3AAF27122A6FAE6A058A
:101A90006A74C02EF582E43402F583EFF0021B3A3B
:101AA000E52764087043AF69056974A02FF582E4E7
:101AB0003402F5837408F0AF69056974A02FF582CC
:101AC000E43402F5837420F0AF69056974A02FF542
:101AD00082E43402F5837408F0AF6AD3EF940074A3
:101AE0008094804055156A8051E527640D704BAF96
:101AF00069056974A02FF582E43402F583740DF052
:101B0000AF69056974A02FF582E43402F583740A85
:101B1000F0AF6AC3EF9440748094805016AF6A05AA
:101B20006A74C02FF582E43402F583E4F0F56AD2DA
:101B30000F8007E49002FFF0F56AAF69C3EF9440AD
:101B4000748094804003E4F569229003151203CD5C
:101B5000000000009003191203CD00000000122ABB
:101B6000EC40097BFF7A2E7930120AF67F397E002D
:101B70001223829003191203C1900243E0FBA3E0F9
:101B8000FAA3E0F9EA494B605E75340075350075DB
:101B90003600753710900243A3A3E012133490036C
:101BA000151203C174FFFFFEFDFC900319E0F8A3BA
:101BB000E0F9A3E0FAA3E0FBC31202A87047900388
:101BC00015E0FCA3E0FDA3E0FEA3E0F52D8E2C8D37
:101BD0002B8C2A7F397E001226ECD20D7BFF7A2EC9
:101BE000794490031580097BFF7A2E795A90031966
:101BF000E0FCA3E0FDA3E0FEA3E0F5378E368D35D3
:101C00008C34120AF622E55EC3955C4003021CBFC9
:101C1000C3E55B943D748094804003021CBFAF5EBB
:101C2000055EE5652FF582E43564F583E0F528E58A
:101C3000667058E52854C0604AE5285480F568E588
:101C4000285440F567E5686008E528543FF566804C
:101C50002DE5676029AF28122A22A2B3E43325E0DC
:101C6000FFA296E4334FFFAE5B055BEE2402FDE47A
:101C700033FCE5632DF582E5623CF583EFF0E4F596
:101C80005A8083AF28122A22021C06E5676026AF1D
:101C900028309405122AAC80031224F8AE5B055B51
:101CA000EE2402FDE433FCE5632DF582E5623CF5AC
:101CB00083EFF08005AF28122AE01566021C062289
:101CC000752A00752B00752C00900243E0FBA3E001
:101CD000FAA3E0F9EA494B7003021D5AA3E0FBA303
:101CE000E0FAA3E0F9EA494B6070753400753500FD
:101CF000753600753710900243E0FBA3E0FAA3E0CD
:101D0000F91213348E288F29753400753500753615
:101D100000753710900246E0FBA3E0FAA3E0F91249
:101D20001334C3E528940E4029AA28A9297B018BE6
:101D30002A8A2B892CEF120182AB2AAA2BA92C12FA
:101D4000013CF5348528358529367BFF7A2B793C93
:101D5000800E7BFF7A2B796380067BFF7A2B79726A
:101D6000120AF622787FE4F6D8FD9000007F007E0C
:101D700004E4F0A3DFFCDEFA758170021DB90222D3
:101D80005BE493A3F8E493A34003F68001F208DF39
:101D9000F48029E493A3F85407240CC8C333C45433
:101DA0000F4420C8834004F456800146F6DFE480E7
:101DB0000B0102040810204080901670E47E01930D
:101DC00060BCA3FF543F30E509541FFEE493A360B9
:101DD000010ECF54C025E060A840B8E493A3FAE414
:101DE00093A3F8E493A3C8C582C8CAC583CAF0A365
:101DF000C8C582C8CAC583CADFE9DEE780BE9002D3
:101E000043E0FBA3E0FAA3E0F9EA494B60737531C4
:101E1000FF75322B7533E2900243A3A3E0121F1427
:101E2000EA494B600C7BFF7A2D7915120AF60225E0
:101E3000537531FF75322C753301900243E0FBA3DB
:101E4000E0FAA3E0F9121F14EA494B600C7BFF7A19
:101E50002D7936120AF6D20D227531FF75322D75A5
:101E60003355900243E0FBA3E0FAA3E0F9121F14FC
:101E7000EA494B7BFF600C7A2D795D120AF602224B
:101E8000BE7BFF7A2D797D120AF622E55F70030290
:101E90001F13855B28E4F55BAF28FED3EF943E74F7
:101EA000809480400575283E8043EF4E703FAF59C7
:101EB000FCFDFEC0E0C0E0C0E0EFC0E0786D1203C2
:101EC00049D0E0FBD0E0FAD0E0F9D0E0F8C3EF9BD6
:101ED000FFEE9AFEED99FDEC98FCE47B0AFAF9F826
:101EE000D31202A84007E5586029E4F558786D122E
:101EF00003498F59E4F55FE5D230E606AE4EAF4FA9
:101F00008004AE50AF518E628F63E5282402F5D372
:101F100053D2FC228B2E8A2F8930AB31AA32A933BF
:101F200012013C6063AB2EAA2FA93012013C605F06
:101F30008531348532358533368B378A388939ABEC
:101F400034AA35A93612013CFF6023AB37AA38A961
:101F50003912013C6F7017042536F536E43535F536
:101F60003574012539F539E43538F53880D1AB348D
:101F7000AA35A93612013C7002800D74012530F596
:101F800030E4352FF52F809DAB2EAA2FA930227B70
:101F9000007A007900228B298A2A892BE94A4B7022
:101FA00009851C29851D2A851E2BE52B452A4529D7
:101FB0007002802C852C32852D33852E34AB29AAD6
:101FC0002AA92B122321EF252BF52BEE352AF52AF2
:101FD000AB29FAA92B12013C700AF51CF51DF51E60
:101FE000FBFAF922852C32852D33852E34AB29AAB4
:101FF0002AA92B1224408B1C8A1D891EEA494B609A
:102000000EE412018204251EF51EE4351DF51DABFC
:1020100029AA2AA92B22E4F528F528C3E528940645
:1020200074809480506975F009E528A42455F582E0
:10203000E5F03402F583E0FBA3E0FAA3E0F9EA4916
:102040004B60487BFF7A2B7903120AF675F009E59D
:1020500028A4244FF582E5F03402F583E0FBA3E0E9
:10206000FAA3E0F9120AF67BFF7A2D79AC120AF690
:1020700075F009E528A42452F582E5F03402F583D1
:10208000E0FBA3E0FAA3E0F9120AF60528808C220F
:10209000C0E0C0F0C083C082C0D0E8C0E0E9C0E0CA
:1020A000EAC0E0EBC0E0ECC0E0EDC0E0EEC0E0EF85
:1020B000C0E030982BAF99121A5C752600E526C354
:1020C0009569501A786CE630E01474A02526F582E4
:1020D000E43402F583E0FF120003052680DFC29896
:1020E000309902C299D0E0FFD0E0FED0E0FDD0E010
:1020F000FCD0E0FBD0E0FAD0E0F9D0E0F8D0D0D0CE
:1021000082D083D0F0D0E0328B2E8A2F89308C3170
:102110008D32E4FDFC74FFF533F534E4F535F53626
:10212000C3ED9532EC9531504FED25E0FFEC33AB2C
:102130002EAA2FA9308F82F58312020BAEF06234E3
:10214000EE6233E4FAFB753500E5345401F536E50B
:1021500033C313F533E53413F534E53645356006FE
:102160006334016333A00BBB00010AEB64084A70BF
:10217000D50DBD00010C80A8AE33AF34227B017AAF
:102180000179407D3E7C001221088E188F19E4FDF4
:10219000FCFFFE120026AD19AC187F02120026E4E7
:1021A000F51AF51BE51B25E0FDE51A33FCED2404CB
:1021B000FFE43CC0E0EFC0E074402DF58274013CC8
:1021C000F583E0FCA3E0FDD0E0FFD0E0FE120026A6
:1021D000051BE51B7002051AC3943EE51A940040E6
:1021E000C39001BCE518F0A3E519F0AE18FF228EEC
:1021F000308F318B328A33893475A15575A1AA434A
:10220000B104E4F5A17585C0E53125E0F531E5308F
:1022100033F530E4FFEFC39536E495355030EF25C4
:10222000E02531F584AB32AA33A9348F827583005F
:10223000120155F58EE58630E60375869AE58664CB
:1022400040D39400748094804001220F80C775A110
:102250005575A1AA53B1FBE4F5A12212000E7F0A25
:102260007E001229DB122B0012249D1225534006FA
:102270001222BE1229561229F512288B900148E02D
:10228000FEA3E0FF122AD4122ABA12284C786CE678
:1022900030E403122602122737122A80D2AFD2B1BD
:1022A000D29C1217C6122900122A9EE4F5FF3009AB
:1022B00003122AF7300CEBC20C12297F80E4E4FFF2
:1022C000EFC39440748094805014EF25E02440F5CF
:1022D00082E43401F58374FFF0A3F00F80E2E47828
:1022E0006BF608F6E64401F6E654FDF6E654FBF616
:1022F000E64408F6E654EFF618E6FF08E6900140DB
:10230000CFF0A3EFF0A3E4F0A37464F0E4A3F0A390
:10231000F0A304F0A37480F0A3741FF0A37440F042
:10232000228B2F8A308931E4F535F536E4FEFFAB98
:1023300032AA33A9348F828E83120155FD6013AB0C
:102340002FAA30A93112013C6D60070FBF00010EAA
:1023500080DDAB32AA33A9348F828E83120155708F
:1023600002801A0536E53670020535AB2F0531E5DA
:102370003170020530F9AA3012013C70AFAE35AFB2
:1023800036228E288F29E52925E0FFE52833FE74C3
:10239000422FF58274013EF583E0FEA3E0FFE4FCEA
:1023A000FD78101202CCECC0E0EDC0E0EEC0E0EF32
:1023B000C0E0E52925E0FFE52833FE74402FF582D3
:1023C00074013EF583E0FEA3E0FFD0E0FBD0E0FA2D
:1023D000D0E0F9D0E0F8EB4FFFEA4EFEE9FDE8FC73
:1023E00022E4F5287BFF7A2D79D4E553C3137534A5
:1023F00000547FF5357805AE53E554CEC313CE13A4
:10240000D8F9753600540FF537753800E554541F68
:10241000F539120AF6E4F528C3E528940874809487
:10242000805014AF281225AD8F347BFF7A2D79EFC1
:10243000120AF6052880E17BFF7A2D79F5020AF66B
:102440008B2F8A308931853235853336853437ABE9
:1024500035AA36A93712013CFF6019AB2FAA30A963
:102460003112013C6F600D74012537F537E43536C4
:10247000F53680DBAB35AA36A93712013C6007ABD5
:102480002FAA30A93122AB2F0531E531AA307002D5
:10249000053014F912013C70ADFBFAF922E4F51A8B
:1024A000F51BE51B25E0FFE51A33FEEF2404FFE4EE
:1024B0003EFE122A0CEEFCEFFDE51B25E0FFE51ABF
:1024C00033FE74402FF58274013EF583ECF0A3EDEA
:1024D000F0051BE51B7002051AC3943EE51A940033
:1024E00040C07F027E00122A0C8E188F199001BC0A
:1024F000E518F0A3E519F022EF139295A2B3D29755
:102500002313C297139295A2B3D2972313C29713A2
:102510009295A2B3D2972313C297139295A2B3D2E6
:10252000972313C297139295A2B3D2972313C297FE
:10253000139295A2B3D2972313C297139295A2B385
:10254000D2972313C297139295A2B3D2972313C2A3
:1025500097FF227B017A0179407D387C00122108A7
:10256000EF4E6002C322900140E0FFA3E0786BCF02
:10257000F608EFF6900148E0FEA3E0FFE4FCFD7BE7
:10258000407A1FF9F8C3120292500A900148741F52
:10259000F0A37440F0C3900149E094F4900148E046
:1025A000940150077401F0A374F4F0D3227EFFEF7E
:1025B000B40800504A9025BCF82828730225D4029C
:1025C00025D90225DE0225E30225E80225F00225B1
:1025D000F40225FA903FFC8012903FFD800D903F61
:1025E000FE8008903FFF8003903FFAE493FE800F47
:1025F000AEA1800BE5A1F4FE8005E5A1F404FEEE9A
:10260000FF22E4F528F528900301E024FE1313547B
:102610003FFEE528C39E5038AF281225ADEFC454C5
:102620000F90300A93FEE52825E025E0FD2403F510
:1026300082E43403F583EEF0EF540F90300A93FEFA
:1026400074052DF582E43403F583EEF0052880B798
:1026500022900243E0FBA3E0FAA3E0F9EA494B60D1
:102660002A7531FF75322D7533B1900243A3A3E073
:10267000121F14EA494B60267BFF7A2D79B5120AA6
:10268000F67F647E001229DB02297F7BFF7A2D7999
:10269000C8120AF67F647E001229DB122AC722C004
:1026A000E0C0F0C083C082C0D075D00830D9071216
:1026B00005DAC2D9802B30D81975DC0275D21275B3
:1026C000D41075E300C2DAC2D9C2D8C2097552006B
:1026D000800F30DA09C2DAE5DA30E205800375D816
:1026E000FFD0D0D082D083D0F0D0E032EFFBEEFA32
:1026F000E52DFFE52CFEEFFDEEFCEB25E0FFEA33D8
:10270000FE74402FF58274013EF583ECF0A3EDF0EA
:10271000FFAE2CAD2BAC2A78101202B9EFFDEEFC07
:10272000EB25E0FFEA33FE74422FF58274013EF59B
:1027300083ECF0A3EDF02275E229E4F5E343D180C8
:1027400053D1FB43D1017400FE74008EEDF5EC759E
:10275000DC02E4F5DD7400FE74408EEFF5EE75EA00
:102760005075D212E4F5D37400FE74C08EE5F5E422
:1027700075EB0975D410E4F5D543E18743D81FD232
:10278000EA228F828E83E4FCFD7B407A1FF9F8C336
:102790001202925003901F40C3E58294F4E58394A3
:1027A0000150039001F4AE83AF82EFFBEEFAE4F93F
:1027B000F87F807E3EFDFC1227C7EFC39402748031
:1027C000948050027F0222C2D5E830E70FB2D5E4F0
:1027D000C39BFBE49AFAE499F9E498F8EC30E71724
:1027E000B2D51227FD120440E4C39BFBE49AFAE43D
:1027F00099F9E498F8800312044030D50DE4C39FA2
:10280000FFE49EFEE49DFDE49CFC228E308F318B24
:10281000328A338934E4FF7585C0E53125E0F5312E
:10282000E53033F530EFC39536E49535501DEF258F
:10283000E02531F58475868EAB32AA33A9348F82B8
:10284000758300E58E1201940F80DA22E4F55AF5C3
:102850005D755F01F566F568F567F559755801F521
:102860005CF55E854C64854D65F55B8550628551F0
:1028700063854F82854E8304F0A37460F085518296
:102880008550837401F0A37460F022439302539245
:10289000FD4393105392EF4393205392DF5393BF22
:1028A0005392BF43938053927F43970143960143D2
:1028B00097024396024397045396FB5397F7539618
:1028C000F74397105396EF22C0E0C0F0C083C08258
:1028D000C0D075D010758CC1758A80786D1203498F
:1028E000EF2401FFE43EFEE43DFDE43CFC786D1284
:1028F00003B51229A3D0D0D082D083D0F0D0E0325B
:10290000300E29C20E055AAF5AD3EF94FA74809450
:10291000804004755AFA22AF5AC3EF94C874809469
:10292000805005C29CC2B122D2B1D29C22E55D602A
:1029300024E55E655C701EE5D430E706AE4AAF4B19
:102940008004AE4CAF4D8E648F6585525CE4F55EBD
:10295000F55D53D4F32274FFFE786BE6FF08E69032
:102960000140CFF0A3EFF07B017A0179407D377C05
:10297000001221089001AEEEF0A3EFF002217D7568
:102980002838752900C2BCE4F593F5927590FFF5DF
:10299000E175E2067F64FE1229DBC2AFAA28A929ED
:1029A0000203FE900300E004F0E0C394647480949A
:1029B000804002E4F0900300E07002D20BD20E22BD
:1029C0008F31E531C4540F90300A93FF120003E5B4
:1029D00031540F90300A93FF020003EFFDEEFCED3F
:1029E0004C60117FE87E03122A5DE4F5FFED1D7057
:1029F000EE1C80EB2243C9F0758921758CC1758A64
:102A000080758DE6758BE6D28CD2A9227B007A0088
:102A1000792E75350075360212280BE52EFEE52F4E
:102A2000FF22EF1392971392B21392B4139294135E
:102A3000929513B39291228F45E545B40A057F0D17
:102A4000120003AF451200037F0022EFFDEEF59E5A
:102A5000439D02539DFD439D08EDF59B22EF4E6083
:102A60000D05A105A105A1EF1F70F21E80EF22EF59
:102A7000C39441400AEF945B5005EF2420FF2222CB
:102A800075A15575A1AA43B101E4F5A1F5FF22EFA7
:102A9000C394204007EF947F50028001C322300B83
:102AA0000AC20B300D05C20D1229562275FAE08FAD
:102AB000F930FBFDAFF9E4F5FA22438780759850B1
:102AC000C2ABD28ED2AC2275A15575A1AA43B1106A
:102AD000E4F5A12275FC08E4F5FA1227828FFB22A7
:102AE00075FAE08FF930FBFDE4F5FA22903FF9E446
:102AF00093D330E701C32212292D121C06021E8B2C
:102B000002249D200030782530345820000A00200F
:102B100042616420416472657373210A006D656DC2
:102B20007264205B68657820616464725D20526520
:102B30006164204D656D6F72792E0A0020577269AD
:102B40007465203078253032625820746F205852D6
:102B5000414D206164647265737320307825303490
:102B6000580A002042616420416472657373212019
:102B70000A006D656D7264205B686578206164642D
:102B8000725D205B686578206461745D20577269AE
:102B90007465204D656D6F72792E0A0072656164EF
:102BA000000A307825303458200025303458200071
:102BB00077726974650020777269746520307825B2
:102BC0003034580020746F20656570726F6D20611D
:102BD000646472657373203078253034582E2E2E3D
:102BE0000A006C6F6164004C6F61642066726F6DE7
:102BF00020496E742E20454550524F4D2E2E2E0AE0
:102C00000073617665005361766520746F20496EAC
:102C1000742E20454550524F4D2E2E2E0A006565CC
:102C200070726F6D205B6C6F61647C736176657C24
:102C3000726561647C77726974655D205B61646450
:102C4000725D205B646174615D204F7065726174B8
:102C50006520496E742E20454550524F4D2E0A0076
:102C60006563686F00204543484F3D25750A007530
:102C7000736E002055534E3D25750A0074636B003A
:102C800054434B3D25756B20434B53453D256275A1
:102C90000A00636C6B6F004D434C4B4F43523D3009
:102CA00078253034580A00746573740020544553F5
:102CB000543D25750A006C6564004C45443D2575FE
:102CC0000A0070776D0050574D3D25750A006374FA
:102CD000726C205B6563686F7C75736E7C74636B6C
:102CE0007C6C65645D205B706172616D5D20446524
:102CF00076696365204374726C2E0A002045434850
:102D00004F3D25752055534E3D25752054434B3D71
:102D100025756B0A00204C6F616420706172616DD3
:102D200065746572732066726F6D20454550524F11
:102D30004D2E2E2E0A00205361766520706172613F
:102D40006D657465727320746F20454550524F4D08
:102D50002E2E2E0A00726573746F72650020526504
:102D600073746F72652064656661756C7420706140
:102D700072616D65746572732E2E2E0A0070617219
:102D8000616D205B6C6F61647C736176657C7265DC
:102D900073746F72655D204F706572617465207029
:102DA0006172616D65746572732E0A00202D3E207C
:102DB0000069737000207265626F6F7420746F20F9
:102DC0004953502E2E2E0A00207265626F6F742EAA
:102DD0002E2E0A00205553422D426C617374657289
:102DE000207625752E25752E257520534E3A002503
:102DF00030326258000A204543484F2053747564AE
:102E0000696F203C6563686F2E786A747540676DE2
:102E100061696C2E636F6D3E2E20416C6C2052698F
:102E2000676874732052657365727665642E0A0054
:102E300020556E73656375726564204465766963B9
:102E400065210A0020536574204C6963656E7365C3
:102E50003D30782530386C580A00204C6963656E27
:102E600073653D30782530386C580A006374726C95
:102E700000656570726F6D00706172616D007265E2
:102E8000626F6F74007265626F6F74205B64656C53
:102E90006179206D735D2052657374617274207363
:102EA000797374656D2E0A0068656C700068656CD6
:102EB0007020496E666F2E0A0076657273696F6EB8
:102EC00000646973706C6179205357207665727362
:102ED000696F6E20616E6420534E2E0A006D656D21
:102EE0007264006D656D7772006C6963656E736501
:102EF000006C6963656E7365205B686578206C693A
:102F000063656E73655D20476574206F722053653D
:102F1000742070726F64756374206C6963656E737E
:102F2000652E0A001201000200000040FB0901604A
:102F300000040102030109022000010100804B0985
:102F400004000002FFFFFF020705810240000007A6
:102F5000050202400000040309040E0341006C0056
:102F600074006500720061001803550053004200B0
:102F70002D0042006C006100730074006500720057
:102F80000A060002FFFFFF400000000009FB60018D
:102F900004004B80001C02000E9418A212BA030E0B
:102FA0000041006C00740065007200610318005558
:102FB00000530042002D0042006C00610073007459
:102FC0000065007203120030003000300030003025
:102FD000003000300030030200014552425600002C
:102FE00000000000000000000000000000000000E1
:102FF00000000000000000000000000000000000D1
:103000000000000000000000CB2A3031323334359C
:103010003637383941424344454600BA745CB32CD4
:1030200009433B813C75F7D56089762432315FE0F6
:03303000BA438F11
:00000001FF
