:10000000020969C2EAE4F5E275E229F5E375D181F6
:1000100075D8FF75E18775ED0075EC0075DC02752C
:10002000EF0075EE4075D21275EA4075E50075E493
:100030008075D41075EB08D2EAF5DDF5D322120DE8
:020040009E22FE
:100043000207EBE51820E003020596E51930E0030B
:10005300020596E510B4100040030205779000678F
:10006300F82828730200970201DA0201F50202263A
:1000730002032602034E0203FE0203C002043702F8
:1000830004B00204C00202A60205770204D10205ED
:100093000302052BAF18EFC313FF547F2480F582AF
:1000A300E433F583E0FEF5201207C501901101A1A9
:1000B3001301901501A11701901901A11B01901DB6
:1000C30001A11F01903101903501903901A13B013C
:1000D300903D01A13F01A14B01A14F01A16B01A1E2
:1000E3006F0127800151810127820151830182849D
:1000F300018285012786017F8701828A01828B0124
:10010300828C01828D013B8E01408F01829401829A
:100113009501829601829701279C01279D01279EC5
:10012300000001B2751009E5185401FDEF04547F76
:1001330025E04DF51802057A75100D800375100E34
:10014300AF18EFC313FDEF5401FFED02056DAF18B8
:10015300EFC313FFEE2480FEAD19EDC313FCED5482
:1001630001FDEC547FFC04547F25E04DF5197440E8
:100173002CF582E433F583EEF002051B431A01AF3D
:1001830018EFC313FEEF5401FFEE02056D75100166
:10019300AF18EFC313FEEF5401FFEE02056D7510A8
:1001A30004AF18EFC313FEEF5401FFEE02056DAF6A
:1001B30019EFC313FEEF5401FFEE547FFE04547F87
:1001C30025E04FF51974402EF582E433F58374FA74
:1001D300F075100602057AAF18EFC313FF547F249E
:1001E30080F582E433F583E0751200F51305100200
:1001F300051BAF18EFC313FD547F2480F582E4334E
:10020300F583E0FEEE4212E5185401FFED04547F3E
:1002130025E04FF518300305051002057A75100B1C
:1002230002057AAF18EFC313547F2480F582E433B9
:10023300F583E0F527E4F528F526C297E527139221
:1002430095E527C313F527E528C313F528D297307F
:1002530096034328800526E526B408DEC2973005B9
:1002630022AF19EFC313FEEF5401FFEE547FFE04D8
:10027300547F25E04FF51974402EF582E433F5835E
:10028300E528F0E51345127004F5108008E5131511
:100293001370021512AF18EFC313FEEF5401FFEEF4
:1002A30002056DAF18EFC313547F2480F582E43346
:1002B300F583E0F527E4F528F526C297E527339281
:1002C30095E52725E0F527E52825E0F528D29730A1
:1002D30096034328010526E526B408DEC2973005B8
:1002E30022AF19EFC313FEEF5401FFEE547FFE0458
:1002F300547F25E04FF51974402EF582E433F583DE
:10030300E528F0E51345127004F5108008E5131590
:100313001370021512AF18EFC313FEEF5401FFEE73
:1003230002056DAF18EFC313FF547F2480F582E4F9
:1003330033F583E0F511300605751008800A3003A4
:10034300040510800375100702051BAF18EFC313D4
:10035300547F2480F582E433F583E0F527E4F52820
:10036300C297E527139295E527C313F527E528C31D
:1003730013F528D297309603432880AF111511EF58
:10038300D3940050DBC297300522AF19EFC313FE9D
:10039300EF5401FFEE547FFE04547F25E04FF5191F
:1003A30074402EF582E433F583E528F0E4F510AFCD
:1003B30018EFC313FEEF5401FFEE02056DAF18EF04
:1003C300C313547F2480F582E433F583E0F527C219
:1003D30097E527339295E52725E0F527D297AF11C7
:1003E3001511EFD3940050E7C297E4F510AF18EF5F
:1003F300C313FEEF5401FFEE02056DAF18EFC313F5
:10040300FF547F2480F582E433F583E0FEAD19EDDC
:10041300C313FCED5401FDEC547FFC04547F25E031
:100423004DF51974402CF582E433F583EEF0E4F5D1
:100433001002051BAF18EFC313547F2480F582E429
:1004430033F583E0F527E4F528E527339295C29742
:10045300E527139294E527C313F527E528C313F57E
:1004630028D297309603432880AF111511EFD39408
:100473000050DBC297300522AF19EFC313FEEF54D0
:1004830001FFEE547FFE04547F25E04FF5197440BD
:100493002EF582E433F583E528F0C294E4F510AF3A
:1004A30018EFC313FEEF5401FFEE02056D0510AF05
:1004B30018EFC313FEEF5401FFEE02056DE4F510D0
:1004C300AF18EFC313FEEF5401FFEE02056DAF1833
:1004D300EFC313547F2480F582E433F583E0F526DC
:1004E300C2970000D2970000AF261526EF70F1C225
:1004F30097F510AF18EFC313FEEF5401FFEE806AB8
:10050300AF18EFC313FF547F2480F582E433F583E0
:10051300E0751600F5170510E5185401FEEF0454B5
:100523007F25E04EF518804FAF18EFC313547F2497
:1005330080F582E433F583E0FEEE4216E4F526C24D
:10054300970000D29700000526E526B408F1E517C9
:100553001517AE16700215164E70E1C297F510AF5F
:1005630018EFC313FEEF5401FFEE04547F25E04F51
:10057300F5188003E4F510AF1AEFC313547FFFAEF1
:1005830018EEC313547FC39F40095318FE53180139
:1005930053D4F3E51920E053C313547FFFBF401234
:1005A30043190175D34053D2FCE51954014404F5B2
:1005B3001922C3E51D9515FFE51C9514FEC3EF95A0
:1005C3001BEE94005005E51A30E020851C14851DB0
:1005D30015431901AF19EFC313547FF5D353D2FC5D
:1005E300E51954014404F519531AFE22E709F608E4
:1005F300DFFA8046E709F208DFFA803E88828C83BF
:10060300E709F0A3DFFA8032E309F608DFFA80781E
:10061300E309F208DFFA807088828C83E309F0A390
:10062300DFFA806489828A83E0A3F608DFFA8058C0
:1006330089828A83E0A3F208DFFA804C80D280FAB1
:1006430080C680D4806980F28033801080A680EADF
:10065300809A80A880DA80E280CA803389828A8384
:10066300ECFAE493A3C8C582C8CCC583CCF0A3C875
:10067300C582C8CCC583CCDFE9DEE7800D89828AD9
:1006830083E493A3F608DFF9ECFAA9F0EDFB2289E2
:10069300828A83ECFAE0A3C8C582C8CCC583CCF0B8
:1006A300A3C8C582C8CCC583CCDFEADEE880DB897A
:1006B300828A83E493A3F208DFF980CC88F0EF60A9
:1006C300010E4E60C388F0ED2402B4040050B9F566
:1006D30082EB2402B4040050AF2323458223900607
:1006E3003F73BB010689828A83F0225002F722BB43
:1006F300FE01F32275F008758200EF2FFFEE33FE43
:10070300CD33CDCC33CCC58233C5829BED9AEC99E6
:10071300E58298400CF582EE9BFEED9AFDEC99FC88
:100723000FD5F0D6E4CEFBE4CDFAE4CCF9A88222CF
:10073300B800C1B90059BA002DEC8BF084CFCECDEF
:10074300FCE5F0CBF97818EF2FFFEE33FEED33FD28
:10075300EC33FCEB33FB10D703994004EB99FB0F0D
:10076300D8E5E4F9FA227818EF2FFFEE33FEED33E4
:10077300FDEC33FCC933C910D7059BE99A4007EC5C
:100783009BFCE99AF90FD8E0E4C9FAE4CCFB2275A3
:10079300F010EF2FFFEE33FEED33FDCC33CCC83337
:1007A300C810D7079BEC9AE899400AED9BFDEC9A99
:1007B300FCE899F80FD5F0DAE4CDFBE4CCFAE4C811
:1007C300F922D083D082F8E4937012740193700DF0
:1007D300A3A393F8740193F5828883E4737402935B
:1007E3006860EFA3A3A380DFC0E0C0F0C083C08232
:1007F300C0D075D008E5D95430FFBF1008051DE5FA
:100803001D7002051C20D903020915E5D9543F7058
:100813000302090E24E070030208AA14603124F1D4
:10082300603E242E600302091120DE03020911E554
:10083300D454F34408F5D4AFDBEF547F25E0FFE550
:100843001A54014FF51A531801431801020911757F
:10085300D300E5D254FC4402F5D25319FE02091128
:10086300E5DB64087039900000E0F529A3E0F52A80
:10087300900007E0FE900006E0FDEEF52BEDF52C71
:10088300E529546024E0600D24E0600E2440707E6E
:10089300120C3A807912003E8074120B08806F7537
:1008A3002AFF75DCCF8067E52954607061E52A244F
:1008B300FB604614704DC3E52C9440E52B9400AFC8
:1008C3002C40027F408F217E00AA2EA92F7BFF7828
:1008D300007C007D011206BF8521DD63DC40AF2172
:1008E3007E00C3E52C9FF52CE52B9EF52BEF252FE2
:1008F300F52FEE352EF52E8015E5E35480452CF5C6
:10090300E3800375DD0075DC02800343DC02C2D99A
:10091300804930D81D75DC0275D41275E300C2DA44
:10092300C2D9C2D8752D00120CCF120D64120D95C9
:10093300802930DA23C2DAE5DA30E21FE5A220E7C4
:10094300FB75A15575A1AA75A98143870275A155A8
:1009530075A1AA75A900800375D8FFD0D0D082D025
:1009630083D0F0D0E032787FE4F6D8FD75812F0292
:1009730009B0020CB4E493A3F8E493A34003F68014
:1009830001F208DFF48029E493A3F85407240CC888
:10099300C333C4540F4420C8834004F45680014633
:1009A300F6DFE4800B0102040810204080900D3D27
:1009B300E47E019360BCA3FF543F30E509541FFE5E
:1009C300E493A360010ECF54C025E060A840B8E4CF
:1009D30093A3FAE493A3F8E493A3C8C582C8CAC552
:1009E30083CAF0A3C8C582C8CAC583CADFE9DEE7E4
:1009F30080BE900003E024FE601614601E24FD6098
:100A030025240570307B007A007922120D6E801F39
:100A13007B007A007922120D8280147B007A0079A0
:100A230022120B8680097B007A007922120D788EC0
:100A33002E8F2F8003020D9EAF227E00D3E52C9FC5
:100A4300E52B9E40048E2B8F2CC3E52C9440E52B85
:100A53009400AF2C40027F408F23C3E52C9FF52CDD
:100A6300E52B9400F52BAA2EA92F7BFFAD23120DA6
:100A730015E523252FF52FE4352EF52E22900003BF
:100A8300E0FE900002E0FDEDFFE529541F24FE6027
:100A93000C2402706CEF64014E70668061EF4E703F
:100AA30060900005E0FE900004E0FDEDFFEE705164
:100AB300EF14604214602B1460142482602E1460BF
:100AC3001714703DE5D654BF4403F5D68030E5D600
:100AD300547F440CF5D68026E5D454BF4403F5D4A3
:100AE300801CE5D4547F440CF5D48012E5D254BF66
:100AF3004403F5D28008E5D2547F440CF5D2020DAD
:100B0300A5120D9E22E52A1207C50B64000B700186
:100B13000B70020B70030B70040B59050B70060B63
:100B230070070B72090B4F0A0B700B0B3B900B708A
:100B3300910B709200000B82900004E075F002A408
:100B430024ACF9740D35F0FA7BFF80107B007A003A
:100B5300791B7D0180087B007A00791E7D02020DDE
:100B630015900004E0B401035319FE800F800D902B
:100B73000004E0B40106900002E0F51B020DA5128B
:100B83000D9E22900002E014601A14602414602E5B
:100B93001460382404704174041206E575240E753C
:100BA30025E8803874121206E575240E7525EC804D
:100BB3002B74281206E575240E7525FE801E741A03
:100BC3001206E575240F7525268011741C1206E59F
:100BD30075240F7525408004E41206E5AE24AF2585
:100BE30022E529541F64027047900004E014603822
:100BF300146026146014248260241460121470306C
:100C0300E5D654BC4402F5D6802153D673801CE547
:100C1300D454BC4402F5D4801253D473800DE5D26E
:100C230054BC4402F5D2800353D2735319FE80039C
:100C3300020D9E120DA522E52AB40B005040900C24
:100C430048F8282873020C7B020C75020C81020CF5
:100C530078020C81020C6C020C69020C81020C6F8D
:100C6300020C72020C7E0209F5020D4D020D5902AF
:100C73000D8C020BE4020A80020C85020DA5120DF5
:100C83009E2278227C007D007BFF7A0F795C7E00B8
:100C93007F021206BF7B007A007922C3E52C9402FF
:100CA300E52B940040047D028004AF2CAD07020DB8
:100CB30015120CE71200039000407432F0A3746025
:100CC300F0D2AFE52D60FC12004680F75319FEE524
:100CD3001954014404F5195318FE531801531AFE0D
:100CE300531A012275A15575A1AAE5B954F8440513
:100CF300F5B9E4F5A17F05FE020CFEAD07AC06EDE8
:100D03004C600E7FE87E03120D2BED1D70F11C80ED
:100D1300EE228D24AF247E0078007C007D01120634
:100D2300BF8524DD75DCC022EF4E600D05A105A152
:100D330005A1EF1F70F21E80EF22021600000214BD
:100D43000000012000021E326000900002E0752BBB
:100D530000F52C020DA57B007A00792D7D01020D93
:100D630015E4F510F511F512F5132274121206E5C8
:100D73007E0E7FAC22740A1206E57E0E7FDE22749D
:100D8300201206E57E0E7FBE22900002E0F52D02C2
:100D93000DA5751B04E4F51CF51D22752AFF75DCF2
:100DA300CF22E4F5DD75DCC02201000304146000EA
:100DB30009800008000000A012B228DA1A0000001F
:100DC3000000000000000056000100C7926A35547D
:100DD3000100314A746167536D74320000000000F2
:100DE30000000000446967696C656E74204A5441D1
:100DF300472D534D54320000000000000000000056
:100E030000130000000000000000000000000000CC
:100E130000000000000000000000000000000000CF
:100E230000000000000000000000000000000000BF
:100E33000000004800000000000000000000000067
:100E43000000000000000000001203440069006776
:100E53000069006C0065006E00740028034400699B
:100E630000670069006C0065006E00740020005587
:100E730000530042002000440065007600690063CF
:100E83000065001A033200310030003200350031B2
:100E93000041003000380038003700300002030002
:100EA300000000000000009887120100020000000B
:100EB3004003041460000901020301090220000138
:100EC300010080320904000002FFFFFF02070581D1
:100ED30002400000070502024000000A060002006B
:100EE3000000400000040309041203440069006782
:100EF3000069006C0065006E0074002803440069FB
:100F030000670069006C0065006E007400200055E6
:100F1300005300420020004400650076006900632E
:100F23000065001A03320031003000320035003111
:100F3300004100300038003800370030001C034304
:100F43000048003500350032002D004A00540041AE
:0B0F5300004700200076003100000085
:00000001FF
