:1000000002185C8F993099FDC29922022008EF13E3
:1000100092971392B21392B413929413929513B3CE
:10002000929122021AED8F30E530C4540F9028B11E
:1000300093FF120003E530540F9028B193FF0200A4
:0100400003BC
:100043000220A8E5D9543F70030204FC24FE60217A
:1000530024E2700302049124F0602C240F60030255
:100063000502E4F5D3E5D254FC4402F5D2754F0101
:100073002220DE03020502787EA6DBE5D454F34496
:1000830008F5D4754D0122E5DC54036403700215B1
:10009300DCAFDB7522008F23E52364084522600370
:1000A300020466900007E0FE900006E0FDEEF559BD
:1000B300EDF55AD3E55A947FE559940040067559F6
:1000C30000755A7FE4F522F523900000E0F55BA369
:1000D300E0F55CE55B546070030201B1E55B30E77A
:1000E30067E55C24FB604324FB6025247A704A9017
:1000F3000004E0543FF52425E02431F582E434285C
:10010300F583E493FC740193900000F0ECA3802347
:10011300900004E0640270067886E6FF8004787F2E
:10012300E6FF900000EFF002030F9000007401F06F
:10013300A37460F07522008009E4900000F0A3F03E
:10014300F52275230202046CE55C246F605314608E
:10015300372492B40C004003020466900165F8282A
:10016300287302018902018B02018B02018B0201B8
:100173008B0201AE02018B02018B0201AE02018DE3
:100183000201AE02018B801B8019900004E0640120
:100193009000027006E0787FF68004E07886F680AF
:1001A30002D20AE4F522F52302046C020466E55C3C
:1001B300B40B0040030204649001C2F828287302C0
:1001C30004420203210204640203A0020464020243
:1001D300EF0201E30204640202FB02031802046C4F
:1001E300900003E024FE602614604024FD700302A7
:1001F3000285240560030202877569FF756A277506
:100203006BCB9027CBE493752200F523807C756933
:10021300FF756A27756BDD9027E0E493FE9027DF77
:10022300E493FDEEF522EDF523805F900002E014E8
:10023300601B146029146037240370357569FF75DA
:100243006A27756BFD752200752304803D7569FF70
:10025300756A28756B0175220075230E802C7569EC
:10026300FF756A28756B0F752200752318801B8034
:1002730000756901756A02756BDF752200752312BB
:10028300800880007522007523FFD3E55A9523E586
:10029300599522400685225985235AE523F44522A0
:1002A300700302046CC3E55A9440E5599400400678
:1002B3007E007F408004AE59AF5A8E228F23740094
:1002C300F87400FC7401FDAB69AA6AA96B12092FCB
:1002D300C3E55A9523F55AE5599522F559E52325A2
:1002E3006BF56BE522356AF56A02046C900002E057
:1002F300755900F55A02046C900000E566F0C3E5F9
:100303005A9401E5599400500302046C7522007558
:10031300230102046C900002E0F56602046CE55BC5
:10032300541FFD7C007020900003E0FE900002E06B
:10033300FBEB64014E700D9027E49330E503020458
:100343006C020466020466ED64024C704D90000476
:10035300E014603D14602914601524826028146041
:1003630014147033E5D654BC4402F5D602046C531E
:10037300D67302046CE5D454BC4402F5D402046C75
:1003830053D47302046CE5D254BC4402F5D2020484
:100393006C53D27302046C020466020466E55B5478
:1003A3001FFD7C007020900003E0FE900002E0FB44
:1003B300EB64014E700D9027E49330E50302046C67
:1003C300020466020466ED64024C7071900003E05F
:1003D300FE900002E0FDED4E7061900005E0FE909E
:1003E3000004E0FDEDFFEE7050EF14604214602B4B
:1003F3001460142482602E14601714703CE5D654E4
:10040300BF4403F5D68062E5D6547F440CF5D6800D
:1004130058E5D454BF4403F5D4804EE5D4547F4407
:100423000CF5D48044E5D254BF4403F5D2803AE5B9
:10043300D2547F440CF5D28030802880268024E477
:10044300900000F0A3F0C3E55A9402E559940040EC
:10045300067E007F028004AE59AF5A8E228F23801E
:100463000880007522007523FFE523F445227007F9
:10047300755CFF75DCCF22D3E5239440E52294001D
:1004830050058523DD8003E4F5DD75DCC022E55BE3
:1004930054606002805EE55C24FB604E147055C3BB
:1004A300E55A9440E559940040067E007F4080045D
:1004B300AE59AF5A8E228F237400F87400FC740176
:1004C300FDAB69AA6AA96B12092FC3E55A9523F5F7
:1004D3005AE5599522F559E523256BF56BE5223548
:1004E3006AF56A8523DD63DC4022E5E35480455ADF
:1004F300F5E38008E4F5DD8003E4F5DD75DC022235
:10050300E53F2433F8E6053F22783030070278339D
:10051300E475F001120AE80209552000EB7F2ED2A0
:10052300008018EF540F2490D43440D4FF30040BD0
:10053300EF24BFB41A0050032461FFE540600215A5
:10054300400543E5437002054230070D7830E475FA
:10055300F001120AE8EF02099B0223E17403D207B8
:100563008003E4C207F53F8B308A318932E4F540DA
:10057300F542F543E54060077F2012053E80F5759F
:1005830041FFC201C200C202C203C205C206C208C1
:1005930012050CFF700D3007057F0012054FAF43A6
:1005A300AE4222B4255FC2D5C20412050CFF24D08B
:1005B300B40A00501A75F00A784030D50508B6FF22
:1005C3000106C6A426F620D5047002D20380D924DE
:1005D300CFB41A00EF5004C2E5D20402074FD20190
:1005E30080C6D20080C0D20280BCD2D580BAD205E8
:1005F30080B47F2012053E2002077401B5400040FD
:10060300F1120503FF12053E020577D208D20680D8
:1006130095120503FB120503FA120503F94A4B7001
:100623000679207A087BFF20022EE540602A7E00AF
:100633008E8275830012096E60060EEE654170F0BE
:10064300C2D5EBC0E0EAC0E0E9C0E0EE120796D005
:10065300E0F9D0E0FAD0E0FB120955FF60AAEBC045
:10066300E0EAC0E0E9C0E012053ED0E02401F9D0A1
:10067300E03400FAD0E0FBE5410460DCD541D980E9
:10068300877BFF7A077992D202809C791080027966
:1006930008C206C2088008D2D5790A8004790AC242
:1006A300D5E541047002F541E4FAFDFEFF120503AE
:1006B300FC7B08200113120503FD7B1030000A1296
:1006C3000503FE120503FF7B20EC3382D592D55040
:1006D30013C3E43000069FFFE49EFEE42001039D64
:1006E300FDE49CFCE4CBF8C201EC700CCFCECDCC86
:1006F300E824F8F870F38017C3EF33FFEE33FEED11
:1007030033FDEC33FCEB33FB994002FB0FD8E9EBF1
:10071300300105F8D0E0C448B201C0E00AEC4D4E08
:100723004F78207B0070C2EAB5410040BCC0E012A4
:100733000798D0F0D0E0200104C4C0E0C4B201C0E7
:10074300F0120527D0F0D5F0EB020577120B470620
:100753001453068E5805E54C05E14206924F069A5E
:1007630044069A4905FA4306A0550684460684457D
:1007730006844708405005E92D05ED2E06102B058C
:10078300F123060E2008292A05A948000006083F80
:100793003F3F00790AA2D5200314300509B910029E
:1007A3000404B9080104A2D5200602500104200262
:1007B300689202B540005034C0E07F203003197FB7
:1007C30030A20272067205500F1207EFC202C20670
:1007D300C205C2087F30800F300503E9C0E012056F
:1007E3003E300503D0E0F9D0E0B540CC3005177FAB
:1007F30030B9100C12053E7F583004077F78800310
:10080300B9080312053E3002057F2D02053E7F2005
:100813002008F87F2B2006F322920280CF286E75E2
:100823006C6C2900D2011205033001F8C201784033
:1008330030D50108F60205A92D5043495812050386
:100843002403B405004001E490083B9312052F7480
:100853003A12052FD20375400402068EE709F60803
:10086300DFFA8046E709F208DFFA803E88828C834C
:10087300E709F0A3DFFA8032E309F608DFFA8078AC
:10088300E309F208DFFA807088828C83E309F0A31E
:10089300DFFA806489828A83E0A3F608DFFA80584E
:1008A30089828A83E0A3F208DFFA804C80D280FA3F
:1008B30080C680D4806980F28033801080A680EA6D
:1008C300809A80A880DA80E280CA803389828A8312
:1008D300ECFAE493A3C8C582C8CCC583CCF0A3C803
:1008E300C582C8CCC583CCDFE9DEE7800D89828A67
:1008F30083E493A3F608DFF9ECFAA9F0EDFB228970
:10090300828A83ECFAE0A3C8C582C8CCC583CCF045
:10091300A3C8C582C8CCC583CCDFEADEE880DB8907
:10092300828A83E493A3F208DFF980CC88F0EF6036
:10093300010E4E60C388F0ED2402B4040050B9F5F3
:1009430082EB2402B4040050AF2323458223900892
:10095300AF73BB010689828A83E0225002E722BB80
:10096300FE02E32289828A83E49322BB010CE5829F
:1009730029F582E5833AF583E0225006E92582F8DA
:10098300E622BBFE06E92582F8E222E58229F5820A
:10099300E5833AF583E49322BB010689828A83F0D7
:1009A300225002F722BBFE01F322F8BB010DE582C0
:1009B30029F582E5833AF583E8F0225006E925829A
:1009C300C8F622BBFE05E92582C8F222BC000BBE95
:1009D3000029EF8DF084FFADF022E4CCF875F00828
:1009E300EF2FFFEE33FEEC33FCEE9DEC984005FC5D
:1009F300EE9DFE0FD5F0E9E4CEFD22EDF8F5F0EE25
:100A03008420D21CFEADF075F008EF2FFFED33FD0F
:100A13004007985006D5F0F222C398FD0FD5F0EAAF
:100A230022BB0110E58229F582E5833AF583E0F5DF
:100A3300F0A3E0225009E92582F886F008E622BBFC
:100A4300FE0AE92582F8E2F5F008E222E5832AF5B9
:100A530083E993F5F0A3E99322EB9FF5F0EA9E4235
:100A6300F0E99D42F0E89C45F022E6FC08E6FD082B
:100A7300E6FE08E6FF22ECF608EDF608EEF608EFD0
:100A8300F6228A838982E473E88FF0A4CC8BF0A4E6
:100A93002CFCE98EF0A42CFC8AF0EDA42CFCEA8E4D
:100AA300F0A4CDA8F08BF0A42DCC3825F0FDE98F70
:100AB300F0A42CCD35F0FCEB8EF0A4FEA9F0EB8F67
:100AC300F0A4CFC5F02ECD39FEE43CFCEAA42DCE34
:100AD30035F0FDE43CFC22C3E49FFFE49EFEE49D6D
:100AE300FDE49CFC22FAE6FB0808E6F925F0F6187B
:100AF300E6CA3AF622BB011A89828A83D0F0D0E093
:100B0300F8D0E0F9D0E0FAD0E0FBE8C0E0C0F002B2
:100B13000B765016E9F8D083D082D0E0F9D0E0FA12
:100B2300D0E0FBC082C083020B6DBBFE16E9F8D098
:100B330083D082D0E0F9D0E0FAD0E0FBC082C0835A
:100B4300020B7F22D083D082F8E493701274019356
:100B5300700DA3A393F8740193F5828883E47374EF
:100B630002936860EFA3A3A380DFEBF608EAF6081D
:100B7300E9F622EBF0A3EAF0A3E9F022EBF208EAAC
:100B8300F208E9F222E5704571456F7003020DC862
:100B93007530FF7531257532A2AB6FAA70A971123A
:100BA30018F6EA494B6046E57345744572602D7546
:100BB3002A00752B00752C00752D0AAB72AA73A938
:100BC30074121164EF5401FFEF5401FF7884E6FCC3
:100BD30008E654FEFDEC18F6ED4F08F67BFF7A2588
:100BE30079A77533007885E65401020CB17530FF9F
:100BF3007531257532B1AB6FAA70A9711218F6EA77
:100C0300494B6060E57345744572603A752A007517
:100C13002B00752C00752D0AAB72AA73A9741211DF
:100C230064EF5401FFEF5401C4F8540FC868FFE4A4
:100C3300C454F048FE7884E6FC08E654EFFDEC4E1D
:100C430018F6ED4F08F67984E7C4F854F0C809E7BD
:100C5300C4540F487533005401F5347BFF7A25796A
:100C6300B5020E007530FF7531257532BEAB6FAA24
:100C730070A9711218F6EA494B6038E5734574455B
:100C830072601D753300753400753500753610AB11
:100C93006FAA70A971120FC0900144E4F0A3EFF0A2
:100CA3007BFF7A2579C3900144E0F533A3E0F53463
:100CB300020E007530FF7531257532D3AB6FAA7004
:100CC300A9711218F6EA494B6053E57345744572EE
:100CD3006033752A00752B00752C00752D0AAB72D5
:100CE300AA73A974121164EF5401FFEF540125E0B4
:100CF300FFE433FE7884E6FC08E654FDFDEC4E1871
:100D0300F6ED4F08F67984E7C31309E7137533004B
:100D13005401F5347BFF7A2579D8020E007530FF34
:100D23007531257532E2AB6FAA70A9711218F6EA14
:100D3300494B6038E57345744572601D7533007522
:100D4300340075350075360AAB72AA73A974120F95
:100D5300C0900142EEF0A3EFF07BFF7A2579E69095
:100D63000142E0F533A3E0F534020E007530FF7560
:100D730031257532EEAB6FAA70A9711218F6EA49E4
:100D83004B603AE5734574457260207533007534E2
:100D93000075350075360AAB72AA73A974120FC0B9
:100DA300900146EEF0A3EFF012241A7BFF7A257927
:100DB300F2900146E0F533A3E0F53480407BFF7AFF
:100DC3002579FA80387BFF7A2579FA120565753320
:100DD300007885E65401F5347984E7C4F854F0C803
:100DE30009E7C4540F487535005401F536900142A4
:100DF300E0F537A3E0F5387BFF7A267927120565FE
:100E030022E4F527F528F529F52AF52BF52CE570CD
:100E13004571456F7003020FB67530FF7531247548
:100E230032DEAB6FAA70A9711218F6EA494B700350
:100E3300020ECAE573457445727003020FBF753322
:100E430000753400753500753610AB72AA73A9743A
:100E5300120FC08E278F28E4F52BF52CE528252CBF
:100E6300FFE527352BFED3EF943EEE9400504FE57C
:100E73002C5407700D7BFF7A2479E38E338F341261
:100E830005657BFF7A2479ECE528252CFFE52735DA
:100E93002BFEEF25E0FFEE33FE74402FF582740145
:100EA3003EF583E0F533A3E0F534120565052CE543
:100EB3002C7002052BD3943EE52B9400409E7BFFC0
:100EC3007A2479AF020FBC7530FF7531247532F285
:100ED300AB6FAA70A9711218F6EA494B7003020F9F
:100EE3006AE573457445727003020FBFE576457773
:100EF30045757003020FBF753300753400753500F7
:100F0300753610AB72AA73A974120FC0E4F5278F5C
:100F130028F533F534F535753610AB75AA76A97710
:100F2300120FC0EFFDEEFCE52825E0FFE52733FEB9
:100F330074402FF58274013EF583ECF0A3EDF07B52
:100F4300FF7A2479F874402FF58274013EF583E02B
:100F5300F533A3E0F5341205657BFF7A2579068521
:100F6300273385283480527530FF75312575322437
:100F7300AB6FAA70A9711218F6EA494B600B121DE8
:100F8300EE7BFF7A25792980307530FF7531257521
:100F93003243AB6FAA70A9711218F6EA494B600B82
:100FA300121C507BFF7A257948800E7BFF7A2579C6
:100FB3006080067BFF7A257960120565228B308A73
:100FC300318932E4F53CF53BF53AF539F537F53837
:100FD300E534453545336012EBC0E0EAC0E0E9C0D3
:100FE300E0AB33AA34A935120AF8AB300532E53247
:100FF300AA317002053114F9120955F53DC394095C
:101003004007E53DD3940D40E1E53D642060DBE519
:101013003DB42D054338038016E53DB42B05433815
:1010230001800C74FF2532F53274FF3531F531E55B
:101033003660046410703FAB30AA31A932120955EF
:1010430064306009E536702E75360A8029900001F8
:1010530012096EFF64786004EFB4581343380175C6
:10106300361074022532F532E43531F5318007E567
:10107300367003753608AB300532E532AA3170029B
:10108300053114F9120955F53DC39461400AE53D54
:10109300D3947A5003533DDF74D0253DF53DC3947B
:1010A3000A400CE53D9411406D74F9253DF53DE58D
:1010B3003DC395365060433801853C41853B4085AF
:1010C3003A3F85393EAF367E00E4FCFDAB3CAA3B9C
:1010D300A93AA839120A8BC8ECC8C9EDC9CAEECA25
:1010E300CBEFCBE4FCFDFEEB253DF53CEE3AF53BC7
:1010F300ED39F53AEC38F539AF3CAE3BAD3AFCABE4
:1011030041AA40A93FA83ED3120A5C5003021079BA
:10111300433804021079E53820E003E4802DE534F8
:1011230045354533601EAB30E53224FFF9E53134F4
:10113300FFFAEBC0E0EAC0E0E9C0E0AB33AA34A9B0
:1011430035120AF8E53830E20774FFFFFEFDFC2292
:10115300E538AF3CAE3BAD3AAC3930E103020ADAD5
:10116300228B278A288929E4F533F532F531F530C6
:10117300F52EF52FE52B452C452A6012EBC0E0EA4E
:10118300C0E0E9C0E0AB2AAA2BA92C120AF8AB27CE
:101193000529E529AA287002052814F9120955F52D
:1011A30034C394094007E534D3940D40E1E5346436
:1011B3002060DBE534B42D05432F038016E534B4FA
:1011C3002B05432F01800C74FF2529F52974FF3566
:1011D30028F528E52D60046410703FAB27AA28A9E1
:1011E3002912095564306009E52D702E752D0A808A
:1011F3002990000112096EFF64786004EFB458135C
:10120300432F01752D1074022529F529E43528F59E
:10121300288007E52D7003752D08AB270529E529DF
:10122300AA287002052814F9120955F534C39461EC
:10123300400AE534D3947A50035334DF74D0253411
:10124300F534C3940A400CE5349411405374F925E2
:1012530034F534E534C3952D5046432F01AF2D7E2D
:1012630000E4FCFDAB33AA32A931A830120A8BC8C3
:10127300ECC8C9EDC9CAEECACBEFCBE4FCFDFEEB6B
:101283002534F533EE3AF532ED39F531EC38F530F6
:10129300AF33AE32AD31FC335080432F0402121D05
:1012A300E52F20E006E4FFFEFDFC22E52B452C455F
:1012B3002A601EAB27E52924FFF9E52834FFFAEB62
:1012C300C0E0EAC0E0E9C0E0AB2AAA2BA92C120ACD
:1012D300F8E52F30E21230E107E4FFFEFD7C8022C7
:1012E30074FFFFFEFD7C7F22E52FAF33AE32AD31BD
:1012F300AC3030E103020ADA22021A00000218FFBE
:10130300FF02672B68048700000000C10CC109C1FC
:101313000B0262004002640080025E00C0026001B2
:101323000002800000017F04018604017E00C10ADF
:101333000282000001660003690000005202DF120E
:101343000346004600460046004600460046004667
:1013530000015D00014A00014D00014F01015100F0
:10136300015000015600015800015700036C0000B2
:1013730000036F000000037200000003750000000B
:101383000378000000603F02A0FF2754FF25FAFF07
:101393000B88FF2759FF2560FF0E04FF2760FF26F8
:1013A300A7FF19F8FF2766FF276DFF2142FF27904C
:1013B300FF2795FF1A73FF27A1FF27A9FF1FB1FF7F
:1013C30027C5FF24BFFF157A017B07C10D017C00F0
:1013D300017D0060200240000000000000000000CA
:1013E30000000000000000000000000000000000FA
:1013F30000000000000000604002600000000000E8
:1014030000000000000000000000000000000000D9
:1014130000000000000000000000000000000000C9
:1014230000000000000000000000000000000000B9
:10143300000000000000000000000000E4F5272089
:101443000D03021579752BFF752C24752DA57B01D2
:101453007A0279601219788B6C8A6D896EEA494B2E
:10146300606F752BFF752C24752DA57B007A007991
:10147300001219788B6F8A708971EA494B60527533
:101483002BFF752C24752DA57B007A00790012198A
:10149300788B728A738974EA494B6035752BFF75B3
:1014A3002C24752DA57B007A0079001219788B7591
:1014B3008A768977EA494B6018752BFF752C24755A
:1014C3002DA57B007A0079001219788B788A7989A7
:1014D3007AE4F527E527C3957B502F75F009E527B7
:1014E300A424A0F582E5F03402F583E0FBA3E0FA3F
:1014F300A3E08B308A31F532AB6CAA6DA96E12185A
:10150300F6EA494B7004052780CAE527C3957B504B
:101513003675F009E527A424A6F582E5F03402F533
:1015230083E0FBA3E0FAA3E0F9EA494B601975F005
:1015330009E527A424A6F582E5F03402F583A3E0A8
:10154300FAA3E0F9120A85756C00756D00756E00DB
:10155300756F007570007571007572007573007595
:101563007400757500757600757700757800757968
:1015730000757A00C20D22E4F527F528F529F52A2E
:10158300F52BF52CF52DF52EF52FE5704571456FEF
:1015930070030216AA75330075340075350075366D
:1015A30010AB6FAA70A971120FC08E278F28E52880
:1015B300452770030216A28E298F2AE4F52CF52DF8
:1015C3007BFF7A2479A7E52DC4F8540FC868FFE59B
:1015D3002CC454F048FEE5282FF534E5273EF533B7
:1015E300120565E4F52EF52FE52DC4F8540FC868F0
:1015F300FFE52CC454F048FEE52F2FFFE52E3EFEF9
:10160300E52A2FF582E5293EF583E493F52BFF12B6
:1016130000267F20120003052FE52F7002052EC33D
:101623009410E52E940040C0E4F52EF52FE52DC46B
:10163300F8540FC868FFE52CC454F048FEE52F2F7B
:10164300FFE52E3EFEE52A2FF582E5293EF583E4EC
:1016530093F52BFF7E00C3942074809480400CD3B9
:10166300EF947E74809480500280027F2E120003D8
:10167300052FE52F7002052EC39410E52E9400402C
:10168300AC7BFF7A2479AF120565052DE52D700239
:10169300052CC39410E52C940050030215C3227B40
:1016A300FF7A2479B180067BFF7A2479BF1205651E
:1016B300228F26E4F57CAF2612246F5038AF7C05C9
:1016C3007C74402FF582E43402F583E526F0AF7D88
:1016D300C3EF9440748094804003021792AF2612A4
:1016E300244FAE7D057D74602EF582E43402F583CC
:1016F300EFF0021792E52664087043AF7C057C7413
:10170300402FF582E43402F5837408F0AF7C057C46
:1017130074402FF582E43402F5837420F0AF7C0526
:101723007C74402FF582E43402F5837408F0AF7DB6
:10173300D3EF9400748094804055157D8051E52645
:10174300640D704BAF7C057C74402FF582E434024A
:10175300F583740DF0AF7C057C74402FF582E4347F
:1017630002F583740AF0AF7DC3EF944074809480D4
:101773005016AF7D057D74602FF582E43402F58346
:10178300E4F0F57DD20D8007E490029FF0F57DAF84
:101793007CC3EF9440748094804003E4F57C22E59D
:1017A3004EC3954C400302185BC3E54B943D7480D4
:1017B3009480400302185BAF4E054EE5552FF5822A
:1017C300E43554F583E0F527E5567058E52754C012
:1017D300604AE5275480F558E5275440F557E55806
:1017E3006008E527543FF556802DE5576029AF275C
:1017F30012000EA2B3E43325E0FFA296E4334FFFB9
:10180300AE4B054BEE2402FDE433FCE5532DF5828C
:10181300E5523CF583EFF0E4F54A8083AF271200ED
:101823000E0217A2E5576026AF27309405121EFF5C
:101833008003121EA4AE4B054BEE2402FDE433FCE1
:10184300E5532DF582E5523CF583EFF08005AF2794
:1018530012224B15560217A222787FE4F6D8FD9088
:1018630000007F007E04E4F0A3DFFCDEFA75818ACA
:101873000218B1021F5AE493A3F8E493A34003F6BA
:101883008001F208DFF48029E493A3F85407240CC1
:10189300C8C333C4540F4420C8834004F4568001A2
:1018A30046F6DFE4800B010204081020408090120A
:1018B300FCE47E019360BCA3FF543F30E509541F51
:1018C300FEE493A360010ECF54C025E060A840B8A6
:1018D300E493A3FAE493A3F8E493A3C8C582C8CA24
:1018E300C583CAF0A3C8C582C8CAC583CADFE9DEF7
:1018F300E780BE8B2D8A2E892FAB30AA31A93212F5
:1019030009556063AB2DAA2EA92F120955605F8577
:1019130030338531348532358B368A378938AB336A
:10192300AA34A935120955FF6023AB36AA37A93863
:101933001209556F7017042535F535E43534F53440
:1019430074012538F538E43537F53780D1AB33AA40
:1019530034A9351209557002800D7401252FF52F16
:10196300E4352EF52E809DAB2DAA2EA92F227B00C8
:101973007A007900228B288A29892AE94A4B70093F
:10198300851C28851D29851E2AE52A452945287099
:1019930002802C852B31852C32852D33AB28AA2947
:1019A300A92A121D30EF252AF52AEE3529F529AB90
:1019B30028FAA92A120955700AF51CF51DF51EFB14
:1019C300FAF922852B31852C32852D33AB28AA29B0
:1019D300A92A121D918B1C8A1D891EEA494B600E90
:1019E300E412099B04251EF51EE4351DF51DAB28E5
:1019F300AA29A92A22E5704571456F60697530FFF0
:101A0300753125753224AB6FAA70A9711218F6EAE5
:101A1300494B600C7BFF7A26793F120565022355FB
:101A23007530FF753125753243AB6FAA70A97112FA
:101A330018F6EA494B600C7BFF7A2679601205653C
:101A4300D20B227530FF75312675327FAB6FAA70CA
:101A5300A9711218F6EA494B7BFF600C7A26798745
:101A6300120565021E497BFF7A2679A712056522B6
:101A7300E4F527F527C3E52794067480948050691D
:101A830075F009E527A424A6F582E5F03402F58371
:101A9300E0FBA3E0FAA3E0F9EA494B60487BFF7A55
:101AA3002479A512056575F009E527A424A0F5821C
:101AB300E5F03402F583E0FBA3E0FAA3E0F91205B5
:101AC300657BFF7A2679D612056575F009E527A4AB
:101AD30024A3F582E5F03402F583E0FBA3E0FAA347
:101AE300E0F91205650527808C22C0E0C0F0C083B1
:101AF300C082C0D0E8C0E0E9C0E0EAC0E0EBC0E0EB
:101B0300ECC0E0EDC0E0EEC0E0EFC0E030982BAFFA
:101B1300991216B4752500E525C3957C501A78856E
:101B2300E630E01474402525F582E43402F583E0C1
:101B3300FF120003052580DFC298309902C299D0B5
:101B4300E0FFD0E0FED0E0FDD0E0FCD0E0FBD0E051
:101B5300FAD0E0F9D0E0F8D0D0D082D083D0F0D062
:101B6300E032E54F6071854B27E4F54BAF27FED399
:101B7300EF943E74809480400575273E802DEF4E90
:101B830070297887120A6DC3EF9549FFEE9548FED9
:101B9300ED9547FDEC9546FCE47B0AFAF9F8D31280
:101BA3000A5C4007E545602FE4F5457887120A6D26
:101BB3008F498E488D478C46E4F54FE5D230E606D3
:101BC300AE62AF638004AE64AF658E528F53E52778
:101BD3002402F5D353D2FC228B2D8A2E892F8C30ED
:101BE3008D31E4FDFC74FFF532F533E4F534F5355E
:101BF300C3ED9531EC9530504FED25E0FFEC33AB61
:101C03002DAA2EA92F8F82F583120A24AEF06233F8
:101C1300EE6232E4FAFB753400E5335401F535E541
:101C230032C313F532E53313F533E5354534600636
:101C33006333016332A00BBB00010AEB64084A70F3
:101C4300D50DBD00010C80A8AE32AF33227B017AE3
:101C53000179407D3E7C00121BDB8E188F19E4FD59
:101C6300FCFFFE122378AD19AC187F027E0012230D
:101C730078E4F51AF51BE51B25E0FDE51A33FCEDC9
:101C83002404FFE43CC0E0EFC0E074402DF582740F
:101C9300013CF583E0FCA3E0FDD0E0FFD0E0FE12C1
:101CA3002378051BE51B7002051AC3943EE51A94BD
:101CB3000040C39001BCE518F0A3E519F0AE18FF8E
:101CC300228E2F8F308B318A32893375A15575A1BE
:101CD300AA43B104E4F5A17585C0E53025E0F530EC
:101CE300E52F33F52FE4FFEFC39535E495345030FA
:101CF300EF25E02530F584AB31AA32A9338F827505
:101D0300830012096EF58EE58630E60375869AE543
:101D1300866440D39400748094804001220F80C76E
:101D230075A15575A1AA53B1FBE4F5A1228B2E8AA7
:101D33002F8930E4F534F535E4FEFFAB31AA32A93F
:101D4300338F828E8312096EFD6013AB2EAA2FA9E7
:101D5300301209556D60070FBF00010E80DDAB31F6
:101D6300AA32A9338F828E8312096E7002801A05FC
:101D730035E53570020534AB2E0530E530700205CC
:101D83002FF9AA2F12095570AFAE34AF35228B2E1F
:101D93008A2F8930853134853235853336AB34AA81
:101DA30035A936120955FF6019AB2EAA2FA9301297
:101DB30009556F600D74012536F536E43535F53573
:101DC30080DBAB34AA35A9361209556007AB2EAABE
:101DD3002FA93022AB2E0530E530AA2F7002052F34
:101DE30014F912095570ADFBFAF922E4F51AF51B43
:101DF300E51B25E0FFE51A33FEEF2404FFE43EFE76
:101E03001223CBEEFCEFFDE51B25E0FFE51A33FEC5
:101E130074402FF58274013EF583ECF0A3EDF005D9
:101E23001BE51B7002051AC3943EE51A940040C0DB
:101E33007F027E001223CB8E188F199001BCE51808
:101E4300F0A3E519F022E4FFEFC39440748094807B
:101E53005014EF25E02440F582E43401F58374FF48
:101E6300F0A3F00F80E2E47884F608F6E64401F686
:101E7300E654FDF6E654FBF6E64408F6E654EFF6C0
:101E830018E6FF08E6900140CFF0A3EFF0A3E4F0DB
:101E9300A37464F0E4A3F0A3F0A304F0A37480F0AC
:101EA30022EF139295A2B3D2972313C2971392955D
:101EB300A2B3D2972313C297139295A2B3D29723B7
:101EC30013C297139295A2B3D2972313C297139277
:101ED30095A2B3D2972313C297139295A2B3D29725
:101EE3002313C297139295A2B3D2972313C29713C6
:101EF3009295A2B3D2972313C297FF22EF13929521
:101F0300A296D2972313C297139295A296D29723A0
:101F130013C297139295A296D2972313C297139243
:101F230095A296D2972313C297139295A296D2970E
:101F33002313C297139295A296D2972313C2971392
:101F43009295A296D2972313C297139295A296D2F3
:101F5300972313C297FF221224087F0A7E001223BD
:101F6300981224A2121DEE1223554006121E491286
:101F730022E012243E12220E1223F51221887885C4
:101F8300E630E4031220591220F7122460D2AFD2B4
:101F93009112143F12230912247EE4F5FFE56660D3
:101FA30003122499300AEAC20A12233180E3E4F5CA
:101FB300277BFF7A2679FEE567C313753300547FC9
:101FC300F5347805AE67E568CEC313CE13D8F9753B
:101FD3003500540FF536753700E568541FF5381290
:101FE3000565E4F527C3E527940574809480500CB8
:101FF300AF27122285120026052780E97BFF7A2767
:102003007919020565C0E0C0F0C083C082C0D075F5
:10201300D010758CC1758A807887120A6DEF240100
:10202300FFE43EFEE43DFDE43CFC7887120A797848
:102033008306E618700106C37883E6940518E694D0
:1020430000400576000876001223B2D0D0D082D0AB
:1020530083D0F0D0E032E4F527F5279002DFE024C7
:10206300FE1313543FFEE527C39E5038AF271222B9
:1020730085EFC4540F9028B193FEE52725E025E0B2
:10208300FD24E1F582E43402F583EEF0EF540F9082
:1020930028B193FE74E32DF582E43402F583EEF068
:1020A300052780B722C0E0C0F0C083C082C0D075CE
:1020B300D00830D907120046C2D9802D30D81B75FD
:1020C300DC0275D21275D41075E300C2DAC2D9C22C
:1020D300D8756600787E7600800F30DA09C2DAE5BB
:1020E300DA30E205800375D8FFD0D0D082D083D018
:1020F300F0D0E03275E229E4F5E343D18053D1FB1C
:1021030043D1017400FE74008EEDF5EC75DC02E43E
:10211300F5DD7400FE74408EEFF5EE75EA5075D26E
:1021230012E4F5D37400FE74C08EE5F5E475EB0993
:1021330075D410E4F5D543E18743D81FD2EA22E5ED
:10214300704571456F602A7530FF7531267532DB36
:10215300AB6FAA70A9711218F6EA494B60267BFF90
:102163007A2679DF1205657F647E001223980223A5
:10217300317BFF7A2679F21205657F647E00122394
:102183009812248C22E4F54AF54D754F01F556F566
:1021930058F557F549F548F547F546754501F54CAA
:1021A300F54E856054856155F54B856452856553BD
:1021B30085638285628304F0A37460F085658285FC
:1021C30064837401F0A37460F0228E2F8F308B31FF
:1021D3008A328933E4FF7585C0E53025E0F530E5C3
:1021E3002F33F52FEFC39535E49534501DEF25E0DC
:1021F3002530F58475868EAB31AA32A9338F82756B
:102203008300E58E1209AD0F80DA224393025392C5
:10221300FD4393105392EF4393205392DF43934034
:1022230043924043938053927F43970143960143E4
:1022330097025396FD4397045396FB43970843969F
:10224300084397105396EF22EF139295D297C297B4
:10225300139295D297C297139295D297C2971392DE
:1022630095D297C297139295D297C297139295D20C
:1022730097C297139295D297C297139295D297C20A
:1022830097227EFFEF14601214601414601614601A
:10229300182404701A903FFC8012903FFD800D902B
:1022A3003FFE8008903FFF8003903FFAE493FEEEE9
:1022B300FF22E54D6026E54E654C7020E5D430E7FE
:1022C30006AE5EAF5F8004AE60AF618E548F55780B
:1022D3007EE6F54CE4F54EF54D53D4F32274FFFE40
:1022E3007884E6FF08E6900140CFF0A3EFF07B018E
:1022F3007A0179407D377C00121BDB9001AEEEF052
:10230300A3EFF0021C50300C24C20C054AAF4AD391
:10231300EF94FA748094804003754AFAAF4AC3EF8E
:1023230094C8748094805003C29122D2912275275D
:1023330038752800C2BCE4F593F5927590FFF5E17A
:1023430075E2067F64FE122398C2AFAA27A928026A
:102353000A857B017A0179407D387C00121BDBEF13
:102363004E6002C322900140E0FFA3E07884CFF6E1
:1023730008EFF6D322EFFBEEFAECF52DCFEDCFEF1E
:10238300F52ECFEBCFEA7B007A00792D75340075FB
:102393003502021CC4EFFDEEFCED4C60117FE87EBC
:1023A3000312242CE4F5FFED1D70EE1C80EB2205D7
:1023B3005DC3E55D9464748094804003E4F55DE55A
:1023C3005D7002D209D20C227B007A00792D75341C
:1023D300007535021221CDE52DFEE52EFF228F4437
:1023E300E544B40A057F0D120003AF441200037FD6
:1023F3000022438780759850758DE6758BE6C2ABD6
:10240300D28ED2AC2275A15575A1AAE5B954F84470
:1024130005F5B9E4F5A122EFFDEEF59E439D0253C8
:102423009DFD439D08EDF59B22EF4E600D05A10533
:10243300A105A1EF1F70F21E80EF2243C9F0758939
:1024430021758CC1758A80D28CD2A922EFC39441A5
:10245300400AEF945B5005EF2420FF222275A1551B
:1024630075A1AA43B101E4F5A1F5FF22EFC39420BE
:102473004007EF947F50028001C32230090AC2094A
:10248300300B05C20B1222E02275A15575A1AA4398
:10249300B110E4F5A1221222B51217A2021B6502A4
:1024A3001DEE200030782530345820000A002042E9
:1024B300616420416472657373210A006D656D72F6
:1024C30064205B68657820616464725D2052656195
:1024D30064204D656D6F72792E0A00726561640028
:1024E3000A307825303458200025303458200077BE
:1024F30072697465002077726974652030782530BD
:1025030034580020746F20656570726F6D206164AC
:102513006472657373203078253034582E2E2E0A5A
:10252300006C6F6164004C6F61642066726F6D2094
:10253300496E742E20454550524F4D2E2E2E0A00C3
:1025430073617665005361766520746F20496E74FC
:102553002E20454550524F4D2E2E2E0A0065657094
:10256300726F6D205B6C6F61647C736176657C72E6
:102573006561647C77726974655D205B6164647214
:102583005D205B646174615D204F70657261746589
:1025930020496E742E20454550524F4D2E0A00653A
:1025A30063686F00204543484F3D25640A007573F7
:1025B3006E002055534E3D25640A00636C6B6F001B
:1025C3004D434C4B4F43523D3078253034580A002D
:1025D300746573740020544553543D25640A006C9C
:1025E3006564004C45443D25640A0070776D0050D6
:1025F300574D3D25640A006374726C205B65636804
:102603006F7C73657269616C7C6C65645D205B7063
:102613006172616D5D204465766963652043747200
:102623006C2E0A00204543484F3D25642055534EE8
:102633003D2564204C45443D25640A00204C6F61D0
:102643006420706172616D65746572732066726F68
:102653006D20454550524F4D2E2E2E0A00205361BA
:10266300766520706172616D657465727320746F35
:1026730020454550524F4D2E2E2E0A00726573741D
:102683006F72650020526573746F726520646566AE
:1026930061756C7420706172616D65746572732EFF
:1026A3002E2E0A00706172616D205B6C6F61647C19
:1026B300736176657C726573746F72655D204F70AC
:1026C300657261746520706172616D6574657273A2
:1026D3002E0A00202D3E200069737000207265626F
:1026E3006F6F7420746F204953502E2E2E0A0020D2
:1026F3007265626F6F742E2E2E0A00205553422D81
:10270300426C6173746572207625642E25642E25D0
:102713006420534E3A000A204543484F20537475B2
:1027230064696F203C6563686F2E786A74754067CF
:102733006D61696C2E636F6D3E2E20416C6C20526F
:1027430069676874732052657365727665642E0ACF
:10275300006374726C00656570726F6D00706172F6
:10276300616D007265626F6F74007265626F6F7482
:10277300205B64656C6179206D735D2052657374B1
:102783006172742073797374656D2E0A0068656CC9
:10279300700068656C7020496E666F2E0A0076655E
:1027A3007273696F6E00646973706C61792053573B
:1027B3002076657273696F6E20616E6420534E2EAE
:1027C3000A006D656D726400120100020000004092
:1027D300FB09016000040102030109022000010159
:1027E30000804B0904000002FFFFFF02070581027E
:1027F30040000007050202400000040309040E0321
:1028030041006C00740065007200610018035500FC
:10281300530042002D0042006C00610073007400FD
:10282300650072000A060002FFFFFF40000000007F
:1028330009FB600104004B80001C02000E9418A2E7
:1028430012BA030E0041006C00740065007200614F
:102853000318005500530042002D0042006C006134
:102863000073007400650072031200300030003002
:1028730000300030003000300030030200014552C8
:1028830042560000000000000000000000000000AD
:102893000000000000000000000000000000000035
:1028A300000000000000000000000000CB2A3031CF
:0F28B300323334353637383941424344454600D5
:00000001FF
