:1000000002184E8F993099FDC29922021FF6EF1304
:1000100092971392B21392B413929413929513B3CE
:10002000929122021ADF8F31E531C4540F9028A437
:1000300093FF120003E531540F9028A493FF0200B0
:0100400003BC
:10004300022096E5D9543F70030204FA24FE60208F
:1000530024E2700302048F24F0602A240F60030259
:100063000500E4F5D3E5D254FC4402F5D2D20B22C9
:1000730020DE03020500787AA6DBE5D454F34408B6
:10008300F5D4D20A22E5DC54036403700215DCAF15
:10009300DB7523008F24E5246408452360030204F1
:1000A30064900007E0FE900006E0FDEEF546EDF5F6
:1000B30047D3E547947FE5469400400675460075AF
:1000C300477FE4F523F524900000E0F548A3E0F52D
:1000D30049E548546070030201AFE54830E767E53E
:1000E3004924FB604324FB6025247A704A90000472
:1000F300E0543FF52525E02424F582E43428F583F4
:10010300E493FC740193900000F0ECA3802390002F
:1001130004E0640270067882E6FF8004787BE6FFE1
:10012300900000EFF002030D9000007401F0A3743F
:1001330060F07523008009E4900000F0A3F0F5233C
:1001430075240202046AE549246F6053146037245E
:1001530092B40C004003020464900163F8282873EE
:1001630002018702018902018902018902018902D0
:1001730001AC0201890201890201AC02018B020177
:10018300AC020189801B8019900004E06401900097
:10019300027006E0787BF68004E07882F68002D273
:1001A3000FE4F523F52402046A020464E549B40B61
:1001B3000040030204629001C0F82828730204403F
:1001C30002031F02046202039E0204620202ED02A2
:1001D30001E10204620202F902031602046A9000BA
:1001E30003E024FE602614604024FD7003020283B2
:1001F300240560030202857556FF7557277558BE9F
:100203009027BEE493752300F524807C7556FF7513
:1002130057277558D09027D3E493FE9027D2E493C1
:10022300FDEEF523EDF524805F900002E014601BE2
:10023300146029146037240370357556FF755727EA
:100243007558F0752300752404803D7556FF755766
:10025300277558F475230075240E802C7556FF7589
:100263005728755802752300752418801B80007564
:1002730056017557027558DF7523007524128008DF
:1002830080007523007524FFD3E5479524E5469543
:10029300234006852346852447E524F4452370033C
:1002A30002046AC3E5479440E546940040067E0095
:1002B3007F408004AE46AF478E238F247400F874CA
:1002C30000FC7401FDAB56AA57A95812092DC3E5CA
:1002D300479524F547E5469523F546E5242558F546
:1002E30058E5233557F55702046A900002E0754636
:1002F30000F54702046A900000E553F0C3E5479414
:1003030001E5469400500302046A75230075240135
:1003130002046A900002E0F55302046AE548541FA0
:10032300FD7C007020900003E0FE900002E0FBEBF8
:1003330064014E700D9027D79330E50302046A02DF
:100343000464020464ED64024C704D900004E014F4
:10035300603D14602914601524826028146014140D
:100363007033E5D654BC4402F5D602046A53D673FF
:1003730002046AE5D454BC4402F5D402046A53D49B
:100383007302046AE5D254BC4402F5D202046A53F0
:10039300D27302046A020464020464E548541FFD34
:1003A3007C007020900003E0FE900002E0FBEB6411
:1003B300014E700D9027D79330E50302046A0204BF
:1003C30064020464ED64024C7071900003E0FE90DB
:1003D3000002E0FDED4E7061900005E0FE90000428
:1003E300E0FDEDFFEE7050EF14604214602B1460DB
:1003F300142482602E14601714703CE5D654BF4455
:1004030003F5D68062E5D6547F440CF5D68058E5D3
:10041300D454BF4403F5D4804EE5D4547F440CF543
:10042300D48044E5D254BF4403F5D2803AE5D25494
:100433007F440CF5D28030802880268024E490000D
:1004430000F0A3F0C3E5479402E546940040067E1E
:10045300007F028004AE46AF478E238F248008803E
:10046300007523007524FFE524F4452370077549BF
:10047300FF75DCCF22D3E5249440E5239400500597
:100483008524DD8003E4F5DD75DCC022E548546096
:100493006002805EE54924FB604E147055C3E54756
:1004A3009440E546940040067E007F408004AE46BB
:1004B300AF478E238F247400F87400FC7401FDABE6
:1004C30056AA57A95812092DC3E5479524F547E5C0
:1004D300469523F546E5242558F558E5233557F584
:1004E300578524DD63DC4022E5E354804547F5E38B
:1004F3008008E4F5DD8003E4F5DD75DC0222E540E8
:100503002434F8E605402278313007027834E47564
:10051300F001120AE60209532000EB7F2ED200807D
:1005230018EF540F2490D43440D4FF30040BEF243D
:10053300BFB41A0050032461FFE541600215410571
:1005430044E5447002054330070D7831E475F0014A
:10055300120AE6EF0209990223D47403D207800337
:10056300E4C207F5408B318A328933E4F541F54320
:10057300F544E54160077F2012053C80F57542FF95
:10058300C201C200C202C203C205C206C2081205EA
:100593000AFF700D3007057F0012054DAF44AE43CF
:1005A30022B4255FC2D5C20412050AFF24D0B40ABF
:1005B30000501A75F00A784130D50508B6FF0106D8
:1005C300C6A426F620D5047002D20380D924CFB462
:1005D3001A00EF5004C2E5D20402074DD20180C6CF
:1005E300D20080C0D20280BCD2D580BAD20580B4FA
:1005F3007F2012053C2002077401B5410040F1122F
:100603000501FF12053C020575D208D2068095123A
:100613000501FB120501FA120501F94A4B7006792F
:100623001E7A087BFF20022EE541602A7E008E821F
:1006330075830012096C60060EEE654270F0C2D538
:10064300EBC0E0EAC0E0E9C0E0EE120794D0E0F9C5
:10065300D0E0FAD0E0FB120953FF60AAEBC0E0EA56
:10066300C0E0E9C0E012053CD0E02401F9D0E03459
:1006730000FAD0E0FBE5420460DCD542D980877BF9
:10068300FF7A077990D202809C791080027908C2A0
:1006930006C2088008D2D5790A8004790AC2D5E552
:1006A30042047002F542E4FAFDFEFF120501FC7BF1
:1006B30008200113120501FD7B1030000A12050109
:1006C300FE120501FF7B20EC3382D592D55013C374
:1006D300E43000069FFFE49EFEE42001039DFDE459
:1006E3009CFCE4CBF8C201EC700CCFCECDCCE8245B
:1006F300F8F870F38017C3EF33FFEE33FEED33FDED
:10070300EC33FCEB33FB994002FB0FD8E9EB3001F0
:1007130005F8D0E0C448B201C0E00AEC4D4E4F7872
:10072300207B0070C2EAB5420040BCC0E0120796CD
:10073300D0F0D0E0200104C4C0E0C4B201C0F01284
:100743000525D0F0D5F0EB020575120B45061253C3
:10075300068C5805E34C05DF4206904F0698440685
:10076300984905F843069E55068246068245068249
:1007730047083E5005E72D05EB2E060E2B05EF230C
:10078300060C2008272A05A748000006063F3F3F1E
:1007930000790AA2D5200314300509B91002040414
:1007A300B9080104A2D52006025001042002689270
:1007B30002B541005034C0E07F203003197F30A2DE
:1007C3000272067205500F1207EDC202C206C2057D
:1007D300C2087F30800F300503E9C0E012053C30CA
:1007E3000503D0E0F9D0E0B541CC3005177F30B92F
:1007F300100C12053C7F583004077F788003B9083A
:100803000312053C3002057F2D02053C7F202008A2
:10081300F87F2B2006F322920280CF286E756C6C32
:100823002900D2011205013001F8C201784130D507
:100833000108F60205A72D50434958120501240368
:10084300B405004001E49008399312052D743A125F
:10085300052DD20375410402068CE709F608DFFA79
:100863008046E709F208DFFA803E88828C83E70935
:10087300F0A3DFFA8032E309F608DFFA8078E309B0
:10088300F208DFFA807088828C83E309F0A3DFFA31
:10089300806489828A83E0A3F608DFFA805889821C
:1008A3008A83E0A3F208DFFA804C80D280FA80C604
:1008B30080D4806980F28033801080A680EA809A99
:1008C30080A880DA80E280CA803389828A83ECFA46
:1008D300E493A3C8C582C8CCC583CCF0A3C8C582A2
:1008E300C8CCC583CCDFE9DEE7800D89828A83E447
:1008F30093A3F608DFF9ECFAA9F0EDFB2289828ACB
:1009030083ECFAE0A3C8C582C8CCC583CCF0A3C8E6
:10091300C582C8CCC583CCDFEADEE880DB89828A66
:1009230083E493A3F208DFF980CC88F0EF60010E33
:100933004E60C388F0ED2402B4040050B9F582EB95
:100943002402B4040050AF23234582239008AD73DF
:10095300BB010689828A83E0225002E722BBFE02A2
:10096300E32289828A83E49322BB010CE58229F581
:1009730082E5833AF583E0225006E92582F8E622F0
:10098300BBFE06E92582F8E222E58229F582E583AA
:100993003AF583E49322BB010689828A83F02250CD
:1009A30002F722BBFE01F322F8BB010DE58229F514
:1009B30082E5833AF583E8F0225006E92582C8F6FA
:1009C30022BBFE05E92582C8F222BC000BBE00292A
:1009D300EF8DF084FFADF022E4CCF875F008EF2F33
:1009E300FFEE33FEEC33FCEE9DEC984005FCEE9DF0
:1009F300FE0FD5F0E9E4CEFD22EDF8F5F0EE84200C
:100A0300D21CFEADF075F008EF2FFFED33FD40076C
:100A1300985006D5F0F222C398FD0FD5F0EA22BB19
:100A23000110E58229F582E5833AF583E0F5F0A329
:100A3300E0225009E92582F886F008E622BBFE0A87
:100A4300E92582F8E2F5F008E222E5832AF583E955
:100A530093F5F0A3E99322EB9FF5F0EA9E42F0E9C8
:100A63009D42F0E89C45F022E6FC08E6FD08E6FE20
:100A730008E6FF22ECF608EDF608EEF608EFF6229C
:100A83008A838982E473E88FF0A4CC8BF0A42CFCD6
:100A9300E98EF0A42CFC8AF0EDA42CFCEA8EF0A4E1
:100AA300CDA8F08BF0A42DCC3825F0FDE98FF0A470
:100AB3002CCD35F0FCEB8EF0A4FEA9F0EB8FF0A467
:100AC300CFC5F02ECD39FEE43CFCEAA42DCE35F0A3
:100AD300FDE43CFC22C3E49FFFE49EFEE49DFDE4B1
:100AE3009CFC22FAE6FB0808E6F925F0F618E6CAAC
:100AF3003AF622BB011A89828A83D0F0D0E0F8D07B
:100B0300E0F9D0E0FAD0E0FBE8C0E0C0F0020B74FB
:100B13005016E9F8D083D082D0E0F9D0E0FAD0E0E3
:100B2300FBC082C083020B6BBBFE16E9F8D083D0F7
:100B330082D0E0F9D0E0FAD0E0FBC082C083020BA0
:100B43007D22D083D082F8E4937012740193700DE8
:100B5300A3A393F8740193F5828883E473740293D7
:100B63006860EFA3A3A380DFEBF608EAF608E9F6D3
:100B730022EBF0A3EAF0A3E9F022EBF208EAF20891
:100B8300E9F222E55D455E455C7003020DC67531F1
:100B9300FF753225753395AB5CAA5DA95E1218E823
:100BA300EA494B6046E5604561455F602D752B0062
:100BB300752C00752D00752E0AAB5FAA60A9611212
:100BC3001162EF5401FFEF5401FF7880E6FC08E661
:100BD30054FEFDEC18F6ED4F08F67BFF7A25799A63
:100BE3007534007881E65401020CAF7531FF75321C
:100BF300257533A4AB5CAA5DA95E1218E8EA494BDC
:100C03006060E5604561455F603A752B00752C00B7
:100C1300752D00752E0AAB5FAA60A961121162EFF0
:100C23005401FFEF5401C4F8540FC868FFE4C454DF
:100C3300F048FE7880E6FC08E654EFFDEC4E18F62B
:100C4300ED4F08F67980E7C4F854F0C809E7C454B7
:100C53000F487534005401F5357BFF7A2579A802D6
:100C63000DFE7531FF7532257533B1AB5CAA5DA9F5
:100C73005E1218E8EA494B6038E5604561455F60FC
:100C83001D753400753500753600753710AB5CAAD9
:100C93005DA95E120FBE900144E4F0A3EFF07BFF69
:100CA3007A2579B6900144E0F534A3E0F535020DD9
:100CB300FE7531FF7532257533C6AB5CAA5DA95E3F
:100CC3001218E8EA494B6053E5604561455F6033BC
:100CD300752B00752C00752D00752E0AAB5FAA606D
:100CE300A961121162EF5401FFEF540125E0FFE403
:100CF30033FE7880E6FC08E654FDFDEC4E18F6ED75
:100D03004F08F67980E7C31309E7137534005401DC
:100D1300F5357BFF7A2579CB020DFE7531FF7532F0
:100D2300257533D5AB5CAA5DA95E1218E8EA494B79
:100D33006038E5604561455F601D753400753500B9
:100D430075360075370AAB5FAA60A961120FBE90B2
:100D53000142EEF0A3EFF07BFF7A2579D9900142AF
:100D6300E0F534A3E0F535020DFE7531FF7532254C
:100D73007533E1AB5CAA5DA95E1218E8EA494B60E2
:100D83003AE5604561455F6020753400753500754F
:100D9300360075370AAB5FAA60A961120FBE9001D6
:100DA30046EEF0A3EFF012240D7BFF7A2579E59050
:100DB3000146E0F534A3E0F53580407BFF7A2579E1
:100DC300ED80387BFF7A2579ED1205637534007861
:100DD30081E65401F5357980E7C4F854F0C809E792
:100DE300C4540F487536005401F537900142E0F5BD
:100DF30038A3E0F5397BFF7A26791A12056322E4DA
:100E0300F528F529F52AF52BF52CF52DE55D455E3D
:100E1300455C7003020FB47531FF7532247533D10D
:100E2300AB5CAA5DA95E1218E8EA494B7003020E97
:100E3300C8E5604561455F7003020FBD75340075F9
:100E43003500753600753710AB5FAA60A961120FC4
:100E5300BE8E288F29E4F52CF52DE529252DFFE5F8
:100E630028352CFED3EF943EEE9400504FE52D54DD
:100E730007700D7BFF7A2479D68E348F3512056384
:100E83007BFF7A2479DFE529252DFFE528352CFE24
:100E9300EF25E0FFEE33FE74402FF58274013EF53B
:100EA30083E0F534A3E0F535120563052DE52D70D8
:100EB30002052CD3943EE52C9400409E7BFF7A24BC
:100EC30079A2020FBA7531FF7532247533E5AB5C35
:100ED300AA5DA95E1218E8EA494B7003020F68E5A0
:100EE300604561455F7003020FBDE563456445627C
:100EF3007003020FBD753400753500753600753704
:100F030010AB5FAA60A961120FBEE4F5288F29F523
:100F130034F535F536753710AB62AA63A964120F41
:100F2300BEEFFDEEFCE52925E0FFE52833FE744026
:100F33002FF58274013EF583ECF0A3EDF07BFF7A8D
:100F43002479EB74402FF58274013EF583E0F53488
:100F5300A3E0F5351205637BFF7A2479F9852834FC
:100F630085293580527531FF753225753317AB5C92
:100F7300AA5DA95E1218E8EA494B600B121DDC7BDF
:100F8300FF7A25791C80307531FF7532257533362C
:100F9300AB5CAA5DA95E1218E8EA494B600B121B11
:100FA300CC7BFF7A25793B800E7BFF7A25795380B2
:100FB300067BFF7A257953120563228B318A3289A6
:100FC30033E4F53DF53CF53BF53AF538F539E535D0
:100FD300453645346012EBC0E0EAC0E0E9C0E0AB5F
:100FE30034AA35A936120AF6AB310533E533AA32F2
:100FF3007002053214F9120953F53EC394094007F0
:10100300E53ED3940D40E1E53E642060DBE53EB46C
:101013002D054339038016E53EB42B054339018082
:101023000C74FF2533F53374FF3532F532E5376041
:10103300046410703FAB31AA32A9331209536430F0
:101043006009E537702E75370A802990000112096F
:101053006CFF64786004EFB458134339017537109B
:1010630074022533F533E43532F5328007E5377002
:1010730003753708AB310533E533AA327002053205
:1010830014F9120953F53EC39461400AE53ED39423
:101093007A5003533EDF74D0253EF53EC3940A4095
:1010A3000CE53E9411406D74F9253EF53EE53EC3D3
:1010B30095375060433901853D42853C41853B402E
:1010C300853A3FAF377E00E4FCFDAB3DAA3CA93B2C
:1010D300A83A120A89C8ECC8C9EDC9CAEECACBEF4F
:1010E300CBE4FCFDFEEB253EF53DEE3AF53CED3958
:1010F300F53BEC38F53AAF3DAE3CAD3BFCAB42AA19
:1011030041A940A83FD3120A5A500302107743392A
:1011130004021077E53920E003E4802DE5354536F8
:101123004534601EAB31E53324FFF9E53234FFFA71
:10113300EBC0E0EAC0E0E9C0E0AB34AA35A936125F
:101143000AF6E53930E20774FFFFFEFDFC22E539BC
:10115300AF3DAE3CAD3BAC3A30E103020AD8228B43
:10116300288A29892AE4F534F533F532F531F52F48
:10117300F530E52C452D452B6012EBC0E0EAC0E0CD
:10118300E9C0E0AB2BAA2CA92D120AF6AB28052A3D
:10119300E52AAA297002052914F9120953F535C362
:1011A30094094007E535D3940D40E1E535642060AB
:1011B300DBE535B42D054330038016E535B42B0547
:1011C300433001800C74FF252AF52A74FF3529F575
:1011D30029E52E60046410703FAB28AA29A92A12BE
:1011E300095364306009E52E702E752E0A8029900C
:1011F300000112096CFF64786004EFB458134330A4
:1012030001752E107402252AF52AE43529F5298063
:1012130007E52E7003752E08AB28052AE52AAA29AF
:101223007002052914F9120953F535C39461400A74
:10123300E535D3947A50035335DF74D02535F5352E
:10124300C3940A400CE5359411405374F92535F5E0
:1012530035E535C3952E5046433001AF2E7E00E46D
:10126300FCFDAB34AA33A932A831120A89C8ECC8F1
:10127300C9EDC9CAEECACBEFCBE4FCFDFEEB2535C5
:10128300F534EE3AF533ED39F532EC38F531AF3468
:10129300AE33AD32FC33508043300402121BE530D1
:1012A30020E006E4FFFEFDFC22E52C452D452B60E6
:1012B3001EAB28E52A24FFF9E52934FFFAEBC0E049
:1012C300EAC0E0E9C0E0AB2BAA2CA92D120AF6E58F
:1012D3003030E21230E107E4FFFEFD7C802274FF30
:1012E300FFFEFD7C7F22E530AF34AE33AD32AC314F
:1012F30030E103020AD822021A00000218FFFF029B
:10130300542B66048300000000C111C10EC11002FA
:101313004F004002510080024B00C0024D01000209
:101323007C0000017B04018204017A00C10F027E6C
:10133300000001530003560000005202DF1203466F
:1013430000460046004600460046004600460001AF
:101353004A00016D00C10AC18B01720001710001D5
:1013630077000359000000035C000000035F0000E6
:101373000003620000000365000000603F02A0FF5D
:101383002747FF25EDFF0B86FF274CFF2553FF0E55
:1013930002FF2753FF269AFF19EAFF2759FF276009
:1013A300FF2130FF2783FF2788FF1A65FF2794FF5C
:1013B300279CFF1F9FFF27B8FF24B2FF157001680A
:1013C30007C112017800017900602002400000008B
:1013D300000000000000000000000000000000000A
:1013E3000000000000000000000000000060400258
:1013F300600000000000000000000000000000008A
:1014030000000000000000000000000000000000D9
:1014130000000000000000000000000000000000C9
:1014230000000000000000000000000000000000B9
:101433000000E4F52820120302156F752CFF752DAB
:1014430024752E987B017A02796012196A8B598A66
:101453005A895BEA494B606F752CFF752D24752EF5
:10146300987B007A00790012196A8B5C8A5D895E29
:10147300EA494B6052752CFF752D24752E987B001D
:101483007A00790012196A8B5F8A608961EA494B95
:101493006035752CFF752D24752E987B007A0079A5
:1014A3000012196A8B628A638964EA494B60187572
:1014B3002CFF752D24752E987B007A007900121964
:1014C3006A8B658A668967E4F528E528C3956850C1
:1014D3002F75F009E528A424A0F582E5F03402F580
:1014E30083E0FBA3E0FAA3E08B318A32F533AB59F7
:1014F300AA5AA95B1218E8EA494B7004052880CA66
:10150300E528C39568503675F009E528A424A6F5A7
:1015130082E5F03402F583E0FBA3E0FAA3E0F9EA05
:10152300494B601975F009E528A424A6F582E5F076
:101533003402F583A3E0FAA3E0F9120A8375590094
:10154300755A00755B00755C00755D00755E00750E
:101553005F007560007561007562007563007564F6
:1015630000756500756600756700C21222E4F528F0
:10157300F529F52AF52BF52CF52DF52EF52FF5305C
:10158300E55D455E455C70030216A0753400753554
:1015930000753600753710AB5CAA5DA95E120FBEED
:1015A3008E288F29E529452870030216988E2A8FE5
:1015B3002BE4F52DF52E7BFF7A24799AE52EC4F8DA
:1015C300540FC868FFE52DC454F048FEE5292FF5F4
:1015D30035E5283EF534120563E4F52FF530E52EA5
:1015E300C4F8540FC868FFE52DC454F048FEE53035
:1015F3002FFFE52F3EFEE52B2FF582E52A3EF583EF
:10160300E493F52CFF1200267F201200030530E53A
:10161300307002052FC39410E52F940040C0E4F509
:101623002FF530E52EC4F8540FC868FFE52DC454D8
:10163300F048FEE5302FFFE52F3EFEE52B2FF58228
:10164300E52A3EF583E493F52CFF7E00C3942074D2
:10165300809480400CD3EF947E74809480500280F9
:10166300027F2E1200030530E5307002052FC3946C
:1016730010E52F940040AC7BFF7A2479A212056316
:10168300052EE52E7002052DC39410E52D94005010
:10169300030215B9227BFF7A2479A480067BFF7AA3
:1016A3002479B2120563228F27E4F578AF27122439
:1016B300625038AF78057874402FF582E43402F530
:1016C30083E527F0AF79C3EF94407480948040039F
:1016D300021788AF27122442AE79057974602EF57C
:1016E30082E43402F583EFF0021788E5276408707B
:1016F30043AF78057874402FF582E43402F58374A0
:1017030008F0AF78057874402FF582E43402F5834E
:101713007420F0AF78057874402FF582E43402F535
:10172300837408F0AF79D3EF9400748094804055AC
:1017330015798051E527640D704BAF7805787440B7
:101743002FF582E43402F583740DF0AF78057874D5
:10175300402FF582E43402F583740AF0AF79C3EFC6
:101763009440748094805016AF79057974602FF596
:1017730082E43402F583E4F0F579D2128007E49031
:10178300029FF0F579AF78C3EF9440748094804062
:1017930003E4F57822E570C3956F400302184DC347
:1017A300E56E943D74809480400302184DAF70053C
:1017B30070E5762FF582E43575F583E0F528E57756
:1017C3007052E5285480C36001D3920DE52854403C
:1017D300C36001D3920C300D08E528543FF57780A0
:1017E300B4AF28300C2912000EA2B3E43325E0FF76
:1017F300A296E4334FFFAE6E056EEE2402FDE43392
:10180300FCE5742DF582E5733CF583EFF0808612D9
:10181300000E8081300C26AF28309405121EED8017
:1018230003121E92AE6E056EEE2402FDE433FCE558
:10183300742DF582E5733CF583EFF08005AF281234
:1018430021B9E4F56D157702179822787FE4F6D86D
:10185300FD9000007F007E04E4F0A3DFFCDEFA7558
:1018630081860218A3021F48E493A3F8E493A340DC
:1018730003F68001F208DFF48029E493A3F8540708
:10188300240CC8C333C4540F4420C8834004F45603
:10189300800146F6DFE4800B01020408102040803B
:1018A3009012FAE47E019360BCA3FF543F30E50934
:1018B300541FFEE493A360010ECF54C025E060A83B
:1018C30040B8E493A3FAE493A3F8E493A3C8C582CE
:1018D300C8CAC583CAF0A3C8C582C8CAC583CADF3C
:1018E300E9DEE780BE8B2E8A2F8930AB31AA32A97D
:1018F300331209536063AB2EAA2FA9301209536028
:101903005F8531348532358533368B378A3889396B
:10191300AB34AA35A936120953FF6023AB37AA3873
:10192300A9391209536F7017042536F536E4353596
:10193300F53574012539F539E43538F53880D1ABFF
:1019430034AA35A9361209537002800D740125306B
:10195300F530E4352FF52F809DAB2EAA2FA9302229
:101963007B007A007900228B298A2A892BE94A4B4A
:101973007009851C29851D2A851E2BE52B452A45C3
:10198300297002802C852C32852D33852E34AB298A
:10199300AA2AA92B121D1EEF252BF52BEE352AF5AE
:1019A3002AAB29FAA92B120953700AF51CF51DF568
:1019B3001EFBFAF922852C32852D33852E34AB2973
:1019C300AA2AA92B121D7F8B1C8A1D891EEA494B4B
:1019D300600EE412099904251EF51EE4351DF51D5C
:1019E300AB29AA2AA92B22E55D455E455C60697592
:1019F30031FF753225753317AB5CAA5DA95E1218EA
:101A0300E8EA494B600C7BFF7A26793212056302C0
:101A130023487531FF753225753336AB5CAA5DA952
:101A23005E1218E8EA494B600C7BFF7A2679531261
:101A33000563D210227531FF753226753372AB5CA4
:101A4300AA5DA95E1218E8EA494B7BFF600C7A266F
:101A5300797A120563021E377BFF7A26799A12057B
:101A63006322E4F528F528C3E5289406748094805E
:101A7300506975F009E528A424A6F582E5F034023F
:101A8300F583E0FBA3E0FAA3E0F9EA494B60487B66
:101A9300FF7A24799812056375F009E528A424A038
:101AA300F582E5F03402F583E0FBA3E0FAA3E0F965
:101AB3001205637BFF7A2679C912056375F009E580
:101AC30028A424A3F582E5F03402F583E0FBA3E028
:101AD300FAA3E0F91205630528808C22C0E0C0F068
:101AE300C083C082C0D0E8C0E0E9C0E0EAC0E0EB58
:101AF300C0E0ECC0E0EDC0E0EEC0E0EFC0E0309845
:101B03002BAF991216AA752600E526C39578501AAD
:101B13007881E630E01474402526F582E43402F53A
:101B230083E0FF120003052680DFC298309902C2CA
:101B330099D0E0FFD0E0FED0E0FDD0E0FCD0E0FBA8
:101B4300D0E0FAD0E0F9D0E0F8D0D0D082D083D082
:101B5300F0D0E0328B2E8A2F89308C318D32E4FD28
:101B6300FC74FFF533F534E4F535F536C3ED953202
:101B7300EC9531504FED25E0FFEC33AB2EAA2FA9A6
:101B8300308F82F583120A22AEF06234EE6233E4C0
:101B9300FAFB753500E5345401F536E533C313F527
:101BA30033E53413F534E5364535600663340163B4
:101BB30033A00BBB00010AEB64084A70D50DBD00CE
:101BC300010C80A8AE33AF34227B017A0179407DCA
:101BD3003E7C00121B578E188F19E4FDFCFFFE128A
:101BE300236BAD19AC187F027E0012236BE4F51A48
:101BF300F51BE51B25E0FDE51A33FCED2404FFE4AA
:101C03003CC0E0EFC0E074402DF58274013CF583E5
:101C1300E0FCA3E0FDD0E0FFD0E0FE12236B051B48
:101C2300E51B7002051AC3943EE51A940040C39065
:101C330001BCE518F0A3E519F0AE18FF22300B6ED6
:101C4300856E28E4F56EAF28FED3EF943E7480943E
:101C530080400575283E802BEF4E70277883120A4B
:101C63006BC3EF956CFFEE956BFEED956AFDEC95FE
:101C730069FCE47B0AFAF9F8D3120A5A40053009E1
:101C83002DC2097883120A6B8F6C8E6B8D6A8C69F7
:101C9300C20BE5D230E606AE4FAF508004AE51AF73
:101CA300528E738F74E5282402F5D353D2FC228E0F
:101CB300308F318B328A33893475A15575A1AA438C
:101CC300B104E4F5A17585C0E53125E0F531E530D2
:101CD30033F530E4FFEFC39536E495355030EF2507
:101CE300E02531F584AB32AA33A9348F82758300A2
:101CF30012096CF58EE58630E60375869AE58664EF
:101D030040D39400748094804001220F80C775A152
:101D13005575A1AA53B1FBE4F5A1228B2F8A308913
:101D230031E4F535F536E4FEFFAB32AA33A9348F3F
:101D3300828E8312096CFD6013AB2FAA30A9311276
:101D430009536D60070FBF00010E80DDAB32AA336C
:101D5300A9348F828E8312096C7002801A0536E5CE
:101D63003670020535AB2F0531E53170020530F9C8
:101D7300AA3012095370AFAE35AF36228B2F8A309B
:101D83008931853235853336853437AB35AA36A963
:101D930037120953FF6019AB2FAA30A93112095327
:101DA3006F600D74012537F537E43536F53680DB82
:101DB300AB35AA36A9371209536007AB2FAA30A94E
:101DC3003122AB2F0531E531AA307002053014F909
:101DD30012095370ADFBFAF922E4F51AF51BE51B62
:101DE30025E0FFE51A33FEEF2404FFE43EFE122351
:101DF300BEEEFCEFFDE51B25E0FFE51A33FE744064
:101E03002FF58274013EF583ECF0A3EDF0051BE59D
:101E13001B7002051AC3943EE51A940040C07F026A
:101E23007E001223BE8E188F199001BCE518F0A313
:101E3300E519F022E4FFEFC39440748094805014BA
:101E4300EF25E02440F582E43401F58374FFF0A329
:101E5300F00F80E2E47880F608F6E64401F6E654F3
:101E6300FDF6E654FBF6E64408F6E654EFF618E60C
:101E7300FF08E6900140CFF0A3EFF0A3E4F0A374D2
:101E830064F0E4A3F0A3F0A304F0A37480F022EFC2
:101E9300139295A2B3D2972313C297139295A2B329
:101EA300D2972313C297139295A2B3D2972313C247
:101EB30097139295A2B3D2972313C297139295A225
:101EC300B3D2972313C297139295A2B3D297231336
:101ED300C297139295A2B3D2972313C297139295E5
:101EE300A2B3D2972313C297FF22EF139295A29620
:101EF300D2972313C297139295A296D2972313C214
:101F030097139295A296D2972313C297139295A2F1
:101F130096D2972313C297139295A296D29723131F
:101F2300C297139295A296D2972313C297139295B1
:101F3300A296D2972313C297139295A296D2972370
:101F430013C297FF221223FB7F0A7E0012238B12F8
:101F53002495121DDC1223484006121E371222D389
:101F630012243112223C1223E81221767881E630C2
:101F7300E4031220471220E5122453D2AFD2911268
:101F830014351222FC122471E4F5FFE553600312A9
:101F9300248C300FEAC20F12232480E3E4F5287B5C
:101FA300FF7A2679F1E554C313753400547FF53570
:101FB3007805AE54E555CEC313CE13D8F975360064
:101FC300540FF537753800E555541FF5391205637D
:101FD300E4F528C3E528940574809480500CAF2859
:101FE300122279120026052880E97BFF7A27790CD3
:101FF300020563C0E0C0F0C083C082C0D075D010BA
:10200300758CC1758A807883120A6BEF2401FFE413
:102013003EFEE43DFDE43CFC7883120A77787F06BC
:10202300E618700106C3787FE6940518E69400402D
:102033000576000876001223A5D0D0D082D083D0B5
:10204300F0D0E032E4F528F5289002DFE024FE1317
:1020530013543FFEE528C39E5038AF28122279EF70
:10206300C4540F9028A493FEE52825E025E0FD2421
:10207300E1F582E43402F583EEF0EF540F9028A4E7
:1020830093FE74E32DF582E43402F583EEF0052824
:1020930080B722C0E0C0F0C083C082C0D075D00832
:1020A30030D907120046C2D9802D30D81B75DC0207
:1020B30075D21275D41075E300C2DAC2D9C2D875CD
:1020C3005300787A7600800F30DA09C2DAE5DA3025
:1020D300E205800375D8FFD0D0D082D083D0F0D072
:1020E300E03275E229E4F5E343D18053D1FB43D1D8
:1020F300017400FE74008EEDF5EC75DC02E4F5DD91
:102103007400FE74408EEFF5EE75EA5075D212E45A
:10211300F5D37400FE74C08EE5F5E475EB0975D450
:1021230010E4F5D543E18743D81FD2EA22E55D45A4
:102133005E455C602A7531FF7532267533CEAB5C24
:10214300AA5DA95E1218E8EA494B60267BFF7A264E
:1021530079D21205637F647E0012238B0223247BD2
:10216300FF7A2679E51205637F647E0012238B12C2
:10217300247F22E4F56DC20AD20BF577C20DC20C9F
:10218300F56CF56BF56AF569D209F56FF570854D58
:1021930075854E76F56E85517385527485508285AB
:1021A3004F8304F0A37460F08552828551837401D8
:1021B300F0A37460F022EF139295D29700C29713A5
:1021C3009295D29700C297139295D29700C2971314
:1021D3009295D29700C297139295D29700C2971304
:1021E3009295D29700C297139295D29700C29713F4
:1021F3009295D29700C297228E308F318B328A33D9
:102203008934E4FF7585C0E53125E0F531E53033E8
:10221300F530EFC39536E49535501DEF25E02531B4
:10222300F58475868EAB32AA33A9348F8275830009
:10223300E58E1209AB0F80DA224393025392FD43DA
:1022430093105392EF4393205392DF43934043926F
:102253004043938053927F439701439601439702F0
:102263005396FD4397045396FB43970843960843BD
:1022730097105396EF227EFFEF146012146014142C
:1022830060161460182404701A903FFC8012903F6B
:10229300FD800D903FFE8008903FFF8003903FFA42
:1022A300E493FEEEFF22300A26E570656F7020E5A9
:1022B300D430E706AE4BAF4C8004AE4DAF4E8E75B7
:1022C3008F76787AE6F56FE4F570C20A53D4F32279
:1022D30074FFFE7880E6FF08E6900140CFF0A3EF9D
:1022E300F07B017A0179407D377C00121B57900106
:1022F300AEEEF0A3EFF0021BCC301124C211056D3A
:10230300AF6DD3EF94FA748094804003756DFAAF88
:102313006DC3EF94C8748094805003C29122D2910C
:1023230022752838752900C2BCE4F593F59275909F
:10233300FFF5E175E2067F64FE12238BC2AFAA2884
:10234300A929020A837B017A0179407D387C001236
:102353001B57EF4E6002C322900140E0FFA3E078D9
:1023630080CFF608EFF6D322EFFBEEFAECF52ECF93
:10237300EDCFEFF52FCFEBCFEA7B007A00792E7507
:102383003500753602021CB2EFFDEEFCED4C601118
:102393007FE87E0312241FE4F5FFED1D70EE1C8021
:1023A300EB22054AC3E54A9464748094804003E4B5
:1023B300F54AE54A7002D20ED211227B007A0079E7
:1023C3002E7535007536021221FBE52EFEE52FFF33
:1023D300228F45E545B40A057F0D120003AF451270
:1023E30000037F0022438780759850758DE6758BB7
:1023F300E6C2ABD28ED2AC2275A15575A1AAE5B9BE
:1024030054F84405F5B9E4F5A122EFFDEEF59E433A
:102413009D02539DFD439D08EDF59B22EF4E600DFC
:1024230005A105A105A1EF1F70F21E80EF2243C98C
:10243300F0758921758CC1758A80D28CD2A922EF5F
:10244300C39441400AEF945B5005EF2420FF2222FE
:1024530075A15575A1AA43B101E4F5A1F5FF22EFDA
:10246300C394204007EF947F50028001C322300EB3
:102473000AC20E301005C2101222D32275A155755F
:10248300A1AA43B110E4F5A1221222A912179802BE
:102493001C40021DDC200030782530345820000A0F
:1024A300002042616420416472657373210A006DE8
:1024B300656D7264205B68657820616464725D2079
:1024C30052656164204D656D6F72792E0A007265E5
:1024D3006164000A307825303458200025303458A0
:1024E3002000777269746500207772697465203003
:1024F30078253034580020746F20656570726F6DD5
:102503002061646472657373203078253034582EEB
:102513002E2E0A006C6F6164004C6F61642066723A
:102523006F6D20496E742E20454550524F4D2E2E0F
:102533002E0A0073617665005361766520746F20FF
:10254300496E742E20454550524F4D2E2E2E0A00B3
:10255300656570726F6D205B6C6F61647C7361760F
:10256300657C726561647C77726974655D205B610B
:102573006464725D205B646174615D204F70657299
:1025830061746520496E742E20454550524F4D2E7F
:102593000A006563686F00204543484F3D25640A80
:1025A3000075736E002055534E3D25640A00636C1D
:1025B3006B6F004D434C4B4F43523D3078253034C5
:1025C300580A00746573740020544553543D2564C0
:1025D3000A006C6564004C45443D25640A0070772D
:1025E3006D0050574D3D25640A006374726C205B87
:1025F3006563686F7C73657269616C7C6C65645D2F
:10260300205B706172616D5D20446576696365204E
:102613004374726C2E0A00204543484F3D256420C5
:1026230055534E3D2564204C45443D25640A002006
:102633004C6F616420706172616D657465727320A3
:1026430066726F6D20454550524F4D2E2E2E0A0057
:10265300205361766520706172616D657465727374
:1026630020746F20454550524F4D2E2E2E0A007276
:102673006573746F72650020526573746F726520A1
:1026830064656661756C7420706172616D657465F3
:1026930072732E2E2E0A00706172616D205B6C6F57
:1026A30061647C736176657C726573746F72655D5A
:1026B300204F70657261746520706172616D65741D
:1026C3006572732E0A00202D3E200069737000206E
:1026D3007265626F6F7420746F204953502E2E2ED3
:1026E3000A00207265626F6F742E2E2E0A00205529
:1026F30053422D426C6173746572207625642E25D6
:10270300642E256420534E3A000A204543484F2047
:1027130053747564696F203C6563686F2E786A74BF
:102723007540676D61696C2E636F6D3E2E20416C41
:102733006C2052696768747320526573657276659D
:10274300642E0A006374726C00656570726F6D00AD
:10275300706172616D007265626F6F7400726562A1
:102763006F6F74205B64656C6179206D735D2052BB
:102773006573746172742073797374656D2E0A00C6
:1027830068656C700068656C7020496E666F2E0A10
:102793000076657273696F6E00646973706C61793A
:1027A3002053572076657273696F6E20616E6420C3
:1027B300534E2E0A006D656D726400120100020013
:1027C300000040FB0901600004010203010902202B
:1027D30000010100804B0904000002FFFFFF020714
:1027E30005810240000007050202400000040309BE
:1027F300040E0341006C0074006500720061001850
:10280300035500530042002D0042006C0061007329
:10281300007400650072000A060002FFFFFF40001B
:1028230000000009FB600104004B80001C02000E45
:102833009418A212BA030E0041006C0074006500E4
:102843007200610318005500530042002D0042003E
:102853006C006100730074006500720312003000A5
:102863003000300030003000300030003003020010
:102873000145524256000000000000000000000025
:102883000000000000000000000000000000000045
:10289300000000000000000000000000000000CB6A
:1028A3002A3031323334353637383941424344459F
:0228B3004600DD
:00000001FF
