:10000000021C778F993099FDC299220223FE438703
:1000100080759850758DE6758BE6C2ABD28ED2ACEA
:0100200022BD
:10002300021EFA8F31E531C4540F902CE693FF1270
:0E0033000003E531540F902CE693FF0200030A
:1000430002249EE5D9543F70030204FC24FE602081
:1000530024E2700302049124F0602A240F60030257
:100063000502E4F5D3E5D254FC4402F5D2D20B22C7
:1000730020DE030205027877A6DBE5D454F34408B7
:10008300F5D4D20A22E5DC54036403700215DCAF15
:10009300DB7523008F24E5246408452360030204F1
:1000A30066900007E0FE900006E0FDEEF568EDF5D2
:1000B30069D3E569947FE568940040067568007527
:1000C300697FE4F523F524900000E0F56AA3E0F5E9
:1000D3006BE56A546070030201AFE56A30E767E5D8
:1000E3006B24FB604324FB6025247A704A90000450
:1000F300E0543FF52525E02466F582E4342CF583AE
:10010300E493FC740193900000F0ECA3802390002F
:1001130004E064027006787FE6FF80047878E6FFE7
:10012300900000EFF002030F9000007401F0A3743D
:1001330060F07523008009E4900000F0A3F0F5233C
:1001430075240202046CE56B246F6053146037243A
:1001530092B40C004003020466900163F8282873EC
:1001630002018702018902018902018902018902D0
:1001730001AC0201890201890201AC02018B020177
:10018300AC020189801B8019900004E06401900097
:10019300027006E07878F68004E0787FF68002D279
:1001A3000FE4F523F52402046C020466E56BB40B3B
:1001B3000040030204649001C0F82828730204423B
:1001C3000203210204640203A00204640202EF0298
:1001D30001E10204640202FB02031802046C9000B2
:1001E30003E024FE601F14603924FD7003020285BE
:1001F300240560030202877572FF75732C75740002
:10020300902C0080567572FF75732C757412902CA8
:1002130015E493FE902C14E493FDEEF523EDF52401
:100223008068900002E01460181460231460302486
:1002330003703B7572FF75732C757432902C32808A
:100243001A7572FF75732C757436902C36800C7585
:1002530072FF75732C757444902C44E493801C7561
:1002630072017573027574E59002E5E0800D757295
:10027300017573027574E59002E5E0752300F524BA
:10028300800880007523007524FFD3E5699524E574
:100293006895234006852368852469E524F445236E
:1002A300700302046CC3E5699440E568940040065A
:1002B3007E007F408004AE68AF698E238F24740074
:1002C300F87400FC7401FDAB72AA73A9741205D310
:1002D300C3E5699524F569E5689523F568E5242563
:1002E30074F574E5233573F57302046C900002E032
:1002F300756800F56902046C900000E56FF0C3E5D2
:10030300699401E5689400500302046C7523007539
:10031300240102046C900002E0F56F02046CE56AAC
:10032300541FFD7C007020900003E0FE900002E06B
:10033300FBEB64014E700D902C199330E50302041E
:100343006C020466020466ED64024C704D90000476
:10035300E014603D14602914601524826028146041
:1003630014147033E5D654BC4402F5D602046C531E
:10037300D67302046CE5D454BC4402F5D402046C75
:1003830053D47302046CE5D254BC4402F5D2020484
:100393006C53D27302046C020466020466E56A5469
:1003A3001FFD7C007020900003E0FE900002E0FB44
:1003B300EB64014E700D902C199330E50302046C2D
:1003C300020466020466ED64024C7071900003E05F
:1003D300FE900002E0FDED4E7061900005E0FE909E
:1003E3000004E0FDEDFFEE7050EF14604214602B4B
:1003F3001460142482602E14601714703CE5D654E4
:10040300BF4403F5D68062E5D6547F440CF5D6800D
:1004130058E5D454BF4403F5D4804EE5D4547F4407
:100423000CF5D48044E5D254BF4403F5D2803AE5B9
:10043300D2547F440CF5D28030802880268024E477
:10044300900000F0A3F0C3E5699402E568940040CE
:10045300067E007F028004AE68AF698E238F2480FE
:100463000880007523007524FFE524F445237007F5
:10047300756BFF75DCCF22D3E5249440E52394000C
:1004830050058524DD8003E4F5DD75DCC022E56AD3
:1004930054606002805EE56B24FB604E147055C3AC
:1004A300E5699440E568940040067E007F4080043F
:1004B300AE68AF698E238F247400F87400FC740156
:1004C300FDAB72AA73A9741205D3C3E5699524F52C
:1004D30069E5689523F568E5242574F574E5233506
:1004E30073F5738524DD63DC4022E5E354804569BD
:1004F300F5E38008E4F5DD8003E4F5DD75DC022235
:10050300E709F608DFFA8046E709F208DFFA803EDA
:1005130088828C83E709F0A3DFFA8032E309F608C7
:10052300DFFA8078E309F208DFFA807088828C832F
:10053300E309F0A3DFFA806489828A83E0A3F608E3
:10054300DFFA805889828A83E0A3F208DFFA804CBD
:1005530080D280FA80C680D4806980F28033801094
:1005630080A680EA809A80A880DA80E280CA8033FD
:1005730089828A83ECFAE493A3C8C582C8CCC58375
:10058300CCF0A3C8C582C8CCC583CCDFE9DEE78045
:100593000D89828A83E493A3F608DFF9ECFAA9F0C4
:1005A300EDFB2289828A83ECFAE0A3C8C582C8CC1A
:1005B300C583CCF0A3C8C582C8CCC583CCDFEADE33
:1005C300E880DB89828A83E493A3F208DFF980CC95
:1005D30088F0EF60010E4E60C388F0ED2402B4048E
:1005E3000050B9F582EB2402B4040050AF23234535
:1005F300822390055373BB010CE58229F582E583C1
:100603003AF583E0225006E92582F8E622BBFE068E
:10061300E92582F8E222E58229F582E5833AF5832A
:10062300E49322BB010689828A83F0225002F722D7
:10063300BBFE01F322F8BB010DE58229F582E583B8
:100643003AF583E8F0225006E92582C8F622BBFE7C
:1006530005E92582C8F222BC000BBE0029EF8DF00C
:1006630084FFADF022E4CCF875F008EF2FFFEE33F2
:10067300FEEC33FCEE9DEC984005FCEE9DFE0FD5A1
:10068300F0E9E4CEFD22EDF8F5F0EE8420D21CFE75
:10069300ADF075F008EF2FFFED33FD4007985006DE
:1006A300D5F0F222C398FD0FD5F0EA22BB0110E585
:1006B3008229F582E5833AF583E0F5F0A3E0225041
:1006C30009E92582F886F008E622BBFE0AE92582BD
:1006D300F8E2F5F008E222E5832AF583E993F5F0E1
:1006E300A3E99322BB010DC58229C582C5833AC5FF
:1006F300830208445011C58229F808E5F026F6184C
:10070300F5F0E58236F622BBFE11C58229F808E230
:1007130025F0F5F0F218E23582F222F8E58229F5A8
:1007230082E5832AF58374019325F0F5F0E4933889
:1007330022F8BB0111E58229F582E5833AF583E8C6
:10074300F0E5F0A3F0225009E92582C8F608A6F0E7
:1007530022BBFE09E92582C8F2E5F008F222EB9FED
:10076300F5F0EA9E42F0E99D42F0E89C45F022E66E
:10077300FC08E6FD08E6FE08E6FF22ECF608EDF6C7
:1007830008EEF608EFF622BB010789828A83020886
:10079300D95005E9F80208B7BBFE05E9F80208EBF2
:1007A30089828A830208FDBB011A89828A83D0F079
:1007B300D0E0F8D0E0F9D0E0FAD0E0FBE8C0E0C048
:1007C300F00208E25016E9F8D083D082D0E0F9D0E5
:1007D300E0FAD0E0FBC082C0830208D0BBFE16E97A
:1007E300F8D083D082D0E0F9D0E0FAD0E0FBC08229
:1007F300C0830208F4228A838982E473EF4E601275
:10080300EF60010EEDBB010B89828A83F0A3DFFC4D
:10081300DEFA2289F05007F709DFFCA9F022BBFEBC
:10082300FCF309DFFCA9F022BB010689828A83E07D
:10083300225002E722BBFE02E32289828A83E493E9
:1008430022C5F0F8A3E028F0C5F0F8E58215827020
:10085300021583E038F022E88FF0A4CC8BF0A42CAF
:10086300FCE98EF0A42CFC8AF0EDA42CFCEA8EF0BB
:10087300A4CDA8F08BF0A42DCC3825F0FDE98FF0A2
:10088300A42CCD35F0FCEB8EF0A4FEA9F0EB8FF099
:10089300A4CFC5F02ECD39FEE43CFCEAA42DCE3521
:1008A300F0FDE43CFC22C3E49FFFE49EFEE49DFDD7
:1008B300E49CFC22E6FB08E6FA08E6F922FAE6FBEA
:1008C3000808E6F925F0F618E6CA3AF622EBF60828
:1008D300EAF608E9F622E0FBA3E0FAA3E0F922EB4B
:1008E300F0A3EAF0A3E9F022E2FB08E2FA08E2F956
:1008F30022EBF208EAF208E9F222E493FB74019393
:10090300FA740293F922D083D082F8E493701274BC
:100913000193700DA3A393F8740193F5828883E484
:10092300737402936860EFA3A3A380DFE5402434CC
:10093300F8E605402278313007027834E475F00197
:100943001208C002082B2000EB7F2ED2008018EF84
:10095300540F2490D43440D4FF30040BEF24BFB49D
:100963001A0050032461FFE541600215410544E587
:10097300447002054330070D7831E475F001120825
:10098300C0EF0206260228B67403D2078003E4C22E
:1009930007F5408B318A328933E4F541F543F54459
:1009A300E54160077F2012096A80F57542FFC201A5
:1009B300C200C202C203C205C206C208120938FF3E
:1009C300700D3007057F0012097BAF44AE4322B49C
:1009D300255FC2D5C204120938FF24D0B40A0050DF
:1009E3001A75F00A784130D50508B6FF0106C6A48A
:1009F30026F620D5047002D20380D924CFB41A007E
:100A0300EF5004C2E5D204020B7BD20180C6D200B0
:100A130080C0D20280BCD2D580BAD20580B47F20F8
:100A230012096A2002077401B5410040F112092F2F
:100A3300FF12096A0209A3D208D206809512092F70
:100A4300FB12092FFA12092FF94A4B7006794C7AD7
:100A53000C7BFF20022EE541602A7E008E82758387
:100A6300001205F960060EEE654270F0C2D5EBC0C8
:100A7300E0EAC0E0E9C0E0EE120BC2D0E0F9D0E05A
:100A8300FAD0E0FB12082BFF60AAEBC0E0EAC0E05B
:100A9300E9C0E012096AD0E02401F9D0E03400FA99
:100AA300D0E0FBE5420460DCD542D980877BFF7A46
:100AB3000B79BED202809C791080027908C206C2EB
:100AC300088008D2D5790A8004790AC2D5E54204A0
:100AD3007002F542E4FAFDFEFF12092FFC7B0820A9
:100AE300011312092FFD7B1030000A12092FFE1289
:100AF300092FFF7B20EC3382D592D55013C3E4300A
:100B030000069FFFE49EFEE42001039DFDE49CFCA0
:100B1300E4CBF8C201EC700CCFCECDCCE824F8F8CE
:100B230070F38017C3EF33FFEE33FEED33FDEC3389
:100B3300FCEB33FB994002FB0FD8E9EB300105F8DE
:100B4300D0E0C448B201C0E00AEC4D4E4F78207BA0
:100B53000070C2EAB5420040BCC0E0120BC4D0F042
:100B6300D0E0200104C4C0E0C4B201C0F0120953B4
:100B7300D0F0D5F0EB0209A31209090A40530ABACF
:100B8300580A114C0A0D420ABE4F0AC6440AC64906
:100B93000A26430ACC550AB0460AB0450AB0470CA8
:100BA3006C500A152D0A192E0A3C2B0A1D230A3AEA
:100BB300200C552A09D54800000A343F3F3F0079ED
:100BC3000AA2D5200314300509B910020404B90898
:100BD3000104A2D52006025001042002689202B546
:100BE30041005034C0E07F203003197F30A20272ED
:100BF300067205500F120C1BC202C206C205C208C0
:100C03007F30800F300503E9C0E012096A30050325
:100C1300D0E0F9D0E0B541CC3005177F30B9100CE6
:100C230012096A7F583004077F788003B9080312DA
:100C3300096A3002057F2D02096A7F202008F87FA8
:100C43002B2006F322920280CF286E756C6C29004C
:100C5300D20112092F3001F8C201784130D50108C1
:100C6300F60209D52D5043495812092F2403B40520
:100C7300004001E4900C679312095B743A12095B1C
:100C8300D203754104020ABAE55C455D455B700316
:100C9300020ECB7531FF7532297533C4AB5BAA5C89
:100CA300A95D121D03EA494B6046E55F4560455E59
:100CB300602D752B00752C00752D00752E0AAB5E0B
:100CC300AA5FA960121267EF5401FFEF5401FF7886
:100CD3007DE6FC08E654FEFDEC18F6ED4F08F67BC6
:100CE300FF7A2979C9753400787EE65401020DB480
:100CF3007531FF7532297533D4AB5BAA5CA95D12DC
:100D03001D03EA494B6060E55F4560455E603A75E7
:100D13002B00752C00752D00752E0AAB5EAA5FA9FA
:100D230060121267EF5401FFEF5401C4F8540FC867
:100D330068FFE4C454F048FE787DE6FC08E654EF0F
:100D4300FDEC4E18F6ED4F08F6797DE7C4F854F044
:100D5300C809E7C4540F487534005401F5357BFFC7
:100D63007A2979D8020F037531FF7532297533E279
:100D7300AB5BAA5CA95D121D03EA494B6038E55FD2
:100D83004560455E601D7534007535007536007528
:100D93003710AB5BAA5CA95D1210C39001CAE4F0E3
:100DA300A3EFF07BFF7A2979E79001CAE0F534A33A
:100DB300E0F535020F037531FF7532297533F8AB52
:100DC3005BAA5CA95D121D03EA494B6053E55F45CD
:100DD30060455E6033752B00752C00752D00752EF4
:100DE3000AAB5EAA5FA960121267EF5401FFEF54CA
:100DF3000125E0FFE433FE787DE6FC08E654FDFDC3
:100E0300EC4E18F6ED4F08F6797DE7C31309E713A7
:100E13007534005401F5357BFF7A2979FD020F0300
:100E23007531FF75322A753308AB5BAA5CA95D1275
:100E33001D03EA494B6038E55F4560455E601D75FB
:100E4300340075350075360075370AAB5EAA5FA9A5
:100E5300601210C39001C8EEF0A3EFF07BFF7A2A73
:100E6300790C9001C8E0F534A3E0F535020F037562
:100E730031FF75322A753315AB5BAA5CA95D121D70
:100E830003EA494B603AE55F4560455E602075348F
:100E93000075350075360075370AAB5EAA5FA96029
:100EA3001210C39001CCEEF0A3EFF012282E7BFFBB
:100EB3007A2A79199001CCE0F534A3E0F535804026
:100EC3007BFF7A2A792280387BFF7A2A79221209DA
:100ED30091753400787EE65401F535797DE7C4F8E1
:100EE30054F0C809E7C4540F487536005401F53768
:100EF3009001C8E0F538A3E0F5397BFF7A2A7950F1
:100F030012099122E4F528F529F52AF52BF52CF59C
:100F13002DE55C455D455B70030210B97531FF75C6
:100F230032287533FBAB5BAA5CA95D121D03EA494A
:100F33004B7003020FCDE55F4560455E7003021001
:100F4300C2753400753500753600753710AB5EAA6F
:100F53005FA9601210C38E288F29E4F52CF52DE5C7
:100F630029252DFFE528352CFED3EF943EEE940082
:100F7300504FE52D5407700D7BFF7A2979008E348D
:100F83008F351209917BFF7A29790AE529252DFFEF
:100F9300E528352CFEEF25E0FFEE33FE74C62FF572
:100FA3008274013EF583E0F534A3E0F5351209912F
:100FB300052DE52D7002052CD3943EE52C940040BD
:100FC3009E7BFF7A2879C90210BF7531FF753229DC
:100FD300753310AB5BAA5CA95D121D03EA494B7024
:100FE3000302106DE55F4560455E70030210C2E5C4
:100FF300624563456170030210C2753400753500A4
:10100300753600753710AB5EAA5FA9601210C3E492
:10101300F5288F29F534F535F536753710AB61AA08
:1010230062A9631210C3EFFDEEFCE52925E0FFE59D
:101033002833FE74C62FF58274013EF583ECF0A3CA
:10104300EDF07BFF7A29791674C62FF58274013E81
:10105300F583E0F534A3E0F5351209917BFF7A2996
:10106300792485283485293580527531FF753229D5
:10107300753343AB5BAA5CA95D121D03EA494B6060
:101083000B1221F37BFF7A29794880307531FF7584
:101093003229753363AB5BAA5CA95D121D03EA4970
:1010A3004B600B121FE77BFF7A297968800E7BFF69
:1010B3007A29798180067BFF7A2979811209912225
:1010C3008B318A328933E4F53DF53CF53BF53AF54E
:1010D30038F539E535453645346012EBC0E0EAC0F2
:1010E300E0E9C0E0AB34AA35A9361207AAAB310553
:1010F30033E533AA327002053214F912082BF53E98
:10110300C394094007E53ED3940D40E1E53E6420D6
:1011130060DBE53EB42D054339038016E53EB42B71
:1011230005433901800C74FF2533F53374FF3532E1
:10113300F532E53760046410703FAB31AA32A9334E
:1011430012082B64306009E537702E75370A802941
:101153009000011205F9FF64786004EFB45813435B
:10116300390175371074022533F533E43532F5321E
:101173008007E5377003753708AB310533E533AACC
:10118300327002053214F912082BF53EC394614004
:101193000AE53ED3947A5003533EDF74D0253EF5DF
:1011A3003EC3940A400CE53E9411406D74F9253E0C
:1011B300F53EE53EC395375060433901853D428591
:1011C3003C41853B40853A3FAF377E00E4FCFDABB5
:1011D3003DAA3CA93BA83A12085AC8ECC8C9EDC9B4
:1011E300CAEECACBEFCBE4FCFDFEEB253EF53DEEAC
:1011F3003AF53CED39F53BEC38F53AAF3DAE3CAD55
:101203003BFCAB42AA41A940A83FD312076150035C
:1012130002117C43390402117CE53920E003E480A8
:101223002DE53545364534601EAB31E53324FFF9F2
:10123300E53234FFFAEBC0E0EAC0E0E9C0E0AB34EA
:10124300AA35A9361207AAE53930E20774FFFFFE73
:10125300FDFC22E539AF3DAE3CAD3BAC3A30E1039A
:101263000208A9228B288A29892AE4F534F533F563
:1012730032F531F52FF530E52C452D452B6012EB7A
:10128300C0E0EAC0E0E9C0E0AB2BAA2CA92D12070D
:10129300AAAB28052AE52AAA297002052914F912FE
:1012A300082BF535C394094007E535D3940D40E188
:1012B300E535642060DBE535B42D05433003801646
:1012C300E535B42B05433001800C74FF252AF52A3C
:1012D30074FF3529F529E52E60046410703FAB28AF
:1012E300AA29A92A12082B64306009E52E702E75ED
:1012F3002E0A80299000011205F9FF64786004EF3B
:10130300B45813433001752E107402252AF52AE4CC
:101313003529F5298007E52E7003752E08AB2805BE
:101323002AE52AAA297002052914F912082BF53592
:10133300C39461400AE535D3947A50035335DF747F
:10134300D02535F535C3940A400CE5359411405347
:1013530074F92535F535E535C3952E5046433001EF
:10136300AF2E7E00E4FCFDAB34AA33A932A83112C0
:10137300085AC8ECC8C9EDC9CAEECACBEFCBE4FC26
:10138300FDFEEB2535F534EE3AF533ED39F532EC68
:1013930038F531AF34AE33AD32FC335080433004D3
:1013A300021320E53020E006E4FFFEFDFC22E52CDD
:1013B300452D452B601EAB28E52A24FFF9E529348A
:1013C300FFFAEBC0E0EAC0E0E9C0E0AB2BAA2CA92E
:1013D3002D1207AAE53030E21230E107E4FFFEFDEB
:1013E3007C802274FFFFFEFD7C7F22E530AF34AEAC
:1013F30033AD32AC3130E1030208A922EF1330944C
:10140300030214AF9295A2B3E433D297C4333333B8
:101413005480FEEFC3134EFFC297139295A2B3E419
:1014230033D297C43333335480FEEFC3134EFFC21A
:1014330097139295A2B3E433D297C43333335480D2
:10144300FEEFC3134EFFC297139295A2B3E433D2B8
:1014530097C43333335480FEEFC3134EFFC2971345
:101463009295A2B3E433D297C43333335480FEEF5F
:10147300C3134EFFC297139295A2B3E433D297C41A
:101483003333335480FEEFC3134EFFC29713929549
:10149300A2B3E433D297C43333335480FEEFC31380
:1014A3004EFFC297139295A2B30215549295A2963A
:1014B300E433D297C43333335480FEEFC3134EFF68
:1014C300C297139295A296E433D297C4333333541D
:1014D30080FEEFC3134EFFC297139295A296E43397
:1014E300D297C43333335480FEEFC3134EFFC297F6
:1014F300139295A296E433D297C43333335480FEC8
:10150300EFC3134EFFC297139295A296E433D2977B
:10151300C43333335480FEEFC3134EFFC297139289
:1015230095A296E433D297C43333335480FEEFC38A
:10153300134EFFC297139295A296E433D297C43306
:1015430033335480FEEFC3134EFFC297139295A219
:1015530096E433D297C43333335480FDEFC3134D32
:10156300FFC297228B2A8A2B892CE4F532F533901C
:1015730000071206AFFFAEF09000051206AFC39F3F
:10158300FFE5F09EFEC3E5319FE5309E500AAC3087
:10159300AD31ECFEEDFF80008E308F31AB2AAA2BEC
:1015A300A92C9000031206AF24FFFFE5F034FFFEE1
:1015B3009000071206AFFDEE55F0FEEF5DFF9000C1
:1015C300031206AFC39FFFE5F09EFEC3E5319FE51F
:1015D300309E500AAC30AD31ECFEEDFF80008E3210
:1015E3008F33AB2AAA2BA92C9000031206AF24FF3A
:1015F300FDE5F034FFFC9000071206AFFBEC55F05D
:10160300FCED5BFDAB2A12078AE92DF9EA3CFAEB04
:10161300C0E0EAC0E0E9C0E0E52FF8E52EFCE52DE7
:10162300FDD0E0F9D0E0FAD0E0FB1205D3C3E531F9
:101633009533FFE5309532FEAB2AAA2BA92C12076E
:101643008AEBC0E0EAC0E0E9C0E0E52F2533F9E525
:101653002E3532FAE9F8EAFCE52DFDD0E0F9D0E0C9
:10166300FAD0E0FB1205D3AB2AAA2BA92C900007D2
:10167300E5308531F01206E79000071206AFFFAEA2
:10168300F09000051206AF6F7003E5F06E7017ABB4
:101693002AAA2BA92C900007F5F012073490000515
:1016A300E4F5F0120734AE30AF3122E4F52820120E
:1016B300030217E8752CFF752D28752EBF7B017A61
:1016C300027966121D858B588A59895AEA494B60FB
:1016D3006F752CFF752D28752EBF7B007A0079005E
:1016E300121D858B5B8A5C895DEA494B6052752CC0
:1016F300FF752D28752EBF7B007A007900121D859A
:101703008B5E8A5F8960EA494B6035752CFF752DC6
:1017130028752EBF7B007A007900121D858B618AA4
:10172300628963EA494B6018752CFF752D28752E65
:10173300BF7B007A007900121D858B648A658966F8
:10174300E4F528E528C39567502F75F009E528A42B
:1017530024A6F582E5F03402F583E0FBA3E0FAA3C7
:10176300E08B318A32F533AB58AA59A95A121D03BB
:10177300EA494B7004052880CAE528C395675036AB
:1017830075F009E528A424ACF582E5F03402F5836D
:10179300E0FBA3E0FAA3E0F9EA494B601975F0090D
:1017A300E528A424ACF582E5F03402F583A3E0FA3E
:1017B300A3E0F91207F9755800755900755A0075B9
:1017C3005B00755C00755D00755E00755F0075609C
:1017D30000756100756200756300756400756500CE
:1017E300756600C21222E4F528F529F52AF52BF5D2
:1017F3002CF52DF52EF52FF530E55C455D455B7039
:1018030003021919753400753500753600753710E4
:10181300AB5BAA5CA95D1210C38E288F29E529450D
:101823002870030219118E2A8F2BE4F52DF52E7BD8
:10183300FF7A2879C1E52EC4F8540FC868FFE52D57
:10184300C454F048FEE5292FF535E5283EF534125A
:101853000991E4F52FF530E52EC4F8540FC868FF5D
:10186300E52DC454F048FEE5302FFFE52F3EFEE59D
:101873002B2FF582E52A3EF583E493F52CFF120026
:10188300267F201200030530E5307002052FC39434
:1018930010E52F940040C0E4F52FF530E52EC4F891
:1018A300540FC868FFE52DC454F048FEE5302FFF00
:1018B300E52F3EFEE52B2FF582E52A3EF583E493E3
:1018C300F52CFF7E00C3942074809480400CD3EFEA
:1018D300947E74809480500280027F2E1200030550
:1018E30030E5307002052FC39410E52F940040AC0F
:1018F3007BFF7A2879C9120991052EE52E7002051E
:101903002DC39410E52D94005003021832227BFF5F
:101913007A2879CC80067BFF7A2879DB1209912219
:10192300021A00000218FFFF02702B55048000000A
:101933000000C111C10EC11002790000027B00003A
:10194300017804017F04017700C10F016F00037266
:101953000000005202E5120346004600460046001E
:101963004600460046004600016C00026D0000C1BF
:101973000AC18B025600000358000000035B0000FD
:1019830000035E0000000361000000036400000028
:10199300603F02A6FF2B86FF2A22FF0C8BFF2B8BB7
:1019A300FF2981FF0F07FF2B92FF2AD4FF1E05FF9C
:1019B3002B98FF2B9FFF2538FF2BC3FF2BC8FF1E40
:1019C30080FF2BD5FF2BDDFF2300FF2BFAFF28DB46
:1019D300FF17E9016707C112017500017600602056
:1019E30002460000000000000000000000000000AC
:1019F30000000000000000000000000000000000E4
:101A030000006040026600000000000000000000CB
:101A130000000000000000000000000000000000C3
:101A230000000000000000000000000000000000B3
:101A330000000000000000000000000000000000A3
:101A4300000000000000008F27E4F575AF2712287F
:101A5300835038AF75057574462FF582E43402F56B
:101A630083E527F0AF76C3EF9440748094804003FE
:101A7300021B28AF27122863AE76057674662EF50F
:101A830082E43402F583EFF0021B28E52764087033
:101A930043AF75057574462FF582E43402F58374FC
:101AA30008F0AF75057574462FF582E43402F583AB
:101AB3007420F0AF75057574462FF582E43402F592
:101AC300837408F0AF76D3EF94007480948040550C
:101AD30015768051E527640D704BAF750575744617
:101AE3002FF582E43402F583740DF0AF7505757438
:101AF300462FF582E43402F583740AF0AF76C3EF20
:101B03009440748094805016AF76057674662FF5F2
:101B130082E43402F583E4F0F576D2128007E49090
:101B230002A5F0F576AF75C3EF94407480948040BE
:101B330003E4F57522C3E5559553E55495524003E7
:101B4300021BE07B007A0079491226DCEF60030276
:101B53001BE074862555F58274013554F583E0F551
:101B630028E55745567049E5285480C36001D39250
:101B73000DE5285440C36001D3920C300D0BE528CA
:101B8300543F755600F5578049AF28300C1D122677
:101B930075A2B3E43325E0FFA296E4334FF5287B27
:101BA300007A007949FD1223AC8027122675802222
:101BB300AF28300C121213FF8F287B007A0079496B
:101BC300AD281223AC8003122357E5571557700233
:101BD30015560555E55570020554021B3822200B96
:101BE30003021C767B007A0079491227EF8F287E47
:101BF30000D3EF943E74809480400575283E802B7B
:101C0300EF4E70277880120772C3EF9548FFEE9569
:101C130047FEED9546FDEC9545FCE47B0AFAF9F8A1
:101C2300D3120761400530094AC20978801207724E
:101C33008F488E478D468C45752D01752E01752F66
:101C4300487530008528317B007A00794912156781
:101C5300C20BE5282402F529FF7E00C87442C8742C
:101C630000FC7401FDFB7A0179461205D38529D363
:101C730053D2FC22787FE4F6D8FD758183021CBE23
:101C83000222A9E493A3F8E493A34003F68001F2AC
:101C930008DFF48029E493A3F85407240CC8C33362
:101CA300C4540F4420C8834004F456800146F6DF31
:101CB300E4800B0102040810204080901923E47E85
:101CC300019360BCA3FF543F30E509541FFEE49326
:101CD300A360010ECF54C025E060A840B8E493A3ED
:101CE300FAE493A3F8E493A3C8C582C8CAC583CA18
:101CF300F0A3C8C582C8CAC583CADFE9DEE780BED0
:101D03008B2E8A2F8930AB31AA32A93312082B606C
:101D130063AB2EAA2FA93012082B605F853134855F
:101D230032358533368B378A388939AB34AA35A9AE
:101D33003612082BFF6023AB37AA38A93912082BB8
:101D43006F7017042536F536E43535F535740125FE
:101D530039F539E43538F53880D1AB34AA35A936AD
:101D630012082B7002800D74012530F530E4352FF5
:101D7300F52F809DAB2EAA2FA930227B007A007904
:101D830000228B298A2A892BE94A4B7009851C2951
:101D9300851D2A851E2BE52B452A45297002802C9B
:101DA300852C32852D33852E34AB29AA2AA92B12F3
:101DB3002135EF252BF52BEE352AF52AAB29FAA988
:101DC3002B12082B700AF51CF51DF51EFBFAF922E0
:101DD300852C32852D33852E34AB29AA2AA92B12C3
:101DE30021968B1C8A1D891EEA494B600EE412065C
:101DF3002604251EF51EE4351DF51DAB29AA2AA9C7
:101E03002B22E55C455D455B60697531FF753229C1
:101E1300753343AB5BAA5CA95D121D03EA494B60B2
:101E23000C7BFF7A2A79691209910227797531FFB0
:101E3300753229753363AB5BAA5CA95D121D03EA96
:101E4300494B600C7BFF7A2A798B120991D21022BD
:101E53007531FF75322A7533ABAB5BAA5CA95D1292
:101E63001D03EA494B7BFF600C7A2A79B31209916F
:101E730002224E7BFF7A2A79D412099122E4F528B3
:101E8300F528C3E528940674809480506975F00999
:101E9300E528A424ACF582E5F03402F583E0FBA346
:101EA300E0FAA3E0F9EA494B60487BFF7A2879BF5F
:101EB30012099175F009E528A424A6F582E5F0340A
:101EC30002F583E0FBA3E0FAA3E0F91209917BFF9B
:101ED3007A2B790412099175F009E528A424A9F550
:101EE30082E5F03402F583E0FBA3E0FAA3E0F91204
:101EF30009910528808C22C0E0C0F0C083C082C055
:101F0300D0E8C0E0E9C0E0EAC0E0EBC0E0ECC0E04C
:101F1300EDC0E0EEC0E0EFC0E030982BAF99121AAD
:101F23004A752600E526C39575501A787EE630E09B
:101F33001474462526F582E43402F583E0FF12008B
:101F430003052680DFC298309902C299D0E0FFD002
:101F5300E0FED0E0FDD0E0FCD0E0FBD0E0FAD0E042
:101F6300F9D0E0F8D0D0D082D083D0F0D0E0328B5B
:101F73002E8A2F89308C318D32E4FDFC74FFF533CA
:101F8300F534E4F535F536C3ED9532EC9531504F24
:101F9300ED25E0FFEC33AB2EAA2FA9308F82F5831A
:101FA3001206AFAEF06234EE6233E4FAFB7535002D
:101FB300E5345401F536E533C313F533E53413F54E
:101FC30034E536453560066334016333A00BBB004B
:101FD300010AEB64084A70D50DBD00010C80A8AE60
:101FE30033AF34227B017A0179C67D3E7C00121F18
:101FF300728E188F19E4FDFCFFFE12279CAD19ACFD
:10200300187F027E0012279CE4F51AF51BE51B25B9
:10201300E0FDE51A33FCED2404FFE43CC0E0EFC02F
:10202300E074C62DF58274013CF583E0FCA3E0FD6A
:10203300D0E0FFD0E0FE12279C051BE51B700205D4
:102043001AC3943EE51A940040C3900242E518F087
:10205300A3E519F0AE18FF228B288A29892AE52FD8
:10206300452E6012E52F24FFFFE52E34FF552EFE8B
:10207300E52F5F4E60037F00227E007F097D00AB6A
:1020830028AA29A92A1207FFAB2BAA2CA92DEBC03A
:10209300E0EAC0E0E9C0E0AB28AA29A92A1207AA0E
:1020A300AB28AA29A92A900003E52E852FF0120751
:1020B30034900005E4F5F0120734900007E4F5F0DE
:1020C3001207347F01228E308F318B328A33893469
:1020D30075A15575A1AA43B104E4F5A17585C0E5C1
:1020E3003125E0F531E53033F530E4FFEFC39536C4
:1020F300E495355030EF25E02531F584AB32AA3332
:10210300A9348F827583001205F9F58EE58630E6D2
:102113000375869AE5866440D39400748094804066
:1021230001220F80C775A15575A1AA53B1FBE4F530
:10213300A1228B2F8A308931E4F535F536E4FEFF91
:10214300AB32AA33A9348F828E831205F9FD601353
:10215300AB2FAA30A93112082B6D60070FBF000106
:102163000E80DDAB32AA33A9348F828E831205F938
:102173007002801A0536E53670020535AB2F05313E
:10218300E53170020530F9AA3012082B70AFAE3575
:10219300AF36228B2F8A30893185323585333685A8
:1021A3003437AB35AA36A93712082BFF6019AB2F8A
:1021B300AA30A93112082B6F600D74012537F5374A
:1021C300E43536F53680DBAB35AA36A93712082B52
:1021D3006007AB2FAA30A93122AB2F0531E531AA15
:1021E300307002053014F912082B70ADFBFAF92296
:1021F300E4F51AF51BE51B25E0FFE51A33FEEF2492
:1022030004FFE43EFE122806EEFCEFFDE51B25E08D
:10221300FFE51A33FE74C62FF58274013EF583EC95
:10222300F0A3EDF0051BE51B7002051AC3943EE510
:102233001A940040C07F027E001228068E188F1960
:10224300900242E518F0A3E519F022E4FFEFC394EE
:1022530040748094805014EF25E024C6F582E43462
:1022630001F58374FFF0A3F00F80E2E4787DF608B4
:10227300F6E64401F6E654FDF6E654FBF6E64408BA
:10228300F6E654EFF618E6FF08E69001C6CFF0A392
:10229300EFF0A3E4F0A37464F0E4A3F0A3F0A304C9
:1022A300F0A37480F02212281C7F0A7E001227BC40
:1022B3001228BC1221F3122779400612224E12274C
:1022C300051228521225FF12000E1225BF787EE652
:1022D30030E40312244F1224ED122874D2AFD291AA
:1022E3001216AE12272E122892E4F5FFE56F600353
:1022F3001228AD300FEAC20F12275580E3E4F52808
:102303007BFF7A2B792EE570C313753400547FF568
:10231300357805AE70E571CEC313CE13D8F9753693
:1023230000540FF537753800E571541FF53912095C
:1023330091E4F528C3E528940574809480500CAF8C
:10234300281226AC120026052880E97BFF7A2B7918
:1023530049020991EF139295D297EFC313FFC297E6
:10236300139295D297EFC313FFC297139295D29707
:10237300EFC313FFC297139295D297EFC313FFC214
:1023830097139295D297EFC313FFC297139295D2E7
:1023930097EFC313FFC297139295D297EFC313C25C
:1023A30097139295D297C297228D2C8B298A2A89CB
:1023B3002B1226DCEF60037F0022AB29AA2AA92B6C
:1023C3009000031206AF24FFFFE5F034FFFE9000F8
:1023D300051206AFFDEE55F0FEEF5DFF12078A8F83
:1023E300828E83E52C120638AB29AA2AA92B9000EA
:1023F30005E475F0011206E77F0122C0E0C0F0C0DA
:1024030083C082C0D075D010758CC1758A807880E6
:10241300120772EF2401FFE43EFEE43DFDE43CFCC1
:10242300788012077E787C06E618700106C3787CF4
:10243300E6940518E6940040057600087600122716
:10244300D6D0D0D082D083D0F0D0E032E4F528F5D6
:10245300289002E5E024FE1313543FFEE528C39EB3
:102463005038AF281226ACEFC4540F902CE693FEDD
:10247300E52825E025E0FD24E7F582E43402F58331
:10248300EEF0EF540F902CE693FE74E92DF582E401
:102493003402F583EEF0052880B722C0E0C0F0C017
:1024A30083C082C0D075D00830D907120046C2D984
:1024B300802D30D81B75DC0275D21275D41075E3EC
:1024C30000C2DAC2D9C2D8756F0078777600800F60
:1024D30030DA09C2DAE5DA30E205800375D8FFD0D5
:1024E300D0D082D083D0F0D0E03275E229E4F5E396
:1024F30043D18053D1FB43D1017400FE74008EEDB0
:10250300F5EC75DC02E4F5DD7400FE74428EEFF544
:10251300EE75EA4075D212E4F5D37400FE74848E2E
:10252300E5F5E475EB0875D410E4F5D543E187438D
:10253300D81FD2EA22E55C455D455B602A7531FF11
:1025430075322B753309AB5BAA5CA95D121D03EAD7
:10255300494B60267BFF7A2B790D1209917F647EAC
:10256300001227BC0227557BFF7A2B792112099190
:102573007F647E001227BC1228A0228E308F318BFD
:10258300328A338934E4FF7585C0E53125E0F531BE
:10259300E53033F530EFC39536E49535501DEF251F
:1025A300E02531F58475868EAB32AA33A9348F8248
:1025B300758300E58E1206380F80DA22C20AD20B29
:1025C300E4F556F557C20DC20CF548F547F546F547
:1025D30045D209F552F553F554F55590014604F0EB
:1025E300A37460F0752B01752C01752D06752E00F3
:1025F300752F407B007A00794902205B4393025395
:1026030092FD4393105392EF4393205392DF4393EE
:102613004043924043938053927F439701439601F3
:102623004397025396FD4397045396FB43970843FE
:1026330096084397105396EF22300A35E5556553B4
:102643007004E554655270297877E6FF7E0074863E
:10265300F87401FC7401FDFB7A0079841205D378C8
:1026630077E6755200F553E4F554F555C20A53D491
:10267300F322EF5410C36001D39295EF5402C36069
:1026830001D392B2EF5401C36001D39297EF540484
:10269300C36001D392B4EF5408C36001D39294EFA3
:1026A3005420C37001D39291227EFFEF1460121461
:1026B30060141460161460182404701A903FFC8090
:1026C30012903FFD800D903FFE8008903FFF8003F6
:1026D300903FFAE493FEEEFF229000071206AFFF4D
:1026E300AEF09000051206AFC39FFFE5F09EFE908B
:1026F30000031206AF6F7003EE65F07F0070027F78
:10270300012274FFFE787DE6FF08E69001C6CFF054
:10271300A3EFF07B017A0179C67D377C00121F722B
:10272300900234EEF0A3EFF0021FE7301123C21141
:10273300056EE56E7002056DC39001C9E0956E905C
:1027430001C8E0956D500AE4F56DF56EA291B39260
:102753009122752838752900C2BCE4F593F592756A
:1027630090FFF5E175E2067F64FE1227BCC2AFAAB3
:1027730028A9290207F97B017A0179C67D387C00F3
:10278300121F72EF4E6002C3229001C6E0FFA3E066
:10279300787DCFF608EFF6D322EFFBEEFAECF52EB9
:1027A300CFEDCFEFF52FCFEBCFEA7B007A00792E79
:1027B3007535007536020220C9EFFDEEFCED4C6065
:1027C300117FE87E03122840E4F5FFED1D70EE1C37
:1027D30080EB22056CC3E56C9464748094804003A1
:1027E300E4F56CE56C7002D20ED211229000071250
:1027F30006AFFFAEF09000051206AFC39FFFE5F0F2
:102803009EFE227B007A00792E7535007536021202
:10281300257EE52EFEE52FFF2275A15575A1AAE5BC
:10282300B954F84405F5B9E4F5A122EFFDEEF59EA0
:10283300439D02539DFD439D08EDF59B22EF4E60A2
:102843000D05A105A105A1EF1F70F21E80EF224324
:10285300C9F0758921758CC1758A80D28CD2A92261
:10286300EFC39441400AEF945B5005EF2420FF220D
:102873002275A15575A1AA43B101E4F5A1F5FF2283
:10288300EFC394204007EF947F50028001C32230AE
:102893000E0AC20E301005C2101227052275A1556B
:1028A30075A1AA43B110E4F5A12212263C121B38EC
:1028B300021BE11200037F00220221F32000307883
:1028C3002530345820000D0A002042616420416401
:1028D30072657373210D0A006D656D7264205B6808
:1028E300657820616464725D2052656164204D6582
:1028F3006D6F72792E0D0A0072656164000D0A30E6
:1029030078253034582000253034582000777269F8
:1029130074650020777269746520307825303458E7
:102923000020746F20656570726F6D20616464723E
:10293300657373203078253034582E2E2E0D0A00FF
:102943006C6F6164004C6F61642066726F6D204927
:102953006E742E20454550524F4D2E2E2E0D0A00DB
:1029630073617665005361766520746F20496E74D8
:102973002E20454550524F4D2E2E2E0D0A006565D3
:1029830070726F6D205B6C6F61647C736176657CC4
:10299300726561647C77726974655D205B616464F0
:1029A300725D205B646174615D204F706572617458
:1029B3006520496E742E20454550524F4D2E0D0A09
:1029C300006563686F00204543484F3D25640D0A49
:1029D3000075736E002055534E3D25640D0A006348
:1029E3006C6B6F004D434C4B4F43523D3078253059
:1029F30034580D0A00746573740020544553543DD4
:102A030025640D0A006C6564004C45443D25640D46
:102A13000A0070776D0050574D3D25640D0A006321
:102A230074726C205B6563686F7C73657269616C3B
:102A33007C6C65645D205B706172616D5D204465D3
:102A430076696365204374726C2E0D0A002045433A
:102A5300484F3D25642055534E3D2564204C454445
:102A63003D25640D0A00204C6F6164207061726122
:102A73006D65746572732066726F6D2045455052A3
:102A83004F4D2E2E2E0D0A00205361766520706166
:102A930072616D657465727320746F204545505281
:102AA3004F4D2E2E2E0D0A00726573746F726500E2
:102AB30020526573746F72652064656661756C740A
:102AC30020706172616D65746572732E2E2E0D0A0E
:102AD30000706172616D205B6C6F61647C73617601
:102AE300657C726573746F72655D204F706572618A
:102AF300746520706172616D65746572732E0D0A61
:102B030000202D3E200069737000207265626F6F94
:102B13007420746F204953502E2E2E0D0A002072FC
:102B230065626F6F742E2E2E0D0A00205553422DB1
:102B3300426C6173746572207625642E25642E259C
:102B43006420534E3A000D0A204543484F205374E6
:102B53007564696F203C6563686F2E786A7475408D
:102B6300676D61696C2E636F6D3E2E20416C6C2026
:102B73005269676874732052657365727665642E53
:102B83000D0A006374726C00656570726F6D00707E
:102B93006172616D007265626F6F74007265626F5E
:102BA3006F74205B64656C6179206D735D20526581
:102BB30073746172742073797374656D2E0D0A00DA
:102BC30068656C700068656C7020496E666F2E0DC9
:102BD3000A0076657273696F6E00646973706C6165
:102BE300792053572076657273696F6E20616E6426
:102BF30020534E2E0D0A006D656D726400120100A4
:102C03000200000040FB0901600004010203010906
:102C1300022000010100804B0904000002FFFFFFB6
:102C2300020705810240000007050202400000047C
:102C33000309040E0341006C007400650072006117
:102C43000018035500530042002D0042006C006140
:102C53000073007400650072000A060002FFFFFFA4
:102C6300400000000009FB600104004B80001C02CF
:102C7300000E9418A212BA030E0041006C007400F7
:102C830065007200610318005500530042002D00D7
:102C930042006C006100730074006500720312004F
:102CA300300030003000300030003000300030039E
:102CB30002000145524256000000000000000000DF
:102CC3000000000000000000000000000000000001
:102CD30000000000000000000000000000000000F1
:102CE30000CB2A3031323334353637383941424319
:042CF300444546000E
:00000001FF
