:070FF5005392FD4393022219
:100DCF00120F7B43C990758901C28CD2A975A001FE
:100DDF00120FF5C291120FC1120FD07F647E001255
:070DEF000F3912000380FB25
:100F7B0075A15575A1AAE5B954F84406F5B9E4F580
:020F8B00A122A1
:100EEC00EF4E601505A105A105A105A105A105A160
:0A0EFC0005A1EF1F70EA1E80E72237
:100F3900AD07AC06ED4C600E7FE87E03120EECEDBA
:070F49001D70F11C80EE2277
:080FED008F828E83E493FF2242
:030000000206D421
:0C06D400787FE4F6D8FD7581BF02071B9B
:100646001201000200000008666633230001010261
:10065600000109022900010100A03209040000027C
:1006660003000000092111010001221B00070501FA
:10067600034000010705810340000105010900A1AF
:1006860001150025FF7508954019012908810619ED
:100696000129089102C00403090414034E0037001F
:1006A600360045005F004900430050005F005400DB
:1006B6006F006F006C00180350004F005300590084
:0E06C600530054004F00520041004700450011
:050FDF0001BF00C10686
:100F6600E4F5E243E229F5E353E2BF53D1FB75D141
:050F76008043D10122BF
:100F9F0043E10443E10243E10143D81FD2EAD2AF58
:010FAF00221F
:100F500075ED0075EC8075EF0075EE0075D21275B9
:060F6000EAC075DC02226C
:0F0FC100120F66120F50120F9FE4F5DDF5D322C9
:100056008F1EE51E640860030202A0900087E0FE82
:10006600900086E0FDEEF523EDF524900081E0FF9B
:10007600F525E4F51E900080E0FE54606011EEB4B4
:100086002107EFB40A03E4F5DDE4F51E02029BE561
:1000960025B40B0040030202989000A6F8282873A6
:1000A60002027C0201C802029802021602029802AB
:1000B60001970200C70202980201A30201BD0202D3
:1000C6009B900083E024FE601914602424E16059AB
:1000D6002421706C752EFF752F06753046751E121D
:1000E600805E752EFF752F06753058751E29805057
:1000F600900082E0FF700E752EFF752F0675309CFE
:10010600751E04803BEFB4010E752EFF752F067524
:1001160030BC751E188029EFB40225752EFF752F89
:10012600067530A0751E1C8017900084E0700E7551
:100136002EFF752F06753081751E1B8003751EFFF9
:10014600AF1E7E00D3E5249FE5239E40048E238FB9
:1001560024C3E5249408E523940040047F08800224
:10016600AF248F1E7E0078807C007D01AB2EAA2FE7
:10017600A93012038AAF1E7E00C3E5249FF524E54D
:10018600239EF523EF2530F530EE352FF52F0202AD
:100196009B900082E0752300F52402029B9000806C
:1001A600E521F0C3E5249401E523940050030202FF
:1001B6009B751E0102029B900082E0F521D29102FE
:1001C600029B900080E0541FFD7020900083E0FEAB
:1001D600900082E0FBEB64014E700D90065F933059
:1001E600E50302029B020298020298BD021F9000DC
:1001F60084E014600F24807011E5D254BC4402F5EB
:10020600D202029B53D27302029B02029802029808
:10021600900080E0541FFD701B900083E0FE90006C
:1002260082E0FBEB64014E700990065F9320E56562
:100236008060805EED6402703B900083E0FE90007B
:1002460082E0FDED4E702B900085E0FE900084E08C
:10025600FDEDFFEE701AEF14600E24807012E5D2E9
:1002660054BF4403F5D2802DE5D2547F440CF5D219
:100276008020801E801CE4900080F0A3F0C3E5245B
:100286009402E52394004005751E02800885241E0D
:100296008003751EFFE51EB4FF0775DCCF7525FFCD
:1002A60022E51ED394085005851EDD8003E4F5DDA6
:0402B60075DCC02211
:100ADC00E52524FB604714704EC3E5249408E523F8
:100AEC00940040047F088002AF248F1E7E00788023
:100AFC007C007D01AB2EAA2FA93012038AAF1E7E7B
:100B0C0000C3E5249FF524E5239EF523EF2530F55E
:100B1C0030EE352FF52F851EDD63DC4022E5E354E6
:0D0B2C00804524F5E38003E4F5DD75DC026F
:010B39002299
:040FFC00E4F5DD2219
:100FB000E5D254FC4402F5D2C206300403120D43BC
:010FC000220E
:100F20008F1E900000E0B40B0A300403020A7953CC
:090F3000D2F322AF1E120DA32220
:030043000205AB08
:1005AB00C0E0C0F0C083C082C0D075D000C000C016
:1005BB0001C002C003C004C005C006C00730D9414A
:1005CB00E5D95430602324E0600B24F07031AFDBAD
:1005DB00120056802AE5D9540F14600804702012BB
:1005EB000ADC801B120FB08016E5D9540F14600A79
:1005FB0004700CAFDB120FFC8005AFDB120F20C2B7
:10060B00D930D81275DC0275D21275E300C2DAC28A
:10061B00D9C2D875210030DA04C2DA800375D8FF4D
:10062B00D007D006D005D004D003D002D001D00023
:0B063B00D0D0D082D083D0F0D0E032CD
:03005000570E5BED
:0F0FD000D295C296C2974392E04393E0D2952206
:100D0200E4F50CE50C90005093F50DE4F50BE50DC0
:100D120030E704D2958002C2957F0A7E00120F3915
:100D2200E50D25E0F50D050BE50BC3940840DF0545
:100D32000CE50CC3940340CBC2957F0A7E00020FE0
:010D42003977
:100F8D00D2977F017E00120EECC2977F017E000288
:020F9D000EEC58
:040DF6001203C9FF1C
:020DFA008F1C4C
:100DFC00E4F51DE51C30E704D2968002C296E51C92
:100E0C0025E0F51C120F8D051DE51DC3940840E36C
:010E1C0022B3
:0B0D7500F53AF539F538FB7A007938C3
:060D80008B188A19891A84
:100D8600E4F51B851B82758300A3AB18AA19A91A63
:0C0D9600120DF6051BE51BC3940340E79B
:010DA200222E
:100E1D00E4F50FD296F50EE50F25E0F50F309602AD
:100E2D00050F120F8D050EE50EC3940840E9120F44
:050E3D008DC296AF0F0D
:010E4200228D
:06085300AD07AC06E4FF56
:100859008C168D17AB07EB54C0FFE48F3BF53AF5C7
:1008690039F538AE3AAD39AC38780A12042A8F3BDB
:100879008E3A8D398C38E53B4517F53BE53A4516F7
:10088900F53AE539F539E538F538AF3BAE3AAD39E2
:10089900FC780612042A8F3B8E3A8D398C38EB543A
:1008A9003FFFE53B4FF53BE53AF53AE539F539E5E3
:0C08B90038F5387B007A007938020D8099
:020CBE008F168F
:100CC000E4F518D296F517E51825E0F518309602E8
:100CD0000518D2977F017E00120EECC29705A10580
:100CE000A105A105A105A10517E517C3940840D7E3
:100CF00005A1E5166004D2968002C296120F8DAF50
:010D000018DA
:010D010022CF
:060C28008B118A128913F2
:100C2E00120853E4F515E51414FFE515C39F50198A
:100C3E00E4FF120CBEAB11AA12A91385158275839F
:100C4E0000EF120408051580DD7F01120CBEE514BD
:100C5E007C0024FFF582EC34FFF583AB11AA12A9B8
:050C6E0013EF02040871
:060A11008B0A8A0B890C20
:100A1700120853E4F50EE50D14FFE50EC39F5027AA
:100A2700E4FF120CBE8F0FE50FF46002C201AB0AA0
:100A3700AA0BA90C850E827583001203C9650F6086
:100A470002C203050E80CF7F01120CBE8F0FE50F88
:100A5700F46002C2017E0074FF250DF582EE34FFBB
:100A6700F583AB0AAA0BA90C1203C9650F6002C272
:010A7700037B
:010A7800225B
:0A08C5008B0F8A108911AD07AC06F5
:1008CF00E51260637F21120859E4F513E51214FF56
:1008DF00E513C39F5027AB0FAA10A911851382757B
:1008EF008300120DF6C2967F237E00120EECD29774
:1008FF007F017E00120EECC297051380CF7E00742D
:10090F00FF2512F582EE34FFF583AB0FAA10A91164
:10091F00120DF6D2967F237E00120EECD2977F0136
:07092F007E00120EECC297DE
:01093600229E
:100E8F00AC06EF5480FD7F221208597FFF120DFA36
:100E9F007F0A7E00120F39120F8D7F647E00020EC3
:010EAF00EC56
:060E43008E0B8F0C8D0DDB
:100E4900E4F50EE50EC3950D5015E50E75F080A479
:0F0E5900250CFFE50B35F0FE120E8F050E80E421
:010E68002267
:100F06008D0EAD07AC067FE1120859AF0E120DFA31
:0A0F16007F017E00120F39020F8DDB
:0D003600AD07AC067FC0120859120E1D2246
:100BDC008B0B8A0C890D1203B0FDE4FFFE120F067D
:100BEC00AB0BAA0CA90D9000011203C9FD7F017E6D
:100BFC0000120F06AB0BAA0CA90D9000021203C930
:100C0C00FD7F027E00120F06AB0BAA0CA90D900003
:0C0C1C00031203C9FD7F047E00020F06D6
:100B3A008B0B8A0C890DE4FFFE120036AB0BAA0C54
:100B4A00A90DEF1203F67F017E00120036AB0BAA45
:100B5A000CA90D900001EF1204087F027E0012001A
:100B6A0036AB0BAA0CA90D900002EF1204087F0401
:100B7A007E00120036AB0BAA0CA90D900003EF02FF
:020B8A0004085D
:100EB00074A5FDFC7FE61208597FFF120DFA7F90A2
:0F0EC0007E01120F39120F8D7F017E00020F3954
:100B8C00120D02753B03753AA575395A7538007B01
:100B9C0000120D7CE4753B0B120D75120E1DEF64EB
:100BAC00DA6005D2957F0122E4753B0C120D7512AB
:100BBC000E1DEF64506002800FE4753B4C120D75F6
:0F0BCC00120E1DEF64366005D2957F02227F0066
:010BDB0022F7
:100E6900D2957F077E00120F39C2957F077E001247
:100E79000F39753BF0753A7875390F7538007B0075
:060E8900120D7CD295223F
:060FE4000135000133009D
:10000300E535602EC29112043DE533601DFF7E008D
:10001300783F7C007D007B017A00790012038A859A
:100023003335E4F53353D2F38003E4F5351209375E
:03003300D2912245
:100DA3008F1FE535600CE5D254F34408F5D2851F57
:100DB3003322AF1F7E00783F7C007D007B017A00E9
:0C0DC300790012038A851F3553D2F322F9
:100ECF002006FD7E0078407C007D017B007A007952
:0D0EDF007F12038A75D34053D2FCD2062245
:1009A6007841E6F50B18E6F50C7843E6F50D18E602
:1009B600F50EE50C450B6052D3E50C943EE50B9421
:1009C600007B007A007981402775143EAF0EAE0D8C
:1009D600120C287880A60E74C2250CF50C74FF350F
:1009E6000BF50B743E250EF50EE4350DF50D801353
:1009F600850C14AF0EAE0D120C287880A60EE4F509
:0A0A06000BF50C7F40120ECF80A804
:010A100022C3
:1007DC007842E6F50B18E6F50C783FE6B4051D7B80
:1007EC00007A00794308E6F512AF0CAE0B1208C57F
:1007FC00787F76050876017F02020ECF7840E6F509
:10080C003108E6547FF5347843E6FFB40116D20183
:10081C00D203C202850B36E50C5480F537783FE6DF
:10082C00F5328006EFB40302D202AF317E007400C1
:10083C002534F9E43401A801FC7D017B007A0079B0
:06084C004412038AD200F1
:010852002283
:1009370030006B7E00E5372534FFEE3536FE740058
:100947002534F9E43401FA7B0185310D120A11309F
:10095700024C787F7605087601E532B44509AF3752
:10096700AE36120E8F8012E532B4851F20032A207F
:100977000107AF37AE36120E8F7B017A017900750A
:100987001280AF37AE361208C5800EE532B4C50502
:0F0997002003068000E47880F67F02120ECF2244
:10043D0030000B783FE6541F64056002C200783F20
:10044D00E6541F14B40A0040030205AA9004677510
:10045D00F003A4C58325F0C583730204850204E36C
:10046D0002050502051102051802051B02053902D8
:10047D0005540205650205A77840E6645A6003023B
:10048D0005AA787F76017FFB7E3F120FED7880A65F
:10049D00077FFA7E3F120FED7881A6077FFC7E3F26
:1004AD00120FED7882A6077FFD7E3F120FED788348
:1004BD00A6077FFE7E3F120FED7884A6077FFF7E95
:1004CD003F120FED7885A60708761008761008768E
:1004DD00107F0A0205A4120046787F76020876FF87
:1004ED00120B8C7880A6077F02120ECF7880E664FF
:1004FD000260030205AA8009787F76037F01120E40
:10050D00CF020E69787F76040209A60207DC7842D5
:10051D00E6F50918E6F50A18E6FDAF0AAE09120E62
:10052D0043787F76060876017F02806B787F7607A9
:10053D007840E6B4C20978807601120EB08004E4EA
:10054D007880F67F028050787F76087B007A00797C
:10055D0080120B3A7F05803F787F76097840E6F56B
:10056D000808E62508F50808E62508F50808E62533
:10057D0008F5080866701778807601FB7A007940D7
:10058D00120BDC7B007A007981120B3A8007E4783C
:0D059D0080F608A6087F06020ECF120C7330
:0105AA00222E
:020FEA00C10440
:0A00460075C040C2ECC204020FD0E6
:100C7300787F760A7840E66035788076017F0212C5
:100C83000ECFD296D297C2EC7842E6600575C0507B
:100C9300800375C0707841E6F404F5C2C2C0C2C1D6
:100CA300E4F53DF53CF53EC205D2ECD20422120038
:0B0CB30046E47880F67F02120ECF228C
:100A7900900001E0FFC3E53C953DFE1EEEC39F409B
:100A890049E4FF900001E0FDEFC39D501E74022F61
:100A9900F582E43400F583E0FD7400253DF582E438
:100AA9003401F583EDF0053D0F80D820051274005F
:100AB900253CF582E43401F583E0F5C1053CD20516
:100AC900EEC3947C400453D2F322E5D254F3440894
:030AD900F5D22231
:100D4300C291E53E6029787F760B08A63EE53E24F6
:100D530002FFE433FE78407C007D017B007A00795A
:100D63007F12038AE4F53E75D34053D2FCD206D2F8
:020D73009122CB
:0300530002076041
:10076000C0E0C0F0C083C082C0D075D000C000C05F
:1007700001C002C003C004C005C006C00730C01DD0
:100780007481253EF8A6C1053EE53ED3943E400364
:10079000753E00C2C0200629120D43802430C121BD
:1007A000E53C653D6009A83CE2F5C1053C8002C21C
:1007B00005C3E53C953D14D3943E400353D2F3C2A8
:1007C000C1D007D006D005D004D003D002D001D0CC
:0C07D00000D0D0D082D083D0F0D0E03236
:1006E000020DCFE493A3F8E493A34003F68001F254
:1006F00008DFF48029E493A3F85407240CC8C3331B
:10070000C4540F4420C8834004F456800146F6DFE9
:10071000E4800B0102040810204080900FDFE47E8B
:10072000019360BCA3FF543F30E509541FFEE493DE
:10073000A360010ECF54C025E060A840B8E493A3A5
:10074000FAE493A3F8E493A3C8C582C8CAC583CAD0
:10075000F0A3C8C582C8CAC583CADFE9DEE780BE88
:010FEC000004
:1002BA00E709F608DFFA8046E709F208DFFA803E26
:1002CA0088828C83E709F0A3DFFA8032E309F60813
:1002DA00DFFA8078E309F208DFFA807088828C837B
:1002EA00E309F0A3DFFA806489828A83E0A3F6082F
:1002FA00DFFA805889828A83E0A3F208DFFA804C09
:10030A0080D280FA80C680D4806980F280338010DF
:10031A0080A680EA809A80A880DA80E280CA803348
:10032A0089828A83ECFAE493A3C8C582C8CCC583C0
:10033A00CCF0A3C8C582C8CCC583CCDFE9DEE78090
:10034A000D89828A83E493A3F608DFF9ECFAA9F00F
:10035A00EDFB2289828A83ECFAE0A3C8C582C8CC65
:10036A00C583CCF0A3C8C582C8CCC583CCDFEADE7E
:10037A00E880DB89828A83E493A3F208DFF980CCE0
:10038A0088F0EF60010E4E60C388F0ED2402B404D9
:10039A000050B9F582EB2402B4040050AF23234580
:0603AA00822390030A7398
:1003B000BB010689828A83E0225002E722BBFE024B
:0903C000E32289828A83E493227E
:1003C900BB010CE58229F582E5833AF583E02250E9
:1003D90006E92582F8E622BBFE06E92582F8E22233
:0D03E900E58229F582E5833AF583E493224D
:1003F600BB010689828A83F0225002F722BBFE01E6
:02040600F322DF
:10040800F8BB010DE58229F582E5833AF583E8F02A
:10041800225006E92582C8F622BBFE05E92582C8D6
:02042800F222BE
:10042A00E8600FEFC333FFEE33FEED33FDEC33FC30
:03043A00D8F122D4
:00000001FF
