:1000000002162B8F3A1209E97F551209B4120950D2
:1000100012098DAF3A1200366002C3227F06120029
:10002000366002C3221209CC8F3A12095B120966AC
:10003000EFD36001C3221209B4120950120966EF0E
:1000400022000002054BE709F608DFFA8046E709BF
:10005000F208DFFA803E88828C83E709F0A3DFFA9A
:100060008032E309F608DFFA8078E309F208DFFA64
:10007000807088828C83E309F0A3DFFA8064898230
:100080008A83E0A3F608DFFA805889828A83E0A396
:10009000F208DFFA804C80D280FA80C680D4806972
:1000A00080F28033801080A680EA809A80A880DA6F
:1000B00080E280CA803389828A83ECFAE493A3C801
:1000C000C582C8CCC583CCF0A3C8C582C8CCC583C3
:1000D000CCDFE9DEE7800D89828A83E493A3F6080A
:1000E000DFF9ECFAA9F0EDFB2289828A83ECFAE0D1
:1000F000A3C8C582C8CCC583CCF0A3C8C582C8CC70
:10010000C583CCDFEADEE880DB89828A83E493A3BF
:10011000F208DFF980CC88F0EF60010E4E60C388F2
:10012000F0ED2402B4040050B9F582EB2402B404CB
:100130000050AF232345822390009673BB010689AC
:10014000828A83E0225002E722BBFE02E3228982F8
:100150008A83E49322BB010CE58229F582E5833A88
:10016000F583E0225006E92582F8E622BBFE06E987
:100170002582F8E222E58229F582E5833AF583E4D7
:100180009322BB010689828A83F0225002F722BBA8
:10019000FE01F322F8BB010DE58229F582E5833AE1
:1001A000F583E8F0225006E92582C8F622BBFE0559
:1001B000E92582C8F222BC000BBE0029EF8DF08435
:1001C000FFADF022E4CCF875F008EF2FFFEE33FE20
:1001D000EC33FCEE9DEC984005FCEE9DFE0FD5F057
:1001E000E9E4CEFD22EDF8F5F0EE8420D21CFEAD60
:1001F000F075F008EF2FFFED33FD4007985006D55E
:10020000F0F222C398FD0FD5F0EA22BB010A8982E1
:100210008A83E0F5F0A3E022500687F009E719226F
:10022000BBFE07E3F5F009E3192289828A83E49390
:10023000F5F074019322BB0110E58229F582E58374
:100240003AF583E0F5F0A3E0225009E92582F8862B
:10025000F008E622BBFE0AE92582F8E2F5F008E2A2
:1002600022E5832AF583E993F5F0A3E99322BB0104
:100270000DC58229C582C5833AC5830204935011F6
:10028000C58229F808E5F026F618F5F0E58236F67D
:1002900022BBFE11C58229F808E225F0F5F0F2181C
:1002A000E23582F222F8E58229F582E5832AF58398
:1002B00074019325F0F5F0E4933822BB010A89829A
:1002C0008A83F0E5F0A3F0225006F709A7F019227F
:1002D000BBFE06F3E5F009F31922F8BB0111E58234
:1002E00029F582E5833AF583E8F0E5F0A3F02250A2
:1002F00009E92582C8F608A6F022BBFE09E9258295
:10030000C8F2E5F008F22275F008758200EF2FFFC1
:10031000EE33FECD33CDCC33CCC58233C5829BEDDD
:100320009AEC99E58298400CF582EE9BFEED9AFDE1
:10033000EC99FC0FD5F0D6E4CEFBE4CDFAE4CCF991
:10034000A88222B800C1B90059BA002DEC8BF08404
:10035000CFCECDFCE5F0CBF97818EF2FFFEE33FED2
:10036000ED33FDEC33FCEB33FB10D703994004EB8A
:1003700099FB0FD8E5E4F9FA227818EF2FFFEE3356
:10038000FEED33FDEC33FCC933C910D7059BE99A68
:100390004007EC9BFCE99AF90FD8E0E4C9FAE4CCF9
:1003A000FB2275F010EF2FFFEE33FEED33FDCC3363
:1003B000CCC833C810D7079BEC9AE899400AED9B4C
:1003C000FDEC9AFCE899F80FD5F0DAE4CDFBE4CC2B
:1003D000FAE4C8F922EB9FF5F0EA9E42F0E99D426B
:1003E000F0E89C45F022E8600FECC313FCED13FD30
:1003F000EE13FEEF13FFD8F122BB010789828A8337
:100400000204335005E9F80204A9BBFE05E9F8022D
:1004100004B5227401FF3395E0FEFDFC080808E6F0
:10042000CF2FF618E6CE3EF618E6CD3DF618E6CC10
:100430003CF622ECF0A3EDF0A3EEF0A3EFF022BB2C
:10044000010DE58229F582E5833AF5830204DA504D
:1004500007E92582F80204C1BBFE07E92582F802FC
:10046000050B22BB010DE58229F582E5833AF58370
:1004700002052D5007E92582F8020524BBFE07E995
:100480002582F8020536E58229F582E5833AF5836F
:1004900002053FC5F0F8A3E028F0C5F0F8E58215A5
:1004A0008270021583E038F022ECF608EDF608EED3
:1004B000F608EFF622ECF208EDF208EEF208EFF2A1
:1004C00022D083D082E493F608740193F608740274
:1004D00093F608740393F6740473A8828583F0D0AE
:1004E00083D0821204F11204F11204F11204F1E437
:1004F00073E493A3C583C5F0C583C8C582C8F0A3C0
:10050000C583C5F0C583C8C582C822D083D082E424
:1005100093F208740193F208740293F2087403933F
:10052000F2740473E6FB08E6FA08E6F922E0FBA39E
:10053000E0FAA3E0F922E2FB08E2FA08E2F922E499
:1005400093FB740193FA740293F922C0E0C0F0C0E7
:1005500083C082C0D075D008C2B420D90302071C62
:1005600030DF03020759E5D9543F70030206D42453
:10057000FE602C24E2700302066614603F24F160E2
:100580004C240E600302071A20DE0302071A9003B0
:10059000277482F0E5D454FC4402F5D402071A20F3
:1005A000DE0302071A900329E5DBF090032774812C
:1005B000F0E5D454F34408F5D402071A20DE030210
:1005C000071AE5D254FC4402F5D202071A85DB2152
:1005D000E5216408600302065A12240CF97B01909D
:1005E000000612015590030AF090000712015570A1
:1005F0000990030AE0D3947F400690030A747FF0C9
:1006000075210012240CF97B019000011201559014
:10061000030CF090030FA3E0F5828E83E05460900A
:100620000309F024C0601D2440600302071A12244D
:100630000C7525018A26F5277B017A037909120FAB
:10064000E302071A12240C7525018A26F5277B017F
:100650007A037909120A3002071A90030C74FFF02A
:1006600075DCCF02071A900309E0600302071A90B5
:10067000030CE024FB604A14705590030AE0FFC3AA
:10068000944040047F4080008F217E0090030DE065
:10069000FCA3E0AA0CF97BFFA3E0FCA3E0F87D013A
:1006A00012011690030AE0C39521F090030EE02595
:1006B00021F090030DE03400F08521DD63DC408003
:1006C00059E5E35480FF90030AE04FF5E380487555
:1006D000DD00804330DE4063DC8090030CE024FAD0
:1006E000703385DB2112240CF9781C7C037F041203
:1006F0002416900310E02404FF90030FE03400FA66
:10070000A90F78207C037F02122416E5DC54804474
:1007100040F5DC8005800075DC02C2D930D80F7549
:10072000DC0275D41275E300C2DAC2D9C2D830DA5D
:1007300023C2DAE5DA30E21FE5A220E7FB75A15516
:1007400075A1AA75A98143870275A15575A1AA75DE
:10075000A900800375D8FFD2B4D0D0D082D083D086
:10076000F0D0E032C2AF900328E014603414605936
:100770001470030207F31460030208181211628B4D
:100780003B8A3CF53D121145F5418E408D3F8C3E34
:10079000900329E0754200F5431211D512147A80B6
:1007A0004B1211628B3B8A3CF53D121145F5418E8F
:1007B000408D3F8C3E900329E0754200F5437B005D
:1007C0007A007969120BE680231211628B3B8A3C16
:1007D000F53D121145F5418E408D3F8C3E90032929
:1007E000E0754200F5431211DC121C2C900308EF57
:1007F000F080251211628B3B8A3CF53D12118CE092
:100800008E3EF53F900329E0754000F5411211E35B
:10081000120F26900308EFF0121153900329E0FF06
:10082000E4FCFDFEEB2FFFEE3A1211C0900308E04E
:10083000600AE5D454FC4402F5D48019900329E001
:10084000F5D553D4FC90031C121148FF121153C369
:100850001203D5400312116DD2AF228B3A8A3B8925
:100860003C900001120155543F75F008A4F5497001
:100870004EF546F547C3E5479545E5469544503C5A
:10088000E5472543FFE5463542FEE43541FDE435C5
:1008900040FCAB3DAA3EA93F8546838547821201B5
:1008A00055F552AB3AAA3BA93C1217408F4AEF606C
:1008B00001220547E54770BD054680B97F0022AF9C
:1008C00049AB07E4FAF9F8AF43AE42AD41AC401290
:1008D0000343AC00AD01AE02AF03EC4D4E4F6003DD
:1008E0007F0E22E549FBFD121D6F8E468F47AD033B
:1008F000121D6F8D48E5471547AE46700215464EEE
:100900006033121D37854955120944EF600122E416
:10091000FCFDFEE5432549F543EE3542F542ED3554
:1009200041F541EC3540F540E549253FF53FEE35D1
:100930003EF53E80C0E5486008121D37F5551209A6
:1009400044AF4A22AB3AAA3BA93C1211F48F4A2287
:10095000C291120A16D291120A1622D291120A16C6
:10096000C291120A1622D29175930D78FF30910828
:10097000D8FB75930F7F6E22120A16120A16209169
:100980000675930F7F6E2275930F7F0022D29175AB
:10099000930D78FF209108D8FB75930F7F6E22127C
:1009A0000A16120A1620910675930F7F6E22759310
:1009B0000F7F0022E4F8EFA2E7B39291120A16A289
:1009C000E79291120A162308B808EC22E4F8FFD245
:1009D0009175930D120A23120A16A29533120A2357
:1009E00008B808F075930FFF22C2917F147E0012A1
:1009F0002440D2917F207E03122440C2917F147E36
:100A00000012244022D2917F287E00122440C291FD
:100A10007F1412244022C28CC28D758ACDD28C30B4
:100A20008DFD22C28CC28D758AE6D28C308DFD225E
:100A300090000C1204638B2C8A2D892E90000112D9
:100A400022FA14B40A004003020AFD900A5975F014
:100A500003A4C58325F0C58373020AE2020ABA0221
:100A60000AFD020ABA020AEE020A77020AEE020A36
:100A7000EE020ABA020ABA1222F390000A12043FE6
:100A8000000000001222E790000E120194E4F52805
:100A9000122303900002120155F52990000512015E
:100AA00055F52A900004120155F52BFFAE2AAD2909
:100AB000AC281222F31203F980439000051222FAA7
:100AC000FE9000041201557C002400FFEC3E12222F
:100AD000F39000128FF01202DA1222E79000111246
:100AE00001949000021222EA900010120194122345
:100AF000039000011222F090000F120194122303C0
:100B000012013C20E706E4F5DD75DCC0228B3A8A51
:100B10003B893C121AD830E00CE540C313FEE54196
:100B2000121AE6800EE540540FFE121AC7121AFC84
:100B30008541F01202BB121AC7122382121AC71281
:100B4000020BE5F0121ADF30E063E4F544F545E509
:100B500042C313FEE54313FFC3E5459FE5449E40B2
:100B600003020BE3E54525E0FFE54433AB3DAA3E38
:100B7000A93F8F82F583120155FCE54525E0FFE58D
:100B800044338F82F583A31201557E002400F5477C
:100B9000EE3CF546121AC7AD47FC122124121AC7C3
:100BA000121AAD0545E54570A6054480A2E4F5445A
:100BB000F545C3E5459543E54495425026AB3DAA2E
:100BC0003EA93F854582854483120155FD121AC70F
:100BD000122247121AC7121AAD0545E54570D30512
:100BE0004480CF7F00228B388A39893AE4F544AFBC
:100BF00041AE40AD3FAC3E121DC4120CB412013CDC
:100C000054FE120C9160028040AB38AA39A93A1206
:100C10001D2B6018AF41AE40AD3FAC3E78081203CB
:100C2000E6120E98120EF5EF6002800BAF41120E25
:100C300098120EF5EF600575440E804F120CB41239
:100C4000013C4401120C916005754406803DE4F5B9
:100C500045F546E54324FFFFE54234FFFEC3E54684
:100C60009FE5459E501D120CA6E4FF120F0C740167
:100C7000253DF53DE4353CF53C0546E54670D4059B
:100C80004580D0120CA67F01120F0C120E80AF44CB
:100C900022120182AB38AA39A93A12013CFF120E86
:100CA00098120EF5EF22120EC9AB3BAA3CA93DEFFC
:100CB00012018222120E66AB38AA39A93A22121307
:100CC000DF8E388F39EF4E7003020D91900328E0CC
:100CD00014602E146050146074146003020D6F755C
:100CE0003D01753E01753F08121145F5438E428D59
:100CF000418C408538448539451211D51213428004
:100D000045753D01753E01753F08121145F5438E4D
:100D1000428D418C408538448539457B007A007985
:100D20006912085B8020753D01753E01753F081210
:100D30001145F5438E428D418C40853844853945B7
:100D40001211DC120D95900308EFF08022753D0121
:100D5000753E01753F0812118CE08E40F5418538D3
:100D6000428539431211E3120B0D900308EFF09006
:100D70000308E0600CE5D454F34408F5D412116D77
:100D800022121153E4FCFDEB2539FFEA353812112C
:100D9000C053D4F3228B3A8A3B893C121FC3543F81
:100DA0007021853D51853E52853F5385435785428D
:100DB000568541558540548544588545591218D06B
:100DC0007F0022121FD4121FC3543F75F008A48560
:100DD000F04CF54DAE4CFBAA06E4F9F8AF43AE4239
:100DE000AD41AC40120343AC00AD01AE02AF03EC29
:100DF0004D4E4F60037F0E22121FC9E48F498E486B
:100E0000F547F546121FC98C4A8D4B784674FF1280
:100E10000415EC4D4E4F6036121FA1854C58854D80
:100E200059121FD412194FE4FCFDE543254DF5433B
:100E3000E542354CF542ED3541F541EC3540F540A4
:100E4000E54D253FF53FE54C353EF53E80BDE54B94
:100E5000454A600F121FA1854A58854B59121FD46D
:100E600012194F7F0022D295D2977F017E00122463
:100E700040C2957F04122440C2977F05122440226D
:100E80007F017E00C295122440D2977F0412244035
:100E9000D2957F0512244022E4F8FEEFF9E930E70D
:100EA00004D2958002C2957F01122440D2977F041C
:100EB000122440C2977F05122440E923F908B8089C
:100EC000DCD2957F0112244022E4F8F9FED295C2CB
:100ED000977F05122440D2977F02122440A295E901
:100EE00033F97F0212244008B808E4C2977F021247
:100EF0002440E9FF22E4FED2977F03122440A2950A
:100F000033F8C2977F04122440E8FF227E00EF608E
:100F100004D2958002C2957F02122440D2977F04AA
:100F2000122440C297228B388A39893A121AD83053
:100F3000E00CE53EC313FEE53F121AE6800EE53EE7
:100F4000540FFE121AF5121AFC853FF01202BB1262
:100F50001AF512020BE5F0121ADF30E053E4F54205
:100F6000F543E540C313FEE54113FFC3E5439FE5A9
:100F7000429E506C121AF5121F658E448F45E5444F
:100F8000FDE54325E0FFE54233FEAB3BAA3CA93D2E
:100F90008F82F583ED120194E92FF9EA3EFA900071
:100FA00001E545121AA40543E54370B6054280B237
:100FB000E4F542F543C3E5439541E54295405020B1
:100FC000121AF512229EAB3BAA3CA93D85438285AD
:100FD0004283EF121AA40543E54370D9054280D538
:100FE0007F00228B228A238924AB25AA26A92712D7
:100FF00021D4B40B00400302108E901001F8282871
:101000007302107C02105E02108E02106D02108EB0
:1010100002103102102202108E02104002104F0204
:10102000108B85252B85262C85272D1221C0021596
:101030000F85252B85262C85272D1221C002232CD8
:1010400085252B85262C85272D1221C00222C485BB
:10105000252B85262C85272D1221C002234A852584
:101060002B85262C85272D1221C0021C8485252B3B
:1010700085262C85272D1221C00216B785252B85A4
:10108000262C85272D1221C0021E100224A5122114
:10109000C012245C228F3C900320E0B41308A3E02C
:1010A000B48803C38001D392B37F057E001223B4BA
:1010B000E53C14601B14602F14605F146003021180
:1010C0004475920D75930F7596E07597F9C2B0222D
:1010D0007592AD7593FD7596E07597FFC294C296B3
:1010E000C2B1C2B0C2B22275A15575A1AAE5B95468
:1010F000F84406F5B9E4F5A17F05FE1223B475FBAB
:1011000002E4F5FC75FA6875920D7593BD7596E06D
:101110007597FFD2B1C2B0D2B22275920D7593DF2E
:101120007596E07597FEC29112118CE4FFEE548023
:10113000FEE4FDFCFBFAF9F8C31203D5D37001C33A
:101140009297D2B222900322E0FCA3E0FDA3E0FE3E
:10115000A3E022900322E0F8A3E0F9A3E0FAA3E0E1
:10116000FB2290032CE0FBA3E0FAA3E022900327EC
:101170007483F022F56E8E6D8D6C8C6B900326E07F
:10118000F56FAF6FEFC413135403FF22900322A334
:10119000A3E0FEA32290032AE0F570A3E0F57122FC
:1011A0009003087406F02275D302900311E0FEA3A9
:1011B000E02290032AA3E0F569900326E0F56A2275
:1011C000FEED39FDEC38FC900322020433A3A3F0BA
:1011D0008F828E83227B007A007967227B007A00DF
:1011E000796B227B007A007970227567A0900326C4
:1011F000E0F568228B4B8A4C894DAF54AE53AD520B
:10120000AC51121DC4120E66121D55121D4D121D39
:101210005512013C12129A60057558068076121D0F
:1012200055121D2B6018AF54AE53AD52AC51780817
:101230001203E6120E98120EF5EF6002800BAF5407
:10124000120E98120EF5EF600575580E8046E4F503
:1012500056F557C3E5579555E55694005023AB4EC8
:10126000AA4FA95085578285568312015512129AAA
:101270006005755805801D0557E55770D6055680E1
:10128000D2120E80121D557D64121EDFEF7F0060AA
:10129000087F6E22120E80AF5822FF120E98120E97
:1012A000F5EF2212215812241F7F057E001223B46D
:1012B00012159F758902D2AF900327E0FFF460F802
:1012C000C2B4EF247F604F1460512481B40A0050EF
:1012D0005C9012DF75F003A4C58325F0C58373020B
:1012E00012FD02130202132D02130702130C021344
:1012F0002D02131102132002132502132A12185073
:10130000802B121B078026121CD880AC12244E8022
:101310001C1223CB8017120CBE8012120764800DA2
:101320001220158008121BCB8003121E9C900327ED
:10133000E0B48303122158D2B490032774FFF00263
:1013400012B88B3A8A3B893C900001120155543FF8
:1013500075F008A485F04CF54DAE4CFBAA06E4F9F7
:10136000F8AF43AE42AD41AC40120343AC00AD0117
:10137000AE02AF03EC4D4E4F60037F0E2212228A65
:10138000E48F498E48F547F54612228A8C4A8D4BE8
:10139000784674FF120415EC4D4E4F6030122273E4
:1013A000854D541217C8E4FCFDE543254DF543E592
:1013B00042354CF542ED3541F541EC3540F540E51F
:1013C0004D253FF53FE54C353EF53E80C3E54B45A9
:1013D0004A6009122273854B541217C87F0022E419
:1013E000F53AF53B74082562F974013561FA7B0121
:1013F000C003C00290032F1211658B3F8A40F54154
:10140000900329E0F542D002D0031223E290032991
:10141000E0FF2562F562E43561F561E4FCFDFEE57F
:10142000662FF566EE3565F565ED3564F564EC35EA
:1014300063F563C3E5619402400AE4F561F5627502
:101440003A02F53B90031C121148FFAB66AA65A94E
:1014500064A863C31203D5401CE53B453A7006857A
:10146000613A85623BE4F561F562F566F565F56420
:10147000F56312116DAE3AAF3B228B388A39893A47
:101480001209E97F551209B412095012098DAB38BF
:10149000AA39A93A12013CFF1214ED7F031214ED90
:1014A000AF41AE40AD3FAC3E78081203E6121505E1
:1014B000AF41121505E543154370021542E543455A
:1014C00042601E1214F71209501209667401253D7C
:1014D000F53DE4353CF53CE543154370E0154280AD
:1014E000DC1214F712095B1209667F00221209B49C
:1014F000120950120966221209CCAB3BAA3CA93D45
:10150000EF120182221209B4120950120966228BCD
:10151000288A29892AAB2BAA2CA92D900003120115
:101520005524FE600E0470227B007A00792E12246E
:101530007380097B007A00792E12247D1221DA90C3
:101540000004EE8FF01202DA80061221DA02245C27
:101550001221DA1221D4D3952E4008900001E52EF5
:101560001201941221D4FFC3944040067E407F4074
:1015700080008F2EE92401F9E43AFA12013CC39568
:101580002E1201821221DA900004120236AAF0759E
:1015900034FF8A35F536852E37AA291220BA2290D3
:1015A000030F7400F0A37400F0A37400F0A374445C
:1015B000F0A37400F0A37488F0A37401F0A3740383
:1015C000F0A37418F0900313E0FEA3E0CAEECAF98A
:1015D00090032F1224872440FFE43EFAC9EFC990FC
:1015E000032C12248790032774FFF0C2EAE4F5E28B
:1015F00075EA4075EB0C75ED0075EC0075EF007544
:10160000EE4475E50075E48875DC0275D21275D478
:101610001AF5E375D18075E22943D10175D8FF75BC
:10162000E107D2EAF5DDF5D3F5D522787FE4F6D8E7
:10163000FD7581710216720212A3E493A3F8E4937C
:10164000A34003F68001F208DFF48029E493A3F8B5
:101650005407240CC8C333C4540F4420C883400427
:10166000F456800146F6DFE4800B010204081020E6
:101670004080902468E47E019360BCA3FF543F3017
:10168000E509541FFEE493A360010ECF54C025E08A
:1016900060A840B8E493A3FAE493A3F8E493A3C842
:1016A000C582C8CAC583CAF0A3C8C582C8CAC583D3
:1016B000CADFE9DEE780BE8B288A29892A752800DF
:1016C000752900752A001221E1701E1221C7FDED57
:1016D00064014E7061FB7A00792E12247D8F828E18
:1016E0008374079330E54F804A1221E1640270460B
:1016F0001221C7FDED4E703E900005120155FE907F
:101700000004120155FDEDFFEE702BEF24FE601179
:101710002481601714701FE5D454BF4403F5D480AE
:1017200012E5D4547F440CF5D48008E5D254BF446C
:1017300003F5D20224A5AB28AA29A92A12245C22E7
:101740008F518E508D4F8C4E8B4B8A4C894D121D74
:10175000C4120E66121D5C121D4D121D5C12013C5E
:10176000FF1217C06005755306804F121D5C121DD5
:101770002B6014AF51AE50AD4FAC4E78081203E65B
:101780001217C06002800BAF51120E98120EF5EFC7
:10179000600575530E8023AF52120E98120EF5EFAE
:1017A00060057553058013120E80121D5C7D641256
:1017B0001EDFEF7F0060087F6E22120E80AF532283
:1017C000120E98120EF5EF228F4E8B4F8A508951D0
:1017D00012182B7F961209B412095B1209661218AF
:1017E0002B7F6C1209B4120950120966E5521218C7
:1017F00045AF531209B41209501209661554E55445
:10180000601512229512184574012551F551E435E1
:1018100050F550155480E7122295FF1209B41209B1
:101820005B1209667F0A7E000223B41209E97F5524
:101830001209B412095012098DAF4E1209B41209DF
:101840005012096622FF1209B412095012096622C9
:10185000900328E0FF121095121D78505D90032828
:10186000E01460161460151460401470507567A081
:101870001211D57D67121B698029803EE4FFFEFDB1
:10188000FC900318121156C31203D57002802B90DE
:101890000318121148F56E8E6D8D6C8C6B1211DC75
:1018A000121F22900308EFF080131211951211E31A
:1018B0001221ED900308EFF080031211A012116DB8
:1018C000900308E060047F8080027F021223F822E8
:1018D0008B4E8A4F8950E5591559AE5870021558EC
:1018E0004E606B12249BC2947F0212230AAB4EAA55
:1018F0004FA950121FC3C41313540360181460106F
:10190000146008147014AF5412230AAF5512230A3E
:10191000AF5612230AAF5712230AAB51AA52A9534A
:1019200012013CFF12230A74012553F553E435528A
:10193000F552E5572401F557E43556F556E435558B
:10194000F555E43554F554D29412239B8088228BAC
:101950004E8A4F895012239B12249BC29430020A54
:10196000E5567F0A70027F0280027F0212230AABD3
:101970004EAA4FA950121FC3C41313540360181466
:101980006010146008147014AF5412230AAF55127B
:10199000230AAF5612230AAF5712230AE5591559E5
:1019A000AE58700215584E601AAB51AA52A9531284
:1019B000013CFF12230A74012553F553E43552F517
:1019C0005280D9D294228D4F8B4C8A4D894E12026F
:1019D0000BFDACF0ECC45407FFC374059FFFAE05CC
:1019E000EEA807088002C333D8FC541F33333354A6
:1019F000F8FFE55654074FF556121ACEE55654F83F
:101A00004FF556AB53AA54A955E556120182AB4C7B
:101A1000AA4DA94E12020BFFE5F0540FFEE55654F5
:101A200007FDEFA805088005CEC313CE13D8F954DF
:101A30003F454FAB50AA51A95202018200121A8EA3
:101A4000121A5CED54076013F8ED30E706121A8E97
:101A5000021A56121A9923D8F1C29622E4F8EF30EE
:101A6000E705121A8E8003121A99EFC333FF08B8E4
:101A700008ECC29622E4F8C2967905D9FED296798E
:101A800004D9FEA2B03308B808EDC296FF22D2B145
:101A9000C2967905D9FED29622C2B1C2967905D9ED
:101AA000FED29622120194AB38AA39A93A12020B3F
:101AB000FFAEF0EE54F0FCEF2401FFE43E540F4C77
:101AC000FEEE8FF00202BBAB3AAA3BA93C22120207
:101AD0000BE5F0C45407FF2212020BFDACF0ECC47E
:101AE00013131354012213FFEE540FFEEC54F04E67
:101AF000FEEE8FF022AB38AA39A93A2212020BE58A
:101B0000F054F04EFEEE22900328E0FF12109512E2
:101B10001D785049900328E014600E146010146082
:101B20001E1470311211EA802C1211B2802790031A
:101B300018121148121174BF031B1224918016123F
:101B4000119512118CE0FFEE540FFEE57054F04E2B
:101B5000F570EFF57153D4F37F010223F81211A051
:101B60007F811223F812116D228D3B8B388A3989BF
:101B70003A12013CFFE4FD121FDB121BAC12096696
:101B80007F961209B412095B120966121BAC120986
:101B900066AF3B1209B412095B120966AB38AA3969
:101BA000A93A12013CFF12204D7F00221209E97F61
:101BB000551209B412095012098DAB38AA39A93A45
:101BC00012013CFF1209B412095022900328E0FFD1
:101BD000121095121D78503E900328E024FE600DEF
:101BE00024FE70327FA012218C8F38800F7B007A08
:101BF00000793890032AA3E0FD1220841211A7FF78
:101C0000F5828E83A3E538F08F828E837402F053C1
:101C1000D2FC12116D221211A01211A7F5828E832F
:101C20007482F053D2FC90032704F0228B388A3957
:101C3000893AC29430020AE5407F0B70027F03802C
:101C4000027F0312230AAB38AA39A93A121FC3FF35
:101C5000C413135403601814601014600814701433
:101C6000AF3E12230AAF3F12230AAF4012230AAF3E
:101C70004112230AAB3BAA3CA93DAD43122318D223
:101C8000947F00228B288A29892A752800752900CB
:101C9000752A00AB2BAA2CA92D12013C541F6402FB
:101CA000702A90000412015524FE601B2481600DEF
:101CB000147019E5D454BC4402F5D48018E5D2540C
:101CC000BC4402F5D2800E53D4738009AB28AA29F4
:101CD000A92A12245C0224A5900328E0FF12109583
:101CE000121D78503A900328E014600E146010140E
:101CF000601E14701E1211EA80191211B280149025
:101D00000318121148121174BF03081224918003A2
:101D10001211957F011223F89003277482F022128A
:101D200011A07F821223F812116D2290000112017E
:101D300055C41313540322853D4E853E4F853F50B5
:101D40008543548542538541528540512212013CBE
:101D500054FE020182AB4BAA4CA94D22AB4BAA4CBC
:101D6000A94D22AB59AA5AA95B12013C54F122AEEB
:101D700044AF457C000201B6C200E4F53990032867
:101D8000E014601214601C1460271470267FA012E7
:101D900000039200801D90032AA3E0FF12236892A3
:101DA000008010900318121148FF1220EF9200805B
:101DB00002D20020000BE539C39405500405398098
:101DC000BCA200228F5F8E5E8D5D8C5C8B598A5A1F
:101DD000895B121D2BF56070077FFFFEFDFC8007FD
:101DE000E47FFF7EFFFDFCAB5FAA5EA95DA85CD32C
:101DF0001203D54014E560AF5D7002AF5EEF54078B
:101E000025E0FF121D634F8003121D631201822221
:101E10008B288A29892A782F7C007D007BFF7A0015
:101E200079417E007F02120116752B00752C00751A
:101E30002D00AB28AA29A92A1221D4FFC39402405D
:101E400005752E0280028F2E7534007535007536AB
:101E50002F852E370220BAC2947F9F12230AE4F501
:101E60003E7FFF1223108F3F7FFF1223108F407F92
:101E7000FF1223108F41D294E4FFFEFDFCAB41AA78
:101E800040A93FA83EC31203D5700874FFFFFEFDB2
:101E90007C0022AF41AE40AD3FAC3E22900328E033
:101EA000FF121095121D78502A900328E024FE603E
:101EB0001124FE701E90032AA3E0FD7FA0121FDBF9
:101EC000800D90032AE0FCA3E0FDECFF12221A7FB4
:101ED0000280051211A07F811223F812116D228B4E
:101EE000598A5A895B8D5CAF5C155CEF6031120ECC
:101EF00066AB59AA5AA95B121D4DAB59AA5AA95BE8
:101F000012013CFF120E98120EF5EF7006120E80B1
:101F10007F0022120E807F647E0012244080C87FE2
:101F200006228B388A39893A753800753900753A36
:101F30000012249BC2947F01121F5712249BC2944B
:101F40007F31121F5712249BC2947F6212230AD240
:101F50009412239B7F002212230AE4FF12230AD249
:101F60009412239B2275500075510075524675538B
:101F7000007554007555477D801219C6D294AD473F
:101F8000AF46121A3C121A757548008F49E549751B
:101F90004900F548121A75EF4249C294AE48AF495C
:101FA00022853D51853E52853F5385435785425694
:101FB00085415585405422AB3DAA3CA93BA83AC374
:101FC0000203D5900004020155AC4CAD4DAE44AFB8
:101FD000450201B6AB3AAA3BA93C228F3C8D3D128B
:101FE00009E97F551209B412095012098DAF3C124C
:101FF00009B41209501209667F6E1209B412095011
:10200000120966AF3D1209B412095B1209667F0519
:102010007E000223B47F02121095121E578F3B8E52
:102020003A8D398C3812116D75D3041211AAFFF54F
:10203000828E83A3E5381211CDE5391211CDA3E5C7
:102040003AF08F828E83E53BF053D2FC228F3C1214
:1020500009E97F551209B412095012098DAF3C12DB
:1020600009B41209501209667F051209B48004EF01
:1020700030E00B1209501209661209CC80F11209E6
:102080005B0209668B398A3A893BED24FE600A14AB
:10209000600C8000753C058008753C358003753CFC
:1020A00015C294AF3C12230A7FFF122310AB39AA4A
:1020B0003AA93BEF120182D294228B318A328933C2
:1020C000AF377E00900006120236F8ACF07D01AB0F
:1020D00034AA35A936120116AB31AA32A9339000C1
:1020E00004E48537F012026E8537DD75DCC0228F7F
:1020F0003D8E3C8D3B8C3AC201C202E47F02FEFD64
:10210000FC121FB75011E47F01FEFDFC121FBD70D1
:1021100002D202D201800A121E57121FB77002D2D9
:1021200001A201228C488D497550007551007552ED
:102130004A75530075540075554B7D401219C6D22F
:1021400094AD4BAF4A121A3CE548FF121A5CAF49F6
:10215000121A5CC294022431900328E024FC601916
:102160002402701912241F7F057E001223B475FB10
:1021700020E4F5FC75FA028004C28CC28D75920DC4
:1021800075930D7596E07597F8D2B3228F391209C1
:10219000E97F551209B412095012098DAF3912099D
:1021A000B41209501209667F051209B412095012BF
:1021B00009661209CC8F3A12095B120966AF3A22FE
:1021C000AB22AA23A92422900003120155FE9000FD
:1021D00002020155900001020155AB28AA29A92A43
:1021E00022AB2BAA2CA92D12013C541F228B388A1A
:1021F00039893A122382533B07AB38AA39A93A12DC
:102200001ACEE53B54F84FF53BD294AD3B7F2012FC
:102210001A3CC2941224317F00228F38ED24FE60D4
:102220000A14600C8000753901800875393180030B
:1022300075391112249BC294AF3912230AAF381298
:10224000230AD29402239B8D487550007551007566
:10225000524975530075540075554A7D401219C690
:10226000D294AD4AAF49121A3CAF48121A5CC294DC
:10227000022431AB3AAA3BA93C12013CFFAB3DAA78
:102280003EA93F85425285435322AC4CAD4DAE44EE
:10229000AF450201B6AB4FAA50A95102013C75509F
:1022A00000755100755246755300755400755547B9
:1022B0007D801219C6D294AD47AF46121A3C121A4D
:1022C00075C294228B288A29892A752B00752C00C7
:1022D000752D00E92402F9E43A8B34F53589367519
:1022E0003701A92A0220BA900003AB25AA26A92704
:1022F000120155AB2CAA2DA92E22AB25AA26A9275F
:10230000020155AB25AA26A927228FF930FBFD2211
:102310008FF930FBFDAFF92205A289828A8315A2CD
:1023200085FFF930FBFDE5F9A5DDF5228B288A292B
:10233000892AAB2BAA2CA92D1221CEAB28AA29A918
:102340002A9000011201940224A58B288A29892A47
:10235000AB2BAA2CA92D1221CEAB28AA29A92A90F1
:1023600000021201940224A58F3AD201120E66AF28
:102370003A120E98120EF5EF6002C201120E80A200
:102380000122534807121ACEE54854F84FF548D2B7
:1023900094AD487F30121A3CC29422E4F55AC2949C
:1023A0007F0512230A7FFF1223108F5AE55A20E07F
:1023B000F4D29422AD07AC06ED4C600E7FE87E03AC
:1023C000122440ED1D70F11C80EE227F647E00120D
:1023D00023B475E20675D1807F0A7E001223B40211
:1023E000380005A289828A8315A2854182854083AF
:1023F000AF42E0A3A5DFFB2275D301900311E0FCFF
:10240000A3E0F5828C83EFF053D2FC2290030FE01F
:10241000FEA3E0AA0E227B017D017E00020116755B
:10242000A15575A1AAE5B954F84404F5B9E4F5A19C
:10243000227F017E00122440D29430B0FDC294224B
:10244000EF4E600905A1EF1F70F61E80F322900386
:1024500008E0FF1223F8E4900308F02290000374D0
:10246000FF12019475DCCF220261000004630000BA
:1024700000000074121201827E247FAC22742712A5
:1024800001827E247FBE227401F0A3EAF0A3E9F06A
:1024900022C2947FB712230AD29422C2947F0612DA
:1024A000230AD29422E4F5DD75DCC022120110016A
:1024B000FF805540315117200A0100000001090238
:1024C0002700010104A0320904000003FF80550524
:1024D0000705810340000007058202400000070550
:0524E0000202400000B3
:00000001FF
