:10011F0075A15575A1AA43B94074F855B94405F5B1
:10012F00B975A100224393015392FE4393A25393B7
:10013F00AF53920DC291C295C296C297C294539774
:10014F00FE5396FE4397025396FD439730439630E6
:10015F0022438780759850758DE6758BE6C2ABD2BA
:10016F008ED2ACD2BC2275FB062243C9F27589210F
:10017F00758CC1758A80D28CD2A922C2ACC2BC75D3
:10018F0093007592007590FF75E10075E20690007F
:10019F00641202E5C2AF02380080FBC2AD75C80021
:1001AF0075CBFF75CAFE75CDFF75CCFED2CA224343
:1001BF00C60153937F53927F75CAFD439310539299
:1001CF00EF225393EF5392EF75CAFE53C6FE43933C
:1001DF008053927F22AE82AF837D00AC10AA107B3A
:1001EF0000A8117900E82AFAE93BFB8C007900C3DB
:1001FF00E89AE964808BF063F08095F0400122EC7F
:10020F0070118D030DEB2EF582E43FF5837416F01C
:10021F000202CBBC01118D030DEB2EF582E43FF5ED
:10022F00837403F00202CBEC30E0108D030DEB2E44
:10023F00F582E43FF583E4F00202CBE824FEF58279
:10024F00E934FFF583751404751500C007C006C0A7
:10025F0005C004121269E5828583F0D004D005D061
:10026F0006D00724FAFA743F35F0FB8A128B13EC91
:10027F0030E1208D010DE92EF8E43FF985128285DA
:10028F001383E493C4540F9012A593FB8882898340
:10029F00F080298D030DEB2EFBE43FFA851282854A
:1002AF001383E493F853000F7900E824A5F582E94E
:1002BF003412F583E493F98B828A83F00C0201ECFC
:1002CF00AE82AF83EE4F600D05A105A105A11EBE45
:1002DF00FF011F80EF22AE82AF83EE4F60159003B8
:1002EF00E8C007C0061202CFD006D0071EBEFF011E
:0402FF001F80E72253
:1012A5003031323334353637383941424344454697
:0112B5000038
:04000000020049327F
:03000B00020AD70F
:0100130032BA
:01001B0032B2
:03002300020A8846
:01002B0032A2
:01003300329A
:01003B003292
:030043000209DFD0
:1000A200753500752700753200783A7600783B7610
:1000B20000783C7600783D7600783E7600783F7690
:1000C2000078407600784176007842760078437670
:1000D200007844760078457602784676007847764E
:1000E2000278487600087600784A7600087600782A
:1000F2004C7604784D7604784E7600784F76007808
:10010200507600785176007852760008760078545E
:0D011200760078557600785676000200469B
:03004600020FD2D4
:1003030075E20053E27F43E22975E30053E2BF53F2
:10031300D1FB75D18043D1017E007F038EE48FE54D
:100323007E807F038EE68FE775EB4875D41075D614
:10033300127E807F008EEE8FEF75D21275DE107500
:10034300EA487E007F008EEC8FED75DC0243E1040A
:1003530043E10243E10143E18043D81FD2EAD2AF34
:1003630075DD0075D30075D50022743F55D9FFFEA6
:10037300BE00030209D2BF0202802BBF0402804FDA
:10038300BF2003020934BF2102800BBF2302802F49
:10039300BF3002805E2275D30074FC55D24402F54F
:1003A300D2784476002220DE012274F355D4440827
:1003B300F5D4783CA6DB783D7600783E760122754D
:1003C300D70074FC55D64402F5D678467600222031
:1003D300DE0122AEDE6306808EDE74F355DE440852
:1003E300F5DEAFDB784174402FF6784276407843F0
:1003F300760122AEDB7F00BE0805BF000280030248
:10040300090A900007E0FE7F00900006E07C004FA1
:10041300F521EC4EF5227E007F008F26900001E04F
:10042300F523900000E0FD546070030205BD7526BE
:1004330001900000E0FD20E7030204C47405B52326
:10044300028064740AB52302803E7490B5236B90D6
:100453000004E0FD53053F7C00ED2DFDEC33FCED86
:1004630024B6FDEC3412FC8D828C83E493FB900064
:1004730000F08D828C83E493A3E493FCFD90000150
:10048300F07E027F0002090E900004E0FDBD020928
:10049300900000784DE6F08007900000784CE6F07D
:1004A3007E017F0002090E9000007401F0900001AC
:1004B3007460F07E027F0002090E7EFF7F00020956
:1004C3000EE4B52302805D7401B5230302056F7446
:1004D30002B52302803C7403B52303020568740448
:1004E300B52302802D7406B5230280267407B52335
:1004F30002801F7409B52302804C740BB52302805C
:10050300117491B5230280117492B5230280030202
:1005130005B67E007F0002090E784E76017E007FCD
:100523000002090E900004E0FDBD0104784476004A
:10053300900004E0FDBD02077846760053DE7F7E1F
:10054300007F0002090E900004E0FDBD0109900048
:1005530002784CE0F68007900002784DE0F67E00CA
:100563007F0002090E7E007F0002090E900004E066
:10057300FDBD0238900003E0FD30E012900002E080
:10058300FD30E006784F76018004784F76009000C6
:1005930003E0FD30E112900002E0FD30E106785007
:1005A3007601800478507600783B76147E007F00D5
:1005B30002090E7EFF7F0002090EE52324F5500396
:1005C300020904E52375F003A49005D0730208DE45
:1005D3000207380209040207E702090402070502B9
:1005E30005F102090402071202072F02090E900007
:1005F30003E0FDBD0102800FBD02028016BD0302B0
:10060300801DBD067980717528367529137E127F8A
:1006130000806F7528487529137E377F00806390AB
:100623000002E0700B75287F7529137E04FF80524A
:10063300900002E0FDBD010C7528B57529137E1CE1
:100643007F00803E900002E0FDBD020C752883759B
:1006530029137E1A7F00802A900002E0FDBD040C5E
:1006630075289D7529137E187F0080167528FF75E0
:1006730029FF7E167F00800A7EFF7F0080047EFFB5
:100683007F00C3EE9521EF952250048E218F228E99
:10069300048F05BCFF06BD000302090EAC21AD2289
:1006A300C3EC9408ED940040067C087D008004AC04
:1006B30021AD228C068D0774FFB52818B529158E38
:1006C30011751000900000C007C0061201E4D006A7
:1006D300D007801E8528148529157516808E178FDF
:1006E3001890000075F000C007C0061211B4D006C0
:1006F300D007E521C39EF521E5229FF5228E27022F
:10070300090E900002E0FD8D2175220002090E9072
:100713000000E525F0AC21AD22C3EC9401ED94007B
:10072300500302090E7E017F0002090E900002E0D1
:10073300F52502090E900000E0541F70339000036A
:10074300E0FC7D00900002E0FB7A004205EA4204EF
:10075300BD0116BC001390134FE493FD30E5030273
:10076300090E7EFF7F0002090E7EFF7F0002090E45
:10077300900000E0FD53051F7C00BD0260BC005DDE
:10078300900004E0FDBD0102803FBD0202802BBD4D
:1007930003028017BD81028026BD82028012BD83C1
:1007A3002D74BC55D64402F5D6802753D6738022C8
:1007B30074BC55D44402F5D4801853D47380137495
:1007C300BC55D24402F5D2800953D27380047EFF14
:1007D3007F00784476007846760002090E7EFF7F1C
:1007E3000002090E900000E0541F7033900003E0F4
:1007F300FC7D00900002E0FB7A004205EA4204BD62
:100803000116BC001390134FE493FD30E503020976
:100813000E7EFF7F0002090E7EFF7F0002090E900D
:100823000000E0FD53051F7C00BD0205BC000280F3
:10083300030208D8900003E0FC7D00900002E0FB77
:100843007A004205EA4204ED4C60030208D29000AC
:1008530005E0FC7D00900004E0FB7A004205EA42DB
:1008630004BD0105BC00028058BD0205BC00028026
:100873003CBD0305BC00028020BD8105BC00028095
:1008830036BD8205BC0002801ABD833DBC003A74AC
:10089300BF55D64403F5D68072747F55D6440CF504
:1008A300D6806874BF55D44403F5D4805E747F55F5
:1008B300D4440CF5D4805474BF55D24403F5D2808C
:1008C3004A747F55D2440CF5D27EFF7F00803C7E74
:1008D300FF7F0080367EFF7F008030900000E4F0D1
:1008E300900001F0AC21AD22C3EC9402ED940040E2
:1008F300067C027D008004AC21AD228C068D07802E
:100903000A7EFF7F0080047EFF7F008E048F05BC7C
:10091300FF0ABD00077523FF75DCCF22C374089C53
:10092300E49D40068EDD75DCC02275DD0075DCC0FC
:10093300227405B523030209B97406B523028003A3
:100943000209CBAE21AF22C3EE9408EF9400400618
:100953007E087F008004AE21AF2274FFB52818B54E
:1009630029158E11852710900000C007C0061201BB
:10097300E4D006D0078025E5272528FCE43529FDAA
:100983008C148D157516808E178F1890000075F0D6
:1009930000C007C0061211B4D006D007E521C39EDC
:1009A300F521E5229FF522EE2527F5278EDDAEDC26
:1009B3006306408EDC22E5267021E5E35480FFE5E3
:1009C300214FF5E375DC022275DD0075DC0222742C
:1009D30022B523012275DD0043DC0222C020C0E0E2
:1009E300C0F0C082C083C007C006C005C004C003F6
:1009F300C002C001C000C0D075D000E5D930D90510
:100A030012036DC2D930D85475DC0275D21275D475
:100A13001275E300C2DAC2D9C2D8752500784476CC
:100A23000078467600783C7600783D7600783E760E
:100A330000784176007842760078437600785476E1
:100A43000078527600087600785176007845760271
:100A530078477602783F76007840760010DA028095
:100A630004E5DA800375D8FFD0D0D000D001D002DE
:100A7300D003D004D005D006D007D083D082D0F0E5
:100A8300D0E0D02032C0D0C0E0C083C08230981DF7
:100A9300E5558556820453827F547F6582600E75C7
:100AA3008301855582E599F0055553557FC29830EA
:100AB3009919C3E54295414005753F01800B758344
:100AC30000854282E0F5990542C299D082D083D055
:100AD300E0D0D032C0E0C0F0C007C006C001C00003
:100AE300C0D075D000758CC1758A80784A86060897
:100AF3008607784A74012EF6E43F08F6784886069E
:100B0300088607784874012EF6E43F08F67E007FD6
:100B130000784AE608E6EE4F6002D2B478488606CB
:100B2300088607C3EE94E8EF94034009B2B578480A
:100B33007600087600783BE66007783BE6783B145E
:100B4300F6783BB6012C784FE670097850B601046D
:100B5300D290C291784FB601097850E67004C290E2
:100B6300D291784F795086F0E7B5F006D291C290D2
:100B7300D290D0D0D000D001D006D007D0F0D0E0B2
:100B8300327851E6FF24F35003020FCDEF2F2F905D
:100B93000B9673020BBD020CD6020CF5020D750207
:100BA3000E19020E50020EF4020EB5020F1E020FB2
:100BB3008B020F9A020DC7020FA6783D86827583BA
:100BC30003E0F5357411B53503020C9D7413B53587
:100BD30003020CAC7419B53503020C9D741BB535B7
:100BE30003020CAC7431B53503020C9D7439B53571
:100BF30003020C9D743BB53503020CAC744BB53545
:100C030003020CAC746BB53503020CAC7480B535C0
:100C13000280347481B5350280397482B53502801F
:100C2300267483B53502802B7484B53502804C74E9
:100C330085B5350280457486B5350280467487B51F
:100C43003502804B020CBB78517609783DE6783D3E
:100C530004F622784586077845EF04F6EF2480FFF3
:100C6300E43400FE783D8682758303E024808F821E
:100C73008E83F0783DE6783D04F622783DE6783DB4
:100C830004F62278517609783DE6783D04F622751C
:100C93003201783DE6783D04F62275FAE078517624
:100CA30001783DE6783D04F62275FA007851760422
:100CB300783DE6783D04F622784586077845EF04CB
:100CC300F6EF2480F582E43400F58374FAF078516A
:100CD300760622783D8682758303E0FF7852A60765
:100CE3000876007851E6785104F6783DE6783D04BD
:100CF300F622783D8682758303E0FE7F0078528674
:100D030004088605EF4204EE42057852A60408A6BD
:100D130005783DE6783D04F678528606088607BED8
:100D2300A805BF6102801C78528606088607BEEEBE
:100D330005BF0202800D78528606088607BE981307
:100D4300BF0B10E53520E50B75FA001201BE785193
:100D5300760C227411B5350280057431B5350878E7
:100D630051760B53FCF7227851E6785104F643FC95
:100D73000822783D8682758303E0F5338533F930A5
:100D8300FBFD85F9347439B5351678458607784502
:100D9300EF04F6EF2480F582E43400F583E534F0C4
:100DA300783DE6783D04F67852E6084670037851BC
:100DB300F6785286060886077852EE24FFF6EF345B
:100DC300FF08F622783D8682758303E0F533853389
:100DD300F930FBFD85F9347431B53516784586074E
:100DE3007845EF04F6EF2480F582E43400F583E5DB
:100DF30034F0783DE6783D04F67852E60846700311
:100E03007851F6785286060886077852EE24FFF664
:100E1300EF34FF08F622783D86827583037854E029
:100E2300F6746BB535028005744BB535067851768B
:100E33000880127413B53506785176078007785108
:100E4300E6785104F6783DE6783D04F622783D864F
:100E530082758303E0F533753400C297E53354019B
:100E6300FF24FF9295E533C313F533E534C313F53C
:100E7300340000D2973096034334800000785486C0
:100E8300077854EF14F6EF70D1C297743BB535165B
:100E9300784586077845EF04F6EF2480F582E4343D
:100EA30000F583E534F078517600783DE6783D042B
:100EB300F622783D8682758303E0F533753400C2EC
:100EC30097E53323540124FF9295E533FF25E0F59D
:100ED300330000D2970000785486077854EF14F655
:100EE300EF70DCC29778517600783DE6783D04F6E2
:100EF30022784586077845EF04F6EF2480FFE43433
:100F030000FE783D8682758303E08F828E83F078BE
:100F1300517600783DE6783D04F622783D86827569
:100F23008303E0F533235401FF24FF9295753400C6
:100F3300C297E5335401FF24FF9291E533C313F5C0
:100F430033E534C313F5340000D2973096034334AA
:100F5300800000785486077854EF14F6EF70D1C2FE
:100F630097746BB53516784586077845EF04F6EF29
:100F73002480F582E43400F583E534F0785176007B
:100F8300783DE6783D04F6227851E6785104F67808
:100F93003DE6783D04F62278517600783DE6783DCB
:100FA30004F6227852E6084670067851F61201D10B
:100FB300783DE6783D04F67852860608860778522F
:100FC300EE24FFF6EF34FF08F6227851760022E490
:100FD300F536F537F538F53912011F90000A12027C
:100FE300E51201791201AA1201341201601201758E
:100FF3001203039000807401F09000817460F090FC
:1010030003807401F09003817460F0784576027870
:1010130047760275A200C2B4D2B5D2AFE52560FC13
:10102300783EB601217845B64000501A7844E67000
:1010330015B2B4120B84783D793CC3E69740077828
:101043003E760053D4F37844E6704C7845B64010AE
:101053007844760175D34053D2FC784576028037C5
:10106300784AE6C39536FE08E69537FF784C860442
:101073007D00C3EE9CEF9D50057401B53219784A8B
:10108300863608863778447601784586D353D2FC72
:10109300784576027532007846E66003021174786B
:1010A300557956E6C397FF30E70474802FFFC3EFEB
:1010B300648094BE40457E008E050D0DED3395E0B2
:1010C300FCED2480FDEC3403FC785686037856EB64
:1010D30004F68B82758301E0FB8D828C83F0785656
:1010E300E6547FF60EBE3E0040CE7846760175D7B5
:1010F3004053D6FC78477602021174784AE6C395CA
:1011030038FD08E69539FE784D86037C00C3ED9BD8
:10111300EE9C405D784A8638088639C374BE8FF0EA
:1011230063F08095F050027F3E7E008F05C3EE9DF5
:10113300502F8E050D0DED3395E0FCED2480FDEC75
:101143003403FC785686037856EB04F68B8275835A
:1011530001E0FB8D828C83F07856E6547FF60E8097
:10116300CA7846760174022FF5D77847760253D6AC
:10117300FC7843E66017783FE67006783F7602D244
:1011830099E5DE30E00353DEF378437600783FB62B
:10119300010D783F7602D299783F760053DEF378DB
:1011A3004EE6700302101F784E760012018A021079
:0111B3001F1C
:1012B600000803041060000580320000000296104A
:1012C600A61A0000460010034F00700065006E006D
:1012D6002D00450043001A0355005300420020002C
:1012E60044006500620075006700670065007200D3
:1012F60000000000000000000000000000000000E8
:1013060000000000000000000000000000000000D7
:1013160000000000000000000000000000000000C7
:101326000000000000000000000000000000271080
:10133600120100020000000803041060000501020B
:10134600030109023700020100803209040000028D
:10135600FFFFFF0407058102400000070502024067
:1013660000000904010002FFFFFF00070583024099
:10137600000007050402400000040309041A035391
:1013860000690070006500650064002D004400657A
:10139600006200750067001803530069007000655D
:1013A60000650064002D004A005400410047001CFF
:1013B600035500730062004A007400610067003242
:1013C60000300031003000320036000A060002FF0D
:0513D600FFFF0800000C
:06007800E478FFF6D8FD5C
:1011B400AD82AE83AFF08D198E1A8F1B85141C85FA
:1011C400151D85161EA817A9188803890418B8FFC9
:1011D4000119EB4C6025851C82851D83851EF01248
:1011E400124DFCA385821C85831D8D828E838FF016
:1011F400EC121209A3AD82AE8380CE851982851AC2
:0512040083851BF022B0
:100056007900E94400601B7A009013DB780075A0F4
:1000660001E493F2A308B8000205A0D9F4DAF27508
:02007600A0FFE9
:1012090020F71130F6138883A88220F509F6A88300
:0B1219007583002280FEF280F5F022B9
:10007E007800E84400600A790075A001E4F309D81D
:10008E00FC7800E84400600C7900900100E4F0A3D5
:04009E00D8FCD9FAB7
:101224007A10E4FBFCE58225E0F582E58333F5835F
:10123400EB33FBEC33FCEB9514F5F0EC9515400621
:09124400FCABF0438201DADD226B
:0D0049007581561212A1E582600302004687
:10124D0020F71430F6148883A88220F507E6A883CA
:10125D0075830022E280F7E49322E022C2D5E58374
:10126D0030E70DD2D5E4C39582F582E49583F583FD
:10127D00E51530E70DB2D5E4C39514F514E49515D5
:10128D00F51512122430D50BE4C39582F582E49541
:08129D0083F583227582002213
:00000001FF
